:020000040800F2
:10000000008000205D0300080103000807030008CA
:100010000D03000813030008190300080000000086
:100020000000000000000000000000001F030008A6
:100030002B030008000000003703000843030008FA
:10004000AD030008AD030008AD030008AD030008D0
:10005000AD030008AD030008AD030008AD030008C0
:10006000AD030008AD030008AD030008AD030008B0
:10007000AD030008AD030008AD030008AD030008A0
:10008000AD030008AD030008AD030008AD03000890
:10009000AD030008AD030008AD030008AD03000880
:1000A000AD030008AD030008AD030008AD03000870
:1000B000AD030008AD030008AD030008AD03000860
:1000C000AD030008AD030008AD030008AD03000850
:1000D000AD030008AD030008AD030008AD03000840
:1000E000AD030008AD030008AD030008AD03000830
:1000F000AD030008AD030008AD030008AD03000820
:10010000AD030008AD030008AD030008AD0300080F
:10011000AD030008AD030008AD030008AD030008FF
:10012000AD030008AD030008AD030008AD030008EF
:08013000AD030008AD03000857
:1001380010B5054C237833B9044B13B10448AFF319
:1001480000800123237010BD0C0000200000000077
:100158001C1C000808B5034B1BB103490348AFF347
:10016800008008BD00000000100000201C1C0008D2
:1001780080B485B000AF78604FF0B043DA6C4FF0D0
:10018800B0417B681343CB644FF0B043DA6C7B68B3
:100198001340FB60FB6800BF1437BD4680BC704746
:1001A80080B500AF00F000F900F014F800F064F832
:1001B8004FF40041064800F0E6FB4FF40071044894
:1001C80000F0E1FB4FF4FA7000F064F9F0E700BFCB
:1001D8000004004880B59AB000AF07F12003482218
:1001E8000021184601F00EFD3B1D00221A605A60DE
:1001F8009A60DA601A615A619A611E4B1B6823F48F
:10020800C0631C4A43F4007313601A4B1B6803F461
:10021800C0633B603B6820233B6201233B640023AF
:100228007B64B023BB640023FB6407F120031846FA
:1002380000F07EFE0346002B01D000F053F84F2358
:100248007B600023BB600023FB6000233B6100232D
:100258007B610023FB613B1D0221184601F002FA75
:100268000346002B01D000F03DF800BF6837BD46BB
:1002780080BD00BF0004005880B586B000AF3B1DAC
:1002880000221A605A609A60DA601A610220FFF749
:100298006FFF00224FF40241114800F05DFB4FF45C
:1002A80002437B600123BB600023FB6000233B61AA
:1002B8003B1D19460A4800F0F1F908237B60022328
:1002C800BB600023FB6000233B6105237B613B1D72
:1002D8001946034800F0E2F900BF1837BD4680BD53
:1002E8000004004880B400AF72B6FEE780B400AFE7
:1002F80000BFBD4680BC704780B400AFFEE780B445
:1003080000AFFEE780B400AFFEE780B400AFFEE7C1
:1003180080B400AFFEE780B400AF00BFBD4680BC2C
:10032800704780B400AF00BFBD4680BC704780B442
:1003380000AF00BFBD4680BC704780B500AF00F07D
:100348008DF800BF80BD80B400AF00BFBD4680BC43
:10035800704700000D488546FFF7F5FF0C480D492A
:100368000D4A002302E0D458C4500433C4188C4208
:10037800F9D30A4A0A4C002301E013600432A2426E
:10038800FBD301F01BFCFFF70BFFFEE7008000200A
:10039800000000200C000020D81C00080C000020E1
:1003A8002C000020FEE7000080B582B000AF0023DB
:1003B800FB71032000F040F901F036FB0246094BBF
:1003C8001A600F2000F010F80346002B02D001231A
:1003D800FB7101E0FFF78AFFFB7918460837BD4635
:1003E80080BD00BF0000002080B584B000AF7860F9
:1003F8000023FB73174B1B78002B24D001F014FB50
:100408000246144B1B7819464FF47A73B3FBF1F389
:10041800B2FBF3F3184600F034F90346002B0FD172
:100428007B680F2B09D8002279684FF0FF3000F065
:100438000EF9094A7B68136007E00123FB7304E0A7
:100448000123FB7301E00123FB73FB7B1846103784
:10045800BD4680BD080000200400002080B400AF25
:10046800054B1B781A46054B1B681344034A136057
:1004780000BFBD4680BC704708000020280000204F
:1004880080B400AF024B1B681846BD4680BC70475D
:100498002800002080B584B000AF7860FFF7F0FF37
:1004A800B8607B68FB60FB68B3F1FF3F05D0094B80
:1004B8001B781A46FB681344FB6000BFFFF7E0FF98
:1004C8000246BB68D31AFA689A42F7D800BF1037B9
:1004D800BD4680BD0800002080B485B000AF7860BC
:1004E8007B6803F00703FB600C4BDB68BB60BA68F2
:1004F8004FF6FF031340BB60FB681A02BB68134347
:1005080043F0BF6343F40033BB60044ABB68D36065
:1005180000BF1437BD4680BC704700BF00ED00E047
:1005280080B400AF044BDB681B0A03F007031846CE
:10053800BD4680BC704700BF00ED00E080B483B0CA
:1005480000AF03463960FB7197F90730002B0ADBCF
:100558003B68DAB20C4997F907301201D2B20B4462
:1005680083F800230AE03B68DAB20849FB7903F014
:100578000F03043B1201D2B20B441A7600BF0C37AA
:10058800BD4680BC704700BF00E100E000ED00E020
:1005980080B489B000AFF860B9607A60FB6803F096
:1005A8000703FB61FB69C3F10703042B28BF04237E
:1005B800BB61FB690433062B02D9FB69033B00E0EE
:1005C80000237B614FF0FF32BB6902FA03F3DA4381
:1005D800BB681A407B699A404FF0FF317B6901FA8A
:1005E80003F3D9437B680B40134318462437BD46B1
:1005F80080BC704780B582B000AF78607B68013BF3
:10060800B3F1807F01D301230FE00A4A7B68013BE5
:1006180053600F214FF0FF30FFF790FF054B00228A
:100628009A60044B07221A60002318460837BD4613
:1006380080BD00BF10E000E080B582B000AF7860F8
:100648007868FFF749FF00BF0837BD4680BD80B511
:1006580086B000AF0346B9607A60FB73FFF760FFAE
:1006680078617A68B9687869FFF792FF024697F966
:100678000F3011461846FFF761FF00BF1837BD4617
:1006880080BD80B582B000AF78607868FFF7B2FFB0
:10069800034618460837BD4680BD000080B487B0C1
:1006A80000AF7860396000237B6140E13B681A68DD
:1006B80001217B6901FA03F31340FB60FB68002BFF
:1006C80000F032813B685B68012B0BD03B685B68AC
:1006D800022B07D03B685B68112B03D03B685B6833
:1006E800122B30D17B689B683B617B695B000322DE
:1006F80002FA03F3DB433A6913403B613B68DA686B
:100708007B695B0002FA03F33A6913433B617B6838
:100718003A699A607B685B683B6101227B6902FAEF
:1007280003F3DB433A6913403B613B685B681B0991
:1007380003F001027B6902FA03F33A6913433B6150
:100748007B683A695A607B68DB683B617B695B0060
:10075800032202FA03F3DB433A6913403B613B6827
:100768009A687B695B0002FA03F33A6913433B61B9
:100778007B683A69DA603B685B68022B03D03B68A8
:100788005B68122B23D17B69DA087B68083253F83F
:1007980022303B617B6903F007039B000F2202FABA
:1007A80003F3DB433A6913403B613B681A697B6991
:1007B80003F007039B0002FA03F33A6913433B6112
:1007C8007B69DA087B680832396943F822107B684C
:1007D8001B683B617B695B00032202FA03F3DB437E
:1007E8003A6913403B613B685B6803F003027B692D
:1007F8005B0002FA03F33A6913433B617B683A6989
:100808001A603B685B6803F08053002B00F08C8013
:100818004D4A7B699B08023352F823303B617B6960
:1008280003F003039B00072202FA03F3DB433A6950
:1008380013403B617B68B3F1904F0DD07B68434A0E
:10084800934207D07B68424A934201D1022304E0D5
:10085800072302E0012300E000237A6902F0030283
:10086800920093403A6913433B6137497B699B087F
:1008780002333A6941F82320364BD3F880303B6184
:10088800FB68DB433A6913403B613B685B6803F4F0
:100898008033002B03D03A69FB6813433B612D4A30
:1008A8003B69C2F880302B4BD3F884303B61FB683E
:1008B800DB433A6913403B613B685B6803F40033F0
:1008C800002B03D03A69FB6813433B61214A3B691B
:1008D800C2F884301F4B1B683B61FB68DB433A69F5
:1008E80013403B613B685B6803F48013002B03D023
:1008F8003A69FB6813433B61164A3B691360154B21
:100908005B683B61FB68DB433A6913403B613B68CA
:100918005B6803F40013002B03D03A69FB681343A8
:100928003B610C4A3B6953607B6901337B613B68DF
:100938001A687B6922FA03F3002B7FF4B7AE00BF75
:100948001C37BD4680BC70470000014000040048C9
:10095800000800480008005880B483B000AF7860F1
:100968000B467B8013467B707B78002B03D07A88FC
:100978007B689A6102E07A887B689A6200BF0C37CC
:10098800BD4680BC704780B485B000AF78600B4628
:100998007B807B685B69FB607A88FB6813401A047C
:1009A800FB68D9437B880B401A437B689A6100BF78
:1009B8001437BD4680BC704780B400AF044B1B6839
:1009C800034A43F48073136000BFBD4680BC704780
:1009D8000004005880B400AF034B1B6803F4C063E5
:1009E8001846BD4680BC70470004005880B400AF6C
:1009F800064B1B6803F48073B3F5807F01D1012394
:100A080000E000231846BD4680BC7047000400582B
:100A180080B400AF4FF0B0431B684FF0B04243F4CE
:100A28000013136000BFBD4680BC704780B400AFA0
:100A38004FF0B0431B684FF0B04223F4001313602B
:100A480000BFBD4680BC704780B400AF4FF0B043D4
:100A58001B6803F48013B3F5801F01D1012300E064
:100A680000231846BD4680BC704780B400AF4FF0E5
:100A7800B0431B684FF0B04243F48033136000BFAB
:100A8800BD4680BC704780B400AF4FF0B0431B68D0
:100A98004FF0B04223F48033136000BFBD4680BCE2
:100AA800704780B400AF4FF0B0431B6803F40033C5
:100AB800B3F5003F01D1012300E000231846BD46ED
:100AC80080BC704780B400AF4FF0B0431B684FF054
:100AD800B04243F48073136000BFBD4680BC7047CA
:100AE80080B400AF4FF0B0431B684FF0B04223F41E
:100AF8008073136000BFBD4680BC704780B400AFF0
:100B08004FF0B0431B6803F48063B3F5806F01D1E5
:100B1800012300E000231846BD4680BC704780B41E
:100B280083B000AF78604FF0B0435B6823F0FE42BB
:100B38007B681B064FF0B04113434B6000BF0C3776
:100B4800BD4680BC704780B400AF4FF0B043D3F8C7
:100B5800903003F00203022B01D1012300E00023AF
:100B68001846BD4680BC704780B400AF4FF0B04314
:100B7800D3F894304FF0B04243F00103C2F89430F8
:100B880000BFBD4680BC704780B400AF4FF0B04393
:100B9800D3F894304FF0B04223F00103C2F89430F8
:100BA80000BFBD4680BC704780B400AF4FF0B04373
:100BB800D3F8943003F00203022B01D1012300E0A3
:100BC80000231846BD4680BC704780B400AF4FF084
:100BD800B0431B684FF0B04243F00103136000BFFD
:100BE800BD4680BC704780B400AF4FF0B0431B686F
:100BF8004FF0B04223F00103136000BFBD4680BC34
:100C0800704780B400AF4FF0B0431B6803F0020395
:100C1800022B01D1012300E000231846BD4680BC09
:100C2800704780B400AF4FF0B0431B6803F008036F
:100C3800082B01D1012300E000231846BD4680BCE3
:100C4800704780B400AF4FF0B0431B6803F0F00367
:100C58001846BD4680BC704780B400AF4FF0B04323
:100C6800D3F8943003F470631846BD4680BC7047CF
:100C780080B483B000AF78604FF0B0435B6823F472
:100C88007F427B681B024FF0B04113434B6000BFAB
:100C98000C37BD4680BC704780B483B000AF786025
:100CA8004FF0B0439B6823F003024FF0B0417B68DC
:100CB80013438B6000BF0C37BD4680BC704780B4BF
:100CC80000AF4FF0B0439B6803F00C031846BD46D5
:100CD80080BC704780B483B000AF78604FF0B043F9
:100CE8009B6823F0F0024FF0B0417B6813438B60A0
:100CF80000BF0C37BD4680BC704780B483B000AFDE
:100D080078604FF0B043D3F8083123F0F0024FF089
:100D1800B0417B681343C1F8083100BF0C37BD46AA
:100D280080BC704780B483B000AF78604FF0B043A8
:100D3800D3F8083123F00F027B681B094FF0B0414C
:100D48001343C1F8083100BF0C37BD4680BC70475B
:100D580080B483B000AF78604FF0B0439B6823F451
:100D6800E0624FF0B0417B6813438B6000BF0C37E3
:100D7800BD4680BC704780B483B000AF78604FF048
:100D8800B0439B6823F460524FF0B0417B68134333
:100D98008B6000BF0C37BD4680BC704780B400AF85
:100DA8004FF0B0439B6803F0F0031846BD4680BC83
:100DB800704780B400AF4FF0B043D3F808311B013F
:100DC80003F0F0031846BD4680BC704780B400AFFE
:100DD8004FF0B0431B684FF0B04243F0807313608C
:100DE80000BFBD4680BC704780B400AF4FF0B04331
:100DF8001B684FF0B04223F08073136000BFBD46FC
:100E080080BC704780B400AF4FF0B0431B6803F05C
:100E18000073B3F1007F01D1012300E000231846DD
:100E2800BD4680BC704780B400AF4FF0B043DB686C
:100E38001B0A03F07F031846BD4680BC704780B488
:100E480000AF4FF0B043DB6803F060431846BD467F
:100E580080BC704780B400AF4FF0B043DB6803F04C
:100E680070031846BD4680BC704780B400AF4FF091
:100E7800B043DB6803F003031846BD4680BC7047E7
:100E880080B400AF4FF0B0439B6803F48033B3F5F0
:100E9800803F01D1012300E000231846BD4680BCF5
:100EA800704780B400AF4FF0B043D3F8083103F473
:100EB8000033B3F5003F01D1012300E000231846B9
:100EC800BD4680BC704780B400AF4FF0B043D3F844
:100ED800083103F48033B3F5803F01D1012300E0EA
:100EE80000231846BD4680BC704780B400AF4FF061
:100EF800B0439B6803F40033B3F5003F01D10123ED
:100F080000E000231846BD4680BC704780B400AF9F
:100F18004FF0B0439B6803F48023B3F5802F01D1D1
:100F2800012300E000231846BD4680BC704700003E
:100F380080B588B000AF78607B68002B01D10123B1
:100F48008AE3FFF7BCFEF861FFF78FFFB8617B68A3
:100F58001B6803F02003002B00F0C980FB69002BFD
:100F680005D0FB690C2B7BD1BB69012B78D1FFF72E
:100F780048FE0346002B05D07B681B6A002B01D175
:100F8800012369E37B689A6A4FF0B0431B6803F05A
:100F98000803002B05D04FF0B0431B6803F0F003A3
:100FA80006E04FF0B043D3F894301B0903F0F00388
:100FB800934222D27B689B6A184600F049FD03469B
:100FC800002B01D0012347E34FF0B0431B684FF0DB
:100FD800B04243F0080313604FF0B0431B6823F09E
:100FE800F0027B689B6A4FF0B04113430B607B684B
:100FF8005B6A1846FFF73CFE21E04FF0B0431B68E0
:101008004FF0B04243F0080313604FF0B0431B6841
:1010180023F0F0027B689B6A4FF0B04113430B60EA
:101028007B685B6A1846FFF723FE7B689B6A184655
:1010380000F00EFD0346002B01D001230CE300F065
:10104800F3FC0246B44B1A60B44B1B681846FFF712
:10105800CBF90346FB74FB7C002B47D0FB7CFBE2FF
:101068007B681B6A002B2CD0FFF7AFFDFFF708FA4F
:10107800786108E0FFF704FA02467B69D31A022B6D
:1010880001D90323E8E2FFF7BCFD0346002BF1D0AA
:101098004FF0B0431B684FF0B04243F008031360B1
:1010A8004FF0B0431B6823F0F0027B689B6A4FF057
:1010B800B04113430B607B685B6A1846FFF7D8FDA5
:1010C80015E0FFF790FDFFF7DBF9786108E0FFF71F
:1010D800D7F902467B69D31A022B01D90323BBE255
:1010E800FFF78FFD0346002BF1D100E000BF7B68BE
:1010F8001B6803F00103002B5FD0FB69082B05D0A8
:10110800FB690C2B0DD1BB69032B0AD1FFF7C9FC76
:101118000346002B50D07B685B68002B4CD1012321
:101128009AE24FF0B0431B6823F480127B689B68F7
:101138004FF0B04113430B607B685B68B3F5803FA9
:1011480002D1FFF792FC0DE07B685B68B3F5041FE2
:1011580004D1FFF75DFCFFF788FC03E0FFF793FC81
:10116800FFF764FC7B685B68002B12D0FFF788F9F7
:10117800786108E0FFF784F902467B69D31A642B8B
:1011880001D9032368E2FFF78CFC0346002BF1D05A
:1011980013E0FFF775F9786108E0FFF771F9024687
:1011A8007B69D31A642B01D9032355E2FFF779FC35
:1011B8000346002BF1D100E000BF7B681B6803F0F9
:1011C8000203002B4BD0FB69042B05D0FB690C2BC9
:1011D80013D1BB69022B10D1FFF790FC0346002BFB
:1011E80005D07B681B69002B01D1012334E27B68A1
:1011F8005B691846FFF793FC31E07B681B69002B9D
:1012080019D0FFF75FFCFFF73BF9786108E0FFF7BB
:1012180037F902467B69D31A022B01D903231BE253
:10122800FFF76CFC0346002BF1D07B685B6918461E
:10123800FFF775FC13E0FFF753FCFFF721F978611E
:1012480008E0FFF71DF902467B69D31A022B01D982
:10125800032301E2FFF752FC0346002BF1D17B6820
:101268001B6803F00803002B6ED07B689B69002B7A
:1012780056D04FF0B043D3F89430FB607B68DA69FE
:10128800FB6803F010039A4231D0FB6803F00203B5
:10129800002B06D0FB6803F00103002B01D10123CA
:1012A800DAE1FB6803F00103002B13D0FFF76CFCB5
:1012B800FFF7E6F8786108E0FFF7E2F802467B6995
:1012C800D31A112B01D90323C6E1FFF76DFC03469E
:1012D800002BF1D14FF0B043D3F8943023F0100233
:1012E8007B68DB694FF0B0411343C1F89430FFF7D6
:1012F8003BFCFFF7C5F8786108E0FFF7C1F8024644
:101308007B69D31A112B01D90323A5E1FFF74CFC04
:101318000346002BF1D017E0000000200400002055
:10132800FFF732FCFFF7ACF8786108E0FFF7A8F8A0
:1013380002467B69D31A112B01D903238CE1FFF7ED
:1013480033FC0346002BF1D17B681B6803F00403D0
:10135800002B00F0D880FFF749FB0346002B13D180
:10136800FFF72AFBFFF78CF8786108E0FFF788F8A9
:1013780002467B69D31A022B01D903236CE1FFF7DC
:1013880035FB0346002BF1D07B68DB68002B7BD054
:101398007B68DB68852B03D07B68DB68052B09D16C
:1013A8004FF0B043D3F890304FF0B04243F004030D
:1013B800C2F89030FFF764F878614FF0B043D3F883
:1013C80090304FF0B04243F00103C2F890300AE089
:1013D800FFF756F802467B69D31A41F288329342E6
:1013E80001D9032338E1FFF7AEFB0346002BEFD00A
:1013F8007B68DB68812B03D07B68DB68852B21D178
:10140800FFF73EF878614FF0B043D3F890304FF0D3
:10141800B04243F08003C2F890300AE0FFF730F89A
:1014280002467B69D31A41F28832934201D90323D9
:1014380012E14FF0B043D3F8903003F40063002B6F
:10144800ECD060E0FFF71CF878614FF0B043D3F8B8
:1014580090304FF0B04223F08003C2F890300AE099
:10146800FFF70EF802467B69D31A41F2883293429D
:1014780001D90323F0E04FF0B043D3F8903003F4E0
:101488000063002BECD13EE0FEF7FAFF78614FF0E5
:10149800B043D3F890304FF0B04223F08003C2F845
:1014A80090300AE0FEF7ECFF02467B69D31A41F25E
:1014B8008832934201D90323CEE04FF0B043D3F8EA
:1014C800903003F40063002BECD1FEF7D9FF78616C
:1014D8004FF0B043D3F890304FF0B04223F00103FF
:1014E800C2F890300AE0FEF7CBFF02467B69D31AB8
:1014F80041F28832934201D90323ADE0FFF723FB81
:101508000346002BEFD17B68DB6A002B00F0A38039
:10151800FB690C2B76D07B68DB6A022B4BD1FFF77B
:1015280063FCFEF7ADFF786108E0FEF7A9FF02460D
:101538007B69D31A0A2B01D903238DE0FFF762FCDC
:101548000346002BF1D14FF0B043DA68444B134007
:101558007A68116B7A68526B11437A68926B12023F
:1015680011437A68D26B11437A68126C11437A6816
:10157800526C0A434FF0B0411343CB60FFF726FC8F
:101588004FF0B043DB684FF0B04243F08053D36074
:10159800FEF776FF786108E0FEF772FF02467B6986
:1015A800D31A0A2B01D9032356E0FFF72BFC034675
:1015B800002BF1D04FE0FFF717FC4FF0B043DB688A
:1015C8004FF0B04223F00303D3604FF0B043DB6821
:1015D8004FF0B04223F0885323F48033D360FEF7F2
:1015E8004FFF786108E0FEF74BFF02467B69D31A8C
:1015F8000A2B01D903232FE0FFF704FC0346002B35
:10160800F1D128E07B68DB6A012B01D1012323E0BB
:101618004FF0B043DB68BB61BB6903F003027B6832
:101628001B6B9A4215D1BB6903F070027B685B6B38
:101638009A420ED1BB6903F4FE427B689B6B1B0286
:101648009A4206D1BB6903F060427B685B6C9A42A0
:1016580001D0012300E0002318462037BD4680BD95
:101668008C80C11180B584B000AF786039607B6828
:10167800002B01D101232CE1984B1B6803F00703D1
:101688003A689A421BD9954B1B6823F00702934985
:101698003B6813430B60FEF7F3FEF86008E0FEF7C3
:1016A800EFFE0246FB68D31A022B01D9032310E18F
:1016B8008A4B1B6803F007033A689A42EFD17B68AC
:1016C8001B6803F00203002B16D07B689B68184642
:1016D800FFF700FBFEF7D4FEF86008E0FEF7D0FE47
:1016E8000246FB68D31A022B01D90323F1E0FFF766
:1016F800C7FB0346002BF1D07B681B6803F020036F
:10170800002B16D07B685B691846FFF7F6FAFEF7E0
:10171800B7FEF86008E0FEF7B3FE0246FB68D31A8E
:10172800022B01D90323D4E0FFF7BBFB0346002BB0
:10173800F1D07B681B6803F04003002B16D07B6850
:101748009B691846FFF7EEFAFEF79AFEF86008E084
:10175800FEF796FE0246FB68D31A022B01D9032333
:10176800B7E0FFF7B0FB0346002BF1D07B681B689E
:1017780003F00403002B16D07B68DB681846FFF7DC
:10178800E7FAFEF77DFEF86008E0FEF779FE02460C
:10179800FB68D31A022B01D903239AE0FFF7A5FBB4
:1017A8000346002BF1D07B681B6803F00803002B6D
:1017B80017D07B681B69DB001846FFF7DCFAFEF7D9
:1017C8005FFEF86008E0FEF75BFE0246FB68D31A8E
:1017D800022B01D903237CE0FFF798FB0346002B7B
:1017E800F1D07B681B6803F00103002B43D07B68B2
:1017F8005B68022B06D1FFF754F90346002B1ED174
:10180800012366E07B685B68032B06D1FFF7FAFAD1
:101818000346002B13D101235BE07B685B68002B38
:1018280006D1FFF7EEF90346002B08D1012350E05B
:10183800FFF764F90346002B01D1012349E07B68D7
:101848005B681846FFF728FAFEF71AFEF8600AE008
:10185800FEF716FE0246FB68D31A41F2883293421D
:1018680001D9032335E0FFF72AFA02467B685B6853
:101878009B009A42ECD1194B1B6803F007033A68A6
:101888009A421BD2154B1B6823F0070213493B6889
:1018980013430B60FEF7F4FDF86008E0FEF7F0FD77
:1018A8000246FB68D31A022B01D9032311E00B4B24
:1018B8001B6803F007033A689A42EFD100F0B4F8C6
:1018C8000246074B1A60074B1B681846FEF78CFD4B
:1018D800034618461037BD4680BD00BF004000587B
:1018E800000000200400002090B587B000AF00235E
:1018F8007B6100233B61FFF7E2F9B860FFF7B5FAB7
:101908007860BB68002B05D0BB680C2B39D17B688D
:10191800012B36D1FFF785F90346002B15D1FFF7C8
:1019280080F90346012B06D1FFF78BF903461B0A02
:1019380003F00F0305E0FFF78FF903461B0A03F0D6
:101948000F03364A52F8233014E0FFF76AF90346CA
:10195800012B06D1FFF775F903461B0903F00F03A6
:1019680005E0FFF779F903461B0903F00F032B4A3B
:1019780052F823303B61BB68002B15D13B697B6172
:1019880012E0BB68042B02D1254B7B610CE0BB68DD
:10199800082B09D1FFF758F80346012B02D1204B39
:1019A8007B6101E01F4B7B61FFF789F903460C2B34
:1019B8002ED1FFF75AFA78607B68022B02D0032BEE
:1019C80003D00DE0164BFB600DE0FFF73DF8034632
:1019D800012B02D1124BFB6005E0124BFB6002E0C9
:1019E8003B69FB6000BFFFF71EFA0246FB6803FB7A
:1019F80002F4FFF72FFA03461B090133B4FBF3F493
:101A0800FFF71DFA03465B0F0133B4FBF3F37B6169
:101A18007B6918461C37BD4690BD00BF901C000866
:101A28000024F4000048E80198B500AFFFF75CFF18
:101A38000446FFF7B3F903461B0903F00F03034AF3
:101A480052F82330B4FBF3F3184698BD501C000835
:101A580090B585B000AF78607B681B0903F00F0371
:101A6800104A52F82330FB60FFF7A3F903461B091D
:101A780003F00F030C4A52F82330FA68B2FBF3F371
:101A8800BB60BB68094AA2FB03239C0CFEF7A2FFBC
:101A980003461946204600F00BF80346184614374B
:101AA800BD4690BD901C0008501C000883DE1B43F7
:101AB80080B58EB000AF786039603C4A07F12003EA
:101AC80092E80300186004331980394A07F11803B3
:101AD80092E80300186004331980364A07F10C03B2
:101AE80007CA83E8070000237B633B68B3F5007FE0
:101AF8001DD100233B6316E03B6B5B0007F1380206
:101B0800134433F8183C1A467B68934208D83B6B59
:101B18009B0007F13802134453F82C3C7B6323E005
:101B28003B6B01333B633B6B022BE5D91CE0002385
:101B3800FB6216E0FB6A5B0007F13802134433F8D6
:101B4800203C1A467B68934208D8FB6A9B0007F141
:101B58003802134453F82C3C7B6305E0FB6A0133DD
:101B6800FB62FB6A022BE5D9134B1B6823F00702C3
:101B780011497B6B13430B60FEF782FCB86208E0E7
:101B8800FEF77EFC0246BB6AD31A022B01D9032357
:101B980007E0094B1B6803F007037A6B9A42EFD101
:101BA800002318463837BD4680BD00BF341C0008E6
:101BB8003C1C0008441C00080040005870B50D4E3D
:101BC8000D4CA41BA4100025A54209D10B4E0C4CAA
:101BD80000F020F8A41BA4100025A54205D170BD73
:101BE80056F8253098470135EEE756F825309847DE
:101BF8000135F2E7D01C0008D01C0008D01C0008F2
:101C0800D41C000802440346934200D1704703F8ED
:101C1800011BF9E7F8B500BFF8BC08BC9E46704741
:0C1C2800F8B500BFF8BC08BC9E46704731
:101C3400120024003000000006000C001000000018
:101C4400000000000100000002000000010000008C
:101C54000300000005000000010000000100000076
:101C6400060000000A00000020000000020000003E
:101C74000400000008000000100000004000000004
:101C8400800000000001000000020000A0860100A6
:101C9400400D0300801A060000350C0040420F007E
:101CA40080841E0000093D0000127A000024F40024
:101CB40000366E010048E801006CDC020000000000
:0C1CC40000000000000000000000000014
:041CD0005D010008AA
:041CD40039010008CA
:0C1CD80000093D001000000001000000A9
:040000050800035D8F
:00000001FF
