:020000040800F2
:1000000000800020C91C0008331000083F100008C1
:10001000451000084B1000085110000800000000B7
:100020000000000000000000000000005710000861
:1000300063100008000000006F1000087B1000082B
:10004000191D0008191D000889100008191D000855
:10005000191D0008191D0008191D0008191D0008A8
:10006000191D0008191D0008191D0008191D000898
:10007000191D0008191D0008191D00089D10000811
:10008000191D0008191D0008191D0008191D000878
:10009000191D0008191D0008191D0008191D000868
:1000A000191D0008191D0008191D0008191D000858
:1000B000191D0008191D0008191D0008191D000848
:1000C000191D0008191D0008191D0008191D000838
:1000D000191D0008B1100008191D0008191D00089D
:1000E000191D0008191D0008C5100008191D000879
:1000F000191D0008191D0008191D0008191D000808
:10010000191D0008191D0008D9100008191D000844
:10011000191D0008191D0008191D0008191D0008E7
:10012000191D0008191D0008191D0008191D0008D7
:08013000191D0008191D00084B
:1001380010B5054C237833B9044B13B10448AFF319
:1001480000800123237010BD9800002000000000EB
:1001580090B3000808B5034B1BB103490348AFF33C
:10016800008008BD000000009C00002090B300083B
:10017800034613F8012B002AFBD1181A01387047DF
:1001880053B94AB9002908BF00281CBF4FF0FF31F6
:100198004FF0FF3000F072B9ADF1080C6DE904CEF4
:1001A80000F006F8DDF804E0DDE9022304B070474A
:1001B8002DE9F047089E04468846002B4BD18A4219
:1001C800154667D9B2FA82F24AB1C2F1200701FA9C
:1001D80002F320FA07F7954047EA030894404FEAEC
:1001E800154E230CB8FBFEF71FFA85FC0EFB17888B
:1001F80043EA084307FB0CF1994209D9EB1807F1C8
:10020800FF3080F01B81994240F21881023F2B4455
:100218005B1AA4B2B3FBFEF00EFB103344EA0344AE
:1002280000FB0CFCA44509D92C1900F1FF3380F020
:100238000781A44540F2048102382C4440EA074073
:10024800A4EB0C0400271EB1D4400023C6E90043E8
:100258003946BDE8F0878B4209D9002E00F0EB80C3
:100268000027C6E9000138463946BDE8F087B3FAE9
:1002780083F7002F47D18B4202D3824200F2FA80E3
:10028800841A61EB030301209846002EE0D0C6E9EA
:100298000048DDE702B9FFDEB2FA82F2002A40F038
:1002A8008F80491B4FEA154E1FFA85F80127B1FBCD
:1002B800FEFC230C0EFB1C1143EA014308FB0CF166
:1002C800994207D9EB180CF1FF3002D2994200F29B
:1002D800CD808446591AA3B2B1FBFEF00EFB101470
:1002E80043EA044408FB00F8A04507D92C1900F19B
:1002F800FF3302D2A04500F2B6801846A4EB0804EA
:1003080040EA0C409FE7C7F1200CBB4022FA0CFEE4
:100318004EEA030E01FA07F420FA0CF521FA0CF361
:100328004FEA1E482543B3FBF8F92C0C08FB193398
:100338001FFA8EFA44EA034309FB0AF49C4202FAC4
:1003480007F200FA07F10BD91EEB030309F1FF309E
:1003580080F087809C4240F28480A9F102097344AE
:100368001B1BADB2B3FBF8F008FB103345EA03449E
:1003780000FB0AFAA24508D91EEB040400F1FF337A
:100388006BD2A24569D90238744440EA0940A0FBFF
:100398000289A4EB0A044C45C2464B4654D351D0BB
:1003A800002E69D0B1EB0A0564EB030404FA0CFCD7
:1003B800FD40FC404CEA0505C6E90054002747E724
:1003C800C2F1200320FA03F7954001FA02F021FA5E
:1003D80003F34FEA154E3843010CB3FBFEF71FFA3F
:1003E80085F80EFB173341EA034107FB08F38B42FC
:1003F80004FA02F407D9691807F1FF3C2FD28B429F
:100408002DD9023F2944CB1A81B2B3FBFEF00EFB73
:10041800103341EA034100FB08F38B4207D96918FE
:1004280000F1FF3C17D28B4215D902382944C91A6A
:1004380040EA07473BE73746304609E70746E7E61D
:100448001846FBE64145ABD2B8EB020A69EB0E024F
:1004580001381346A4E76046E9E7184695E767467A
:10046800D1E781467CE702382C4447E7ACF1020C1F
:100478002B442FE7384608E73746E9E6704700BFC0
:1004880080B500AF00F0A8FE00F01EF800BF80BDE8
:1004980080B500AF4FF0FF3009F094FF00BF80BD7A
:1004A80080B400AFBFF34F8F054BDB6803F4E06205
:1004B8000349044B1343CB60BFF34F8F00BFFDE7E5
:1004C80000ED00E00400FA0590B58BB00AAF0023F8
:1004D8000093634B00224FF0FF3162480AF062F943
:1004E800642160480AF070FA002300935E4B0022F2
:1004F8004FF0FF315D480AF055F94FF4FA715B4847
:100508000AF062FA00230093594B00224FF0FF31A2
:1005180058480AF047F9642156480AF055FA00236A
:100528000093554B01224FF0FF3154480AF03AF935
:100538004FF47A7151480AF047FA50480AF068F9BE
:1005480000F044FB4E4B4F4A1A604D4B4E4A9A609E
:100558004B4B4E4A5A604A4B4D4ADA60484B4D4A1B
:100568001A614D4B1B68464898474B4B5B69984747
:10057800034618460AF03CFE474BDC6940F6B833A0
:100588000893002307930023069300230593012370
:100598000493002303930823029301230193072361
:1005A8000093002300220A210120A0473A4B9C69AE
:1005B800012309930023089300230793002306933C
:1005C8000123059300230493002303930523029337
:1005D800082301930023009301230722002101200F
:1005E800A0472D4B5B6D4021012098472A4BDB68C3
:1005F8002A489847022000F00FFB012000F00CFB6E
:10060800002000F009FB244B5B6B4FF4FA6098471D
:10061800234A0021012009F0B5FF224B00220021C6
:10062800012009F0ADFB072301931C4B00931E4BDF
:1006380000220021012009F0A3FB6FF04F03009373
:100648001A4B00220021012009F09AFB184B0022C6
:100658000021012009F094FB00BF0437BD4690BD7E
:10066800310B0008F80000205D0B0008280100206D
:10067800470B000810010020750B000840010020FE
:1006880058010020590A0008750A0008DD0A000808
:10069800F90A0008150B0008A8B6000800A1BC3329
:1006A800BD060008A8B30008C4B30008D8B3000802
:1006B800E4B3000890B587B002AF01237B73B04B59
:1006C8001B78062B00F2B38101A252F823F000BF79
:1006D8001507000815080008250800084D08000837
:1006E800F3090008F50600080F0A0008A54BDB68A7
:1006F800A5489847A34B5B6B4FF4FA609847A34B08
:1007080000220021012009F03BFB91E1A04B3C2293
:100718001A60A0480AF07CF8012000F0B7FA9E4B56
:100728001B781F2B37D89C4B1B7800939B4B0022C0
:100738000021012009F024FB974B5B785BB21A4635
:10074800954B9B7801930092954B00220021012044
:1007580009F016FB904BDB789BB21B029BB21A4642
:100768008D4B1B7913448C4A527992B2120292B281
:100778001146894A92790A4401920093894B0022D2
:100788000021012009F0FCFA874B002200210120FA
:1007980009F0F6FA32E0854B00220021012009F029
:1007A800EFFA0023FB811DE0B7F90E307A4AD35CDB
:1007B8001F2B0BD9B7F90E30774AD35C00937C4BCB
:1007C80000220021012009F0DBFA05E0794B002224
:1007D8000021012009F0D4FAB7F90E309BB2013399
:1007E8009BB2FB81B7F90E30734A12889342DBDB68
:1007F800724B00220021012009F0C2FA604B03224B
:100808001A700021012009F0DDFE11E15C4B052280
:100818001A700021012009F0D5FE09E1684809F0A5
:10082800F7FF002000F032FA664B01220021012078
:1008380009F0A6FA524B05221A700021012009F08E
:10084800C1FEF5E00023FB81B7F90E2093B2013316
:100858009BB2FB81504B41219954B7F90E2093B2BA
:1008680001339BB2FB814C4B43219954B7F90E20BD
:1008780093B201339BB2FB81474B4B219954FA89C0
:100888004D4B1A803F4BDB683F4898473D4B5B6BAD
:10089800002098473B4BDB6D98470346184600F00D
:1008A80064FD0023FB814CE001237B730AF034F9DB
:1008B800B8600DE0334B1B6C012098470346FB8062
:1008C800B7F9063013F14F0F02DB00237B7305E005
:1008D800B8680AF033F90346092BEBD9B8680AF06F
:1008E8002DF9B8607B7B002B30D1B7F90E30032B84
:1008F80021DC0AF0A1FC03461C46B7F90E3001338F
:100908001946022000F048F90346B4FBF3F203FB52
:1009180002F3E31A5A1C13469B0013449B003B60E6
:100928003B680093284B01220021012009F028FA96
:10093800386800F01AFDB7F90E309BB201339BB24C
:10094800FB81B7F90E30042BAEDD00E000BF7B7BE6
:10095800002B3BD00B4BDB680B489847094BDB6DF2
:10096800984703463233184600F0FFFC054B9B6A54
:10097800114A1288D2B211460748984758E000BF7A
:1009880002000020A8B6000800A1BC33E8B30008A4
:100998000400002010010020B4000020F4B3000877
:1009A80008B4000824B40008E4B3000844B40008FC
:1009B80050B4000854B400080000002058B40008DF
:1009C8002801002060B4000870B400081A4809F033
:1009D8001FFF002000F05AF9184B0093184B012212
:1009E8000021012009F0CCF922E0164809F010FF97
:1009F800022000F04BF9144B05221A700021012047
:100A080009F0E0FD14E00C4809F002FF002000F0B6
:100A18003DF90E4B01220021012009F0B1F90A4BE2
:100A280005221A700021012009F0CCFD00E000BF6A
:100A380000BF1437BD4690BD2801002000A1BC337B
:100A4800A4B40008F800002002000020C4B4000884
:100A580080B500AF044B04221A700021012009F070
:100A6800B1FD00BF80BD00BF0200002080B584B08A
:100A780000AFF860084611461A4603467B810B46CC
:100A88003B811346FB710E4A7B8913800C4B1B88F4
:100A98001A46F9680B480AF097FB3B895AB20A4B89
:100AA8001A700A4AFB791370094B00221A70002148
:100AB800012009F087FD00BF1037BD4680BD00BF8B
:100AC80000000020B4000020F4000020F500002001
:100AD8000200002080B500AF044B06221A700021E6
:100AE800012009F06FFD00BF80BD00BF020000209B
:100AF80080B500AF044B01221A700021012009F0D3
:100B080061FD00BF80BD00BF0200002080B500AFBE
:100B1800044B02221A700021012009F053FD00BF86
:100B280080BD00BF0200002080B582B000AF7860B1
:100B3800022000F0C5F800BF0837BD4680BD80B56B
:100B480082B000AF7860012000F0BAF800BF083723
:100B5800BD4680BD80B582B000AF7860002000F04F
:100B6800AFF800BF0837BD4680BD000080B582B031
:100B780000AF7860074B1B68002B05D0054B1B683E
:100B8800013B044A136001E0FFF78AFC0837BD46C1
:100B980080BD00BF0400002080B485B000AF78603D
:100BA80039600123FB6007E0FB687A6802FB03F306
:100BB800FB603B68013B3B603B68002BF4D1FB6862
:100BC80018461437BD4680BC7047000080B400AF9B
:100BD800034B044A1A6000BFBD4680BC704700BF83
:100BE800680600200024014080B485B000AF78601A
:100BF8004FF0B043DA6C4FF0B0417B681343CB64DD
:100C08004FF0B043DA6C7B681340FB60FB6800BFB1
:100C18001437BD4680BC704780B588B000AF034626
:100C2800FB7107F10C0300221A605A609A60DA60BF
:100C38001A610220FFF7D8FFFB79124A32F8133005
:100C4800FB6001233B6100237B610223BB61FB79CD
:100C58000D4A52F8233007F10C021146184601F0EC
:100C6800DDFEFB79084A52F82300FB79054A32F881
:100C780013300022194602F0FBF8002318462037EB
:100C8800BD4680BD80B500080800002080B582B050
:100C980000AF0346FB71FB79074A52F82300FB7942
:100CA800064A32F813300122194602F0E1F800230F
:100CB80018460837BD4680BD0800002080B50008EA
:100CC80080B582B000AF0346FB71FB79074A52F842
:100CD8002300FB79064A32F813300022194602F045
:100CE800C7F8002318460837BD4680BD0800002015
:100CF80080B5000880B485B000AF78604FF0B0438D
:100D08009A6C4FF0B0417B6813438B644FF0B0434B
:100D18009A6C7B681340FB60FB6800BF1437BD46C4
:100D280080BC704780B500AF0420FFF7E3FF0120C7
:100D3800FFF7E0FF002202210F2001F020FA0F2028
:100D480001F037FA00BF80BD80B483B000AF78608F
:100D58004FF0B043D3F8903023F018024FF0B04171
:100D68007B681343C1F8903000BF0C37BD4680BC88
:100D7800704780B500AF01F0CBF800F005F8FFF739
:100D88007FFBFFF785FBFCE780B59AB000AF07F162
:100D980020034822002118460AF021FA3B1D0022B0
:100DA8001A605A609A60DA601A615A619A61002082
:100DB800FFF7CAFF1E4B1B6823F4C0631C4A43F4A9
:100DC800007313601A4B1B6803F4C0633B603B68F5
:100DD80024233B628123FB6201233B6400237B6461
:100DE800B023BB640023FB6407F12003184602F01C
:100DF800CBFB0346002B01D000F01CF84F237B608F
:100E08000023BB600023FB6000233B6100237B6160
:100E18000023FB613B1D0221184602F04FFF0346E9
:100E2800002B01D000F006F800BF6837BD4680BD32
:100E38000004005880B400AFFEE780B400AF4FF064
:100E4800B043D3F890304FF0B04243F40043C2F8B7
:100E5800903000BFBD4680BC704780B485B000AFFD
:100E680078604FF0B0439A6D4FF0B0417B68134300
:100E78008B654FF0B0439A6D7B681340FB60FB684D
:100E880000BF1437BD4680BC7047000080B58CB0E9
:100E980000AF3B1D2C22002118460AF0A0F9224B76
:100EA800224A1A60204B1F229A601F4B00221A61A7
:100EB8001D4B00225A611C4B00229A611A4B4FF0BD
:100EC8008042DA61184B00221A62174B4FF4807285
:100ED8005A62154803F0D0FB0346002B01D0FFF7F8
:100EE800A9FF114803F0AAFE0346002B01D0FFF723
:100EF800A1FF00233B620023BB600023BB614FF0CE
:100F08000053FB614FF48073FB623B1D01221946BD
:100F1800054803F02BFC0346002B01D0FFF78AFF9E
:100F280000BF3037BD4680BDCC06002000280040F9
:100F380080B590B000AF786007F10803382200212F
:100F480018460AF04CF97B681B68164A934225D16B
:100F58004FF48033BB604FF48073FB6307F10803E1
:100F6800184603F06FFA0346002B01D0FFF762FF23
:100F7800FFF763FF4FF48060FFF76FFF0022002147
:100F8800022001F0FCF8022001F013F900220021F0
:100F98002A2001F0F4F82A2001F00BF900BF4037AD
:100FA800BD4680BD0028004080B400AF034B01223D
:100FB800C3F8882000BFBD4680BC704700040058B5
:100FC80080B400AF00BFBD4680BC704780B400AF9E
:100FD80000BFBD4680BC704780B500AF00F0CAFFB7
:100FE800FFF7E2FF012001F0EDFF00BF80BD80B5F3
:100FF80000AF00F0CDFF00F01DFE00BF80BD80B542
:1010080000AF00F0B7FF0121002001F057FF00BF3B
:1010180080BD80B500AF00F0BBFF00BF80BD80B4CD
:1010280000AF00BFBD4680BC704780B400AF00BFB2
:10103800BD4680BC704780B400AFFEE780B400AF07
:10104800FEE780B400AFFEE780B400AFFEE780B4EF
:1010580000AF00BFBD4680BC704780B400AF00BF82
:10106800BD4680BC704780B400AF00BFBD4680BCA1
:10107800704780B500AF00F06BFF00BF80BD000077
:1010880080B500AF024803F015FE00BF80BD00BF69
:10109800CC06002080B500AF024801F021FB00BF5C
:1010A80080BD00BF1007002080B500AF024804F0E3
:1010B8001BFC00BF80BD00BF7007002080B500AFDB
:1010C800024803F0A7FC00BF80BD00BFCC0600208B
:1010D80080B500AF024804F055F900BF80BD00BFDD
:1010E8000407002080B485B000AF78604FF0B043AB
:1010F8005A6E4FF0B0417B6813434B664FF0B043D4
:101108005A6E7B681340FB60FB6800BF1437BD460E
:1011180080BC704780B500AF064B08221A600548AE
:1011280003F0B4FE0346002B01D0FFF783FE00BF97
:1011380080BD00BF0407002080B582B000AF786092
:101148000120FFF7CFFF00220021322001F017F81D
:10115800322001F02EF800BF0837BD4680BD80B4AC
:1011680083B000AF78604FF0B0439B6823F400422F
:101178004FF0B0417B6813438B6000BF0C37BD460E
:1011880080BC704780B485B000AF78604FF0B04342
:10119800DA6C4FF0B0417B681343CB644FF0B04337
:1011A800DA6C7B681340FB60FB6800BF1437BD46F0
:1011B80080BC704780B483B000AF78604FF0B04314
:1011C800DA6C7B68DB434FF0B0411340CB6400BF5F
:1011D8000C37BD4680BC704780B500AF0020FFF7D4
:1011E800BEFF09F0CFFA00F03DF800F0E2F808F091
:1011F800ABFD084808F046FE022008F051FEFFF754
:10120800E5FC09F025F80121012009F05FF800BF8D
:1012180080BD00BF2D12000880B500AF09F084F82A
:1012280000BF80BD80B586B002AF7860396007F135
:101238000803184609F06EFABB68B7F90C2000924B
:10124800074A1021786800F069F87868FEF790FF7F
:1012580003469AB23B681A8000BF1037BD4680BD6E
:10126800E0B4000880B586B000AF3B1D00221A60CC
:101278005A609A60DA601A610120FFF783FF022042
:10128800FFF780FF0420FFF77DFF8020FFF77AFF3C
:101298000323BB600023FB6049F6FF737B603B1DA3
:1012A80019464FF0904001F0B9FB4FF6FF737B6091
:1012B8003B1D19460E4801F0B1FB3B1D19460D4870
:1012C80001F0ACFB3B1D19460B4801F0A7FB0120C0
:1012D800FFF770FF0220FFF76DFF0420FFF76AFF9A
:1012E8008020FFF767FF00BF1837BD4680BD00BFED
:1012F8000004004800080048001C004880B500AF02
:101308000121022008F0B4FF00BF80BD80B500AF06
:101318000021022008F0ACFF00BF80BD0CB480B5EE
:1013280084B000AF7860396007F11C03FB6039684E
:10133800FB68BA69786809F0C7FD00BF1037BD4679
:10134800BDE8804002B0704780B483B000AF7860D9
:10135800002318460C37BD4680BC704780B500AFE7
:1013680000F036F90346184680BD80B582B000AF5C
:1013780078607B68184600F096F900BF0837BD46CC
:1013880080BD80B485B000AF78604FF0B043DA6CB0
:101398004FF0B0417B681343CB644FF0B043DA6C35
:1013A8007B681340FB60FB6800BF1437BD4680BCF8
:1013B800704780B586B000AF3B1D00221A605A60A6
:1013C8009A60DA601A610323BB600023FB604FF464
:1013D800C0437B600120FFF7D4FF3B1D19464FF047
:1013E800904001F01BFB00F0E1FD00F0E5FD00F08E
:1013F800E9FD00BF1837BD4680BD000080B586B046
:1014080000AF7860144A154BD31A7B617B693B6146
:10141800134B1B68002B02D1114B124A1A60104B58
:101428001A687B6813443A699A4207D209F0A2FE07
:1014380002460C2313604FF0FF3309E0084B1B688A
:10144800FB60074B1A687B681344054A1360FB6806
:1014580018461837BD4680BD0080002000080000EF
:10146800740100209808002080B483B000AF786031
:101478007B689B6818460C37BD4680BC70470000E7
:1014880080B582B000AF0023FB71144B1B7883F04A
:101498000103DBB2002B1BD0114B4FF0FF321A6354
:1014A800FFF7F4FC00F056F84FF480710C4803F095
:1014B8005BFA0B4B4FF0FF321A63094803F08CFBC1
:1014C800002000F0A3F900F05FF8044B01221A7025
:1014D800FB7918460837BD4680BD00BF780100205B
:1014E800CC06002080B58EB000AF7860002387F866
:1014F800373007F108032C220021184609F06FFE47
:1015080000F028F8114B1B687A6813447B600023AD
:101518007B627B68DB43FB600023FB614FF0005379
:101528003B624FF480733B6307F1080301221946BD
:10153800074803F01BF90346002B01D0FFF77AFC9C
:1015480097F8373018463837BD4680BD7C010020F3
:10155800CC06002080B582B000AF0023FB71084B99
:101568000122DA654FF48071064803F0FDF9054B56
:101578004FF0FF321A63FB7918460837BD4680BD25
:1015880000280040CC06002080B500AF00F05EF9CE
:101598000246034B1A60024B1B68184680BD00BF09
:1015A8007C01002080B400AF024B1B681846BD4682
:1015B80080BC70477C01002080B500AF00F046F980
:1015C8000246024B1B68D31A184680BD7C010020D6
:1015D80080B500AF054B1B78002B03D000F036F91F
:1015E800034600E00023184680BD00BF78010020B4
:1015F80080B400AF03231846BD4680BC7047F0B5E1
:1016080083B000AF78607B684FF000049E0D9D02A8
:101618004FF47A724FF0000328463146FEF7B0FDCA
:1016280003460C4618460C37BD46F0BDF0B482B0F0
:1016380000AF78607B681D464FF000062B463446A5
:101648004FF000014FF00002620142EAD3625901F3
:101658000B4614465B1B64EB06044FF000014FF089
:101668000002A20042EA937299000B4614465B19E5
:1016780044EB06044FF000014FF00002E20042EA9A
:101688005372D9000B461446194622464FF0000300
:101698004FF000048B0A43EA8253940A184608372D
:1016A800BD46F0BC704780B584B000AF78607868FC
:1016B800FFF7A5FFF86000F0C9F8B86000E000BFC8
:1016C80000F0C4F80246BB68D31AFA689A42F6D802
:1016D80000BF1037BD4680BD80B582B000AF7860CE
:1016E80009F09CF900BF0837BD4680BD80B584B0BD
:1016F80000AF786000F09AF8F860FB68013318468C
:1017080000F084F800BF1037BD4680BD2DE9904831
:1017180088B000AF786000F099F8F86100F086F8BA
:10172800B861BB6919464FF000024FF0000B4FF04B
:10173800000C8C464FF0000BFA6911464FF000027E
:101748001BEB01034CEB0204C7E90434D7E904128C
:101758004FF000034FF000048B0A43EA8253940AC7
:10176800FB603B699B464FF0000C40F2FF314FF0A5
:1017780000020BEA01030CEA0204C7E904343B69DE
:101788001846FFF753FF03469AB27B681A80FB6836
:1017980018462037BD46BDE89088000080B582B065
:1017A80000AF78607A680021034803F0A7FA00BF09
:1017B8000837BD4680BD00BFCC06002080B582B08A
:1017C80000AF78607A680121034803F097FA00BFF8
:1017D8000837BD4680BD00BFCC06002080B500AFED
:1017E8000021034803F0A2FA0346184680BD00BF53
:1017F800CC06002080B500AF0121034803F096FA1B
:101808000346184680BD00BFCC06002080B582B0D4
:1018180000AF78607A680221034803F06FFA00BFCE
:101828000837BD4680BD00BFCC06002080B582B019
:1018380000AF0221044803F079FA78607B68184603
:101848000837BD4680BD00BFCC06002080B500AF7C
:101858000348FFF709FE0346DB43184680BD00BF77
:101868000028004080B485B000AF78604FF0B043E6
:10187800DA6C4FF0B0417B681343CB644FF0B04350
:10188800DA6C7B681340FB60FB6800BF1437BD4609
:1018980080BC704780B485B000AF78604FF0B0432B
:1018A8009A6D4FF0B0417B6813438B654FF0B0439E
:1018B8009A6D7B681340FB60FB6800BF1437BD4618
:1018C80080BC704780B483B000AF78604FF0B043FD
:1018D8009A6D7B68DB434FF0B04113408B6500BFC6
:1018E8000C37BD4680BC704780B500AF224B234AF9
:1018F8001A60214B4FF4E1325A601F4B00229A6064
:101908001D4B0022DA601C4B00221A611A4B0C2274
:101918005A61194B00229A61174B0022DA61164B63
:1019280000221A62144B00225A62134B00229A6258
:10193800114803F0DAFE0346002B01D0FFF77AFACC
:1019480000210D4805F040FB0346002B01D0FFF7AE
:1019580071FA0021084805F075FB0346002B01D0F9
:10196800FFF768FA044805F0F4FA0346002B01D0A3
:10197800FFF760FA00BF80BD7007002000440040F8
:1019880080B596B000AF786007F1440300221A6072
:101998005A609A60DA601A6107F10C033822002154
:1019A800184609F01CFC7B681B68334A93425FD1D8
:1019B8000223FB60314B7B6107F10C03184602F0F0
:1019C80041FD0346002B01D0FFF734FA4FF40030F5
:1019D800FFF760FF0120FFF745FF0C237B6402231C
:1019E800BB640023FB6403233B6507237B6507F186
:1019F800440319464FF0904001F010F8204B214A5B
:101A08001A601F4B14225A601D4B10229A601C4BFF
:101A18000022DA601A4B80221A61194B00225A619F
:101A2800174B00229A61164B0022DA61144B0022F0
:101A38001A62134800F0DAFB0346002B01D0FFF7C7
:101A4800F9F910210E4800F011FF0346002B01D0D0
:101A5800FFF7F0F97B680A4A9A67094A7B6893623C
:101A680000220221252000F08AFB252000F0A1FB9E
:101A780000BF5837BD4680BD0044004004000C003C
:101A8800100700205800024080B582B000AF78608F
:101A98007B681B680B4A934210D14FF40030FFF764
:101AA80011FF0C214FF0904001F016F97B689B6FF5
:101AB800184600F043FC252000F089FB00BF0837DA
:101AC800BD4680BD0044004080B483B000AF78605C
:101AD8004FF0B0439A6B4FF0B0417B6813438B6370
:101AE80000BF0C37BD4680BC704780B483B000AFE0
:101AF80078604FF0B0439A6B7B68DB434FF0B0419E
:101B080013408B6300BF0C37BD4680BC7047000094
:101B180080B483B000AF7860064BD3F880200549C5
:101B28007B681343C1F8803000BF0C37BD4680BCCA
:101B3800704700BF0008005880B582B000AF7860D9
:101B4800074A7B681360FFF7EDF8FFF7CDFE4FF00B
:101B58000060FFF7DDFF002318460837BD4680BD4B
:101B68008001002080B500AF4FF40030FFF7ACFFD4
:101B78004FF40030FFF7B9FF0448FFF785FF0F2047
:101B880000F025FB0023184680BD00BF7007002029
:101B980080B582B000AF78600B467B807B881A46A0
:101BA8007968044803F020FE002318460837BD462C
:101BB80080BD00BF7007002080B584B000AF78609A
:101BC800194A7B6813604FF40013BB6007F10803E0
:101BD80093E80600154805F040F900BF134B1B6851
:101BE800DB6903F48033B3F5803FF7D000BF0F4BB8
:101BF8001B68DB6903F48003B3F5800FF7D10B4B47
:101C08001B689A68094B1B6842F480029A6007486F
:101C180005F07EF901220649044803F0B6FD0023C9
:101C280018461037BD4680BD84010020700700208B
:101C38000008002080B500AF084803F056FD0346B1
:101C4800002B01D0FFF7F6F8054800F0CFFA03465D
:101C5800002B01D0FFF7EEF800BF80BD7007002011
:101C68001007002080B582B000AF7860034B1B6876
:101C78000020984700BF0837BD4680BD800100207E
:101C880080B582B000AF78600B4B1B68002B0AD080
:101C98007B68D3F88C30002B05D1074B1B680022DA
:101CA80001210648984701220449786803F06DFD30
:101CB80000BF0837BD4680BD840100200008002011
:101CC8000D48854600F0F4F80C480D490D4A0023EC
:101CD80002E0D458C4500433C4188C42F9D30A4AD9
:101CE8000A4C002301E013600432A242FBD309F03E
:101CF80047FAFFF73EF8FEE70080002000000020CA
:101D08009800002000B800089800002098080020DB
:101D1800FEE780B485B000AF78604FF0B043DA6C6E
:101D28004FF0B0417B681343CB644FF0B043DA6C9B
:101D38007B681340FB60FB6800BF1437BD4680BC5E
:101D48007047000080B586B000AF3B1D00221A60C6
:101D58005A609A60DA601A610420FFF7DAFF1023EC
:101D68007B600123BB600023FB6003233B613B1DB9
:101D78001946124800F052FE20237B603B1D19468D
:101D88000E4800F04BFE08237B603B1D19460B48AC
:101D980000F044FE00222021084801F069F80022E2
:101DA8001021064801F064F800220821034801F0D8
:101DB8005FF8002318461837BD4680BD0008004864
:101DC80080B582B000AF0346FB71FB79032B4BD87B
:101DD80001A252F823F000BFF11D0008111E0008EF
:101DE800311E0008511E000800220821214801F078
:101DF8003FF8002210211F4801F03AF80022202164
:101E08001C4801F035F830E001220821194801F09A
:101E18002FF801221021174801F02AF8002220216A
:101E2800144801F025F820E001220821114801F0AA
:101E38001FF8012210210F4801F01AF80122202171
:101E48000C4801F015F810E001220821094801F0BA
:101E58000FF800221021074801F00AF8012220217A
:101E6800044801F005F800E000BF002318460837D1
:101E7800BD4680BD0008004880B400AF0023184666
:101E8800BD4680BC704780B400AF0A231846BD46E3
:101E980080BC704780B400AF01231846BD4680BCA3
:101EA800704780B400AF00231846BD4680BC704719
:101EB80080B400AF00BFBD4680BC704780B400AF9F
:101EC800044B5B68034A23F00103536000BFBD461F
:101ED80080BC7047002004E080B400AF044B5B680E
:101EE800034A23F00203536000BFBD4680BC70471D
:101EF800002004E080B400AF044B5B68034A23F081
:101F08000403536000BFBD4680BC7047002004E056
:101F180080B582B000AF0023FB71032000F024F9E4
:101F280002F0AEF80246094B1A600F20FFF70CFAD0
:101F38000346002B02D00123FB7101E0FFF76FF885
:101F4800FB7918460837BD4680BD00BF1400002045
:101F580080B400AF054B1B781A46054B1B68134429
:101F6800034A136000BFBD4680BC70471C000020B8
:101F78000408002080B400AF044B1B68034A23F018
:101F88000203136000BFBD4680BC704710E000E04C
:101F980080B400AF044B1B68034A43F0020313608C
:101FA80000BFBD4680BC704710E000E080B500AFC0
:101FB800FFF784FF00BF80BD80B500AFFFF78CFF3F
:101FC80000BF80BD80B500AFFFF794FF00BF80BDA4
:101FD80080B485B000AF78607B6803F00703FB60CE
:101FE8000C4BDB68BB60BA684FF6FF031340BB605D
:101FF800FB681A02BB68134343F0BF6343F4003322
:10200800BB60044ABB68D36000BF1437BD4680BCC0
:10201800704700BF00ED00E080B400AF044BDB6800
:102028001B0A03F007031846BD4680BC704700BF73
:1020380000ED00E080B483B000AF0346FB7197F970
:102048000730002B0BDBFB7903F01F02064997F9D9
:1020580007305B09012000FA02F241F8232000BF93
:102068000C37BD4680BC704700E100E080B483B007
:1020780000AF0346FB7197F90730002B10DBFB79A3
:1020880003F01F02094997F907305B09012000FA9C
:1020980002F2203341F82320BFF34F8FBFF36F8F35
:1020A80000BF0C37BD4680BC704700BF00E100E0B0
:1020B80080B483B000AF03463960FB7197F90730ED
:1020C800002B0ADB3B68DAB20C4997F9073012019A
:1020D800D2B20B4483F800230AE03B68DAB208491D
:1020E800FB7903F00F03043B1201D2B20B441A76BA
:1020F80000BF0C37BD4680BC704700BF00E100E060
:1021080000ED00E080B489B000AFF860B9607A6093
:10211800FB6803F00703FB61FB69C3F10703042BAA
:1021280028BF0423BB61FB690433062B02D9FB6972
:10213800033B00E000237B614FF0FF32BB6902FAEA
:1021480003F3DA43BB681A407B699A404FF0FF31CA
:102158007B6901FA03F3D9437B680B4013431846A4
:102168002437BD4680BC704780B582B000AF786028
:102178007868FFF72DFF00BF0837BD4680BD80B5E2
:1021880086B000AF0346B9607A60FB73FFF744FF7F
:1021980078617A68B9687869FFF7B4FF024697F9F9
:1021A8000F3011461846FFF783FF00BF1837BD46AA
:1021B80080BD80B582B000AF0346FB7197F9073048
:1021C8001846FFF737FF00BF0837BD4680BD80B50A
:1021D80082B000AF0346FB7197F907301846FFF746
:1021E80045FF00BF0837BD4680BD000080B582B0FE
:1021F80000AF78607B68002B01D101238EE07B68FB
:102208001B681A46474B9A420FD87B681B681A46C8
:10221800454B1344454AA2FB03231B099A007B68DC
:102228005A647B68424A1A640EE07B681B681A4647
:10223800404B13443D4AA2FB03231B099A007B68C9
:102248005A647B683C4A1A647B68022283F825201A
:102258007B681B681B687A68126823F4FF4323F0C5
:10226800700313607B681B6819687B689A687B68D1
:10227800DB681A437B681B691A437B685B691A43EE
:102288007B689B691A437B68DB691A437B681B6A16
:102298001A437B681B680A431A60786800F052FB8F
:1022A8007B689B68B3F5804F02D17B6800225A6037
:1022B8007B685A687B689B6C02F07F021A607B68B7
:1022C800DB6C7A68126D5A607B685B68002B10D0F3
:1022D8007B685B68042B0CD8786800F07BFB7B6814
:1022E8005B6D00221A607B689B6D7A68D26D5A60BC
:1022F80008E07B6800225A657B6800229A657B6843
:102308000022DA657B680022DA637B68012283F8A1
:1023180025207B68002283F82420002318460837EC
:10232800BD4680BD07040240F8FFFDBFCDCCCCCC34
:1023380000000240F8FBFDBF0004024080B582B0F7
:1023480000AF78607B68002B01D101237BE07B68BC
:102358001B681A687B681B6822F001021A607B6898
:102368001B681A463A4B9A420FD87B681B681A4674
:10237800384B1344384AA2FB03231B099A007B6895
:102388005A647B68354A1A640EE07B681B681A46F3
:10239800334B1344304AA2FB03231B099A007B6882
:1023A8005A647B682F4A1A647B681B6800221A608B
:1023B8007B685B6C03F01C027B681B6C012101FAD3
:1023C80002F25A60786800F0BDFA7B689B6C0022C4
:1023D8001A607B68DB6C7A68126D5A607B685B6890
:1023E800002B0FD07B685B68042B0BD8786800F053
:1023F800F1FA7B685B6D00221A607B689B6D7A68D6
:10240800D26D5A607B6800225A657B6800229A6503
:102418007B680022DA657B680022DA627B6800222A
:102428001A637B6800225A637B6800229A637B6880
:102438000022DA637B68002283F825207B6800226B
:1024480083F82420002318460837BD4680BD00BF06
:1024580007040240F8FFFDBFCDCCCCCC0000024001
:10246800F8FBFDBF0004024080B586B000AFF860FD
:10247800B9607A603B600023FB75FB6893F82430F1
:10248800012B01D1022369E0FB68012283F8242093
:10249800FB6893F82530DBB2012B55D1FB6802228B
:1024A80083F82520FB680022DA63FB681B681A683A
:1024B800FB681B6822F001021A603B687A68B968F9
:1024C800F86800F002FAFB681B6B002B08D0FB6869
:1024D8001B681A68FB681B6842F00E021A600FE05E
:1024E800FB681B681A68FB681B6822F004021A6004
:1024F800FB681B681A68FB681B6842F00A021A60CE
:10250800FB689B6C1B6803F48033002B07D0FB68C7
:102518009B6C1A68FB689B6C42F480721A60FB68BB
:102528005B6D002B07D0FB685B6D1A68FB685B6D01
:1025380042F480721A60FB681B681A68FB681B68A3
:1025480042F001021A6008E0FB688022DA63FB6847
:10255800002283F824200123FB75FB7D18461837D9
:10256800BD4680BD80B483B000AF78607B68002B27
:1025780001D101234FE07B6893F82530DBB2022BB1
:1025880008D07B680422DA637B68002283F8242061
:10259800012340E07B681B681A687B681B6822F08F
:1025A8000E021A607B689B6C1A687B689B6C22F42D
:1025B80080721A607B681B681A687B681B6822F047
:1025C80001021A607B685B6C03F01C027B681B6C61
:1025D800012101FA02F25A607B68DB6C7A68126D9D
:1025E8005A607B685B6D002B0CD07B685B6D1A684A
:1025F8007B685B6D22F480721A607B689B6D7A68D9
:10260800D26D5A607B68012283F825207B680022FE
:1026180083F82420002318460C37BD4680BC704739
:1026280080B584B000AF78600023FB737B6893F8B3
:102638002530DBB2022B05D07B680422DA63012344
:10264800FB7347E07B681B681A687B681B6822F08D
:102658000E021A607B681B681A687B681B6822F088
:1026680001021A607B689B6C1A687B689B6C22F479
:1026780080721A607B685B6C03F01C027B681B6CC1
:10268800012101FA02F25A607B68DB6C7A68126DEC
:102698005A607B685B6D002B0CD07B685B6D1A6899
:1026A8007B685B6D22F480721A607B689B6D7A6828
:1026B800D26D5A607B68012283F825207B6800224E
:1026C80083F824207B689B6B002B03D07B689B6B73
:1026D80078689847FB7B18461037BD4680BD0000D8
:1026E80080B584B000AF78607B681B6C1B68FB60AA
:1026F8007B681B681B68BB607B685B6C03F01C0312
:1027080004229A40FB681340002B27D0BB6803F0D3
:102718000403002B22D07B681B681B6803F020038E
:10272800002B07D17B681B681A687B681B6822F03E
:1027380004021A607B685B6C03F01C027B681B6CEC
:10274800042101FA02F25A607B681B6B002B00F02F
:1027580081807B681B6B786898477BE07B685B6C43
:1027680003F01C0302229A40FB681340002B3DD063
:10277800BB6803F00203002B38D07B681B681B681A
:1027880003F02003002B0BD17B681B681A687B6859
:102798001B6822F00A021A607B68012283F8252050
:1027A8007B681B681A462E4B9A4209D97B685B6C7A
:1027B80003F01C032B4A022101FA03F3536008E0DB
:1027C8007B685B6C03F01C03274A022101FA03F3C0
:1027D80053607B68002283F824207B68DB6A002B27
:1027E80038D07B68DB6A7868984733E07B685B6C35
:1027F80003F01C0308229A40FB681340002B2AD0E0
:10280800BB6803F00803002B25D07B681B681A6897
:102818007B681B6822F00E021A607B685B6C03F011
:102828001C027B681B6C012101FA02F25A607B686A
:102838000122DA637B68012283F825207B68002265
:1028480083F824207B685B6B002B04D07B685B6B70
:102858007868984700BF00BF1037BD4680BD00BFED
:1028680080000240000402400000024080B485B0AD
:1028780000AF786039600023FB727B68002B03D1BE
:102888000123FB72FB7A1BE07B681B681B68FB60FB
:102898003B6803F01003002B0DD03B6803F4801352
:1028A800002B04D0FB6843F48013FB6003E0FB6853
:1028B80023F48013FB607B681B68FA681A60FB7A54
:1028C80018461437BD4680BC704780B485B000AF49
:1028D800F860B9607A603B60FB68DB6CFA68126D7F
:1028E8005A60FB685B6D002B04D0FB689B6DFA682F
:1028F800D26D5A60FB685B6C03F01C02FB681B6CB2
:10290800012101FA02F25A60FB681B683A685A60B2
:10291800FB689B68102B08D1FB681B687A689A6073
:10292800FB681B68BA68DA6007E0FB681B68BA686E
:102938009A60FB681B687A68DA6000BF1437BD4686
:1029480080BC704780B485B000AF78607B681B6836
:102958001A461C4B9A4213D87B685B6C9B089B00F9
:1029680003F1804303F502337A6893647B681B683C
:10297800DBB2083B144AA2FB03231B09FB6011E0EE
:102988007B685B6C9B089A00104B13447A689364CD
:102998007B681B68DBB2083B0B4AA2FB03231B09BD
:1029A8000733FB607B680A4ADA64FB6803F01F039D
:1029B80001229A407B681A6500BF1437BD4680BC67
:1029C800704700BF07040240CDCCCCCC1C080240A5
:1029D8008008024080B485B000AF78607B685B688F
:1029E80003F07F03FB60FA680A4B13449B001A4606
:1029F8007B685A657B68084A9A65FB68013B03F067
:102A0800030301229A407B68DA6500BF1437BD468C
:102A180080BC70473F8200104009024080B487B0F4
:102A280000AF7860396000237B6140E13B681A6839
:102A380001217B6901FA03F31340FB60FB68002B5B
:102A480000F032813B685B68012B0BD03B685B6808
:102A5800022B07D03B685B68112B03D03B685B688F
:102A6800122B30D17B689B683B617B695B0003223A
:102A780002FA03F3DB433A6913403B613B68DA68C7
:102A88007B695B0002FA03F33A6913433B617B6895
:102A98003A699A607B685B683B6101227B6902FA4C
:102AA80003F3DB433A6913403B613B685B681B09EE
:102AB80003F001027B6902FA03F33A6913433B61AD
:102AC8007B683A695A607B68DB683B617B695B00BD
:102AD800032202FA03F3DB433A6913403B613B6884
:102AE8009A687B695B0002FA03F33A6913433B6116
:102AF8007B683A69DA603B685B68022B03D03B6805
:102B08005B68122B23D17B69DA087B68083253F89B
:102B180022303B617B6903F007039B000F2202FA16
:102B280003F3DB433A6913403B613B681A697B69ED
:102B380003F007039B0002FA03F33A6913433B616E
:102B48007B69DA087B680832396943F822107B68A8
:102B58001B683B617B695B00032202FA03F3DB43DA
:102B68003A6913403B613B685B6803F003027B6989
:102B78005B0002FA03F33A6913433B617B683A69E5
:102B88001A603B685B6803F08053002B00F08C8070
:102B98004D4A7B699B08023352F823303B617B69BD
:102BA80003F003039B00072202FA03F3DB433A69AD
:102BB80013403B617B68B3F1904F0DD07B68434A6B
:102BC800934207D07B68424A934201D1022304E032
:102BD800072302E0012300E000237A6902F00302E0
:102BE800920093403A6913433B6137497B699B08DC
:102BF80002333A6941F82320364BD3F880303B61E1
:102C0800FB68DB433A6913403B613B685B6803F44C
:102C18008033002B03D03A69FB6813433B612D4A8C
:102C28003B69C2F880302B4BD3F884303B61FB689A
:102C3800DB433A6913403B613B685B6803F400334C
:102C4800002B03D03A69FB6813433B61214A3B6977
:102C5800C2F884301F4B1B683B61FB68DB433A6951
:102C680013403B613B685B6803F48013002B03D07F
:102C78003A69FB6813433B61164A3B691360154B7D
:102C88005B683B61FB68DB433A6913403B613B6827
:102C98005B6803F40013002B03D03A69FB68134305
:102CA8003B610C4A3B6953607B6901337B613B683C
:102CB8001A687B6922FA03F3002B7FF4B7AE00BFD2
:102CC8001C37BD4680BC7047000001400004004826
:102CD800000800480008005880B487B000AF78604A
:102CE800396000237B61AFE001227B6902FA03F3BC
:102CF8003A6813403B613B69002B00F0A280584AB8
:102D08007B699B08023352F82330FB607B6903F030
:102D180003039B00072202FA03F3FA681340FB60DF
:102D28007B68B3F1904F0DD07B684E4A934207D031
:102D38007B684D4A934201D1022304E0072302E055
:102D4800012300E000237A6902F003029200934015
:102D5800FA689A4236D1454BD3F880203B69DB4369
:102D680042491340C1F88030404BD3F884203B6976
:102D7800DB433E491340C1F884303C4B1A683B6939
:102D8800DB433A4913400B60384B5A683B69DB43D5
:102D9800364913404B607B6903F003039B0007220D
:102DA80002FA03F3FB602E4A7B699B08023352F850
:102DB8002310FB68DA432A487B699B080A400233E0
:102DC80040F823207B681A687B695B00032101FABD
:102DD80003F31A437B681A607B69DA087B68083258
:102DE80053F822107B6903F007039B000F2202FAB5
:102DF80003F3DB437A69D20819407B68083243F849
:102E080022107B689A687B695B00032101FA03F34F
:102E1800DB431A407B689A607B685A6801217B69AA
:102E280001FA03F3DB431A407B685A607B68DA686F
:102E38007B695B00032101FA03F3DB431A407B68DB
:102E4800DA607B6901337B613A687B6922FA03F3B4
:102E5800002B7FF449AF00BF1C37BD4680BC7047CC
:102E6800000001400004004800080048000800581D
:102E780080B483B000AF78600B467B8013467B70CC
:102E88007B78002B03D07A887B689A6102E07A8885
:102E98007B689A6200BF0C37BD4680BC7047000053
:102EA80080B400AF044B1B68034A43F4807313607B
:102EB80000BFBD4680BC70470004005880B582B092
:102EC80000AF78600B46FB707B68002B0CD1134B6E
:102ED8005B6903F40073B3F5007F0DD100F03CF893
:102EE8000346002B08D015E00C4B5B6903F4007314
:102EF800002B01D100F022F8094B1B69084A23F086
:102F080004031361FB78012B01D130BF02E040BFFD
:102F180020BF20BF0837BD4680BD00BF0004005851
:102F280000ED00E080B400AF034B1B6803F4C063FE
:102F38001846BD4680BC70470004005880B400AFF6
:102F4800044B1B68034A43F48043136000BFBD462B
:102F580080BC70470004005880B483B000AF164BA3
:102F68001B68154A23F480431360144B1B683222F4
:102F780002FB03F3124AA2FB03239B0C7B6002E0D3
:102F88007B68013B7B600C4B5B6903F40073B3F512
:102F9800007F02D17B68002BF2D1074B5B6903F4F9
:102FA8000073B3F5007F01D1032300E00023184626
:102FB8000C37BD4680BC7047000400581400002040
:102FC80083DE1B4380B483B000AF0346FB71104B14
:102FD8001B6823F007030E4A43F0020313600D4BEE
:102FE8001B690C4A43F004031361FB79012B01D1DF
:102FF80030BF02E040BF20BF20BF064B1B69054A17
:1030080023F00403136100BF0C37BD4680BC704732
:103018000004005800ED00E080B400AF064B1B68C8
:1030280003F48073B3F5807F01D1012300E000230E
:103038001846BD4680BC70470004005880B400AFF5
:103048004FF0B0431B684FF0B04243F400131360D5
:1030580000BFBD4680BC704780B400AF4FF0B0439E
:103068001B684FF0B04223F40013136000BFBD4645
:1030780080BC704780B400AF4FF0B0431B6803F4C6
:103088008013B3F5801F01D1012300E00023184607
:10309800BD4680BC704780B400AF4FF0B0431B689A
:1030A8004FF0B04243F48033136000BFBD4680BC8C
:1030B800704780B400AF4FF0B0431B684FF0B04288
:1030C80023F48033136000BFBD4680BC704780B4D2
:1030D80000AF4FF0B0431B6803F40033B3F5003F73
:1030E80001D1012300E000231846BD4680BC70478B
:1030F80080B400AF4FF0B0431B684FF0B04243F4C8
:103108008073136000BFBD4680BC704780B400AFB9
:103118004FF0B0431B684FF0B04223F48073136044
:1031280000BFBD4680BC704780B400AF4FF0B043CD
:103138001B6803F48063B3F5806F01D1012300E0BD
:1031480000231846BD4680BC704780B483B000AFEA
:1031580078604FF0B0435B6823F0FE427B681B0643
:103168004FF0B04113434B6000BF0C37BD4680BCE5
:10317800704780B400AF4FF0B043D3F8903003F0FD
:103188000203022B01D1012300E000231846BD46AB
:1031980080BC704780B400AF4FF0B043D3F8943090
:1031A8004FF0B04243F00103C2F8943000BFBD466F
:1031B80080BC704780B400AF4FF0B043D3F8943070
:1031C8004FF0B04223F00103C2F8943000BFBD466F
:1031D80080BC704780B400AF4FF0B043D3F8943050
:1031E80003F00203022B01D1012300E0002318465B
:1031F800BD4680BC704780B400AF4FF0B0431B6839
:103208004FF0B04243F00103136000BFBD4680BCDD
:10321800704780B400AF4FF0B0431B684FF0B04226
:1032280023F00103136000BFBD4680BC704780B423
:1032380000AF4FF0B0431B6803F00203022B01D12B
:10324800012300E000231846BD4680BC704780B4C7
:1032580000AF4FF0B0431B6803F00803082B01D1FF
:10326800012300E000231846BD4680BC704780B4A7
:1032780000AF4FF0B0431B6803F0F0031846BD469B
:1032880080BC704780B400AF4FF0B043D3F894309F
:1032980003F470631846BD4680BC704780B483B0A1
:1032A80000AF78604FF0B0435B6823F47F427B68DF
:1032B8001B024FF0B04113434B6000BF0C37BD46B3
:1032C80080BC704780B483B000AF78604FF0B043E3
:1032D8009B6823F003024FF0B0417B6813438B6077
:1032E80000BF0C37BD4680BC704780B400AF4FF0BC
:1032F800B0439B6803F00C031846BD4680BC70477A
:1033080080B483B000AF78604FF0B0439B6823F07F
:10331800F0024FF0B0417B6813438B6000BF0C375D
:10332800BD4680BC704780B483B000AF78604FF072
:10333800B043D3F8083123F0F0024FF0B0417B6876
:103348001343C1F8083100BF0C37BD4680BC704735
:1033580080B483B000AF78604FF0B043D3F8083141
:1033680023F00F027B681B094FF0B0411343C1F8EB
:10337800083100BF0C37BD4680BC704780B483B0AD
:1033880000AF78604FF0B0439B6823F4E0624FF0E1
:10339800B0417B6813438B6000BF0C37BD4680BCCF
:1033A800704780B483B000AF78604FF0B0439B683B
:1033B80023F460524FF0B0417B6813438B6000BF29
:1033C8000C37BD4680BC704780B400AF4FF0B043A7
:1033D8009B6803F0F0031846BD4680BC704780B474
:1033E80000AF4FF0B043D3F808311B0103F0F003EE
:1033F8001846BD4680BC704780B400AF4FF0B0435C
:103408009B6803F4E0631846BD4680BC704780B4EF
:1034180000AF4FF0B0439B6803F460531846BD46B5
:1034280080BC704780B400AF4FF0B0431B684FF0CA
:10343800B04243F08073136000BFBD4680BC704744
:1034480080B400AF4FF0B0431B684FF0B04223F098
:103458008073136000BFBD4680BC704780B400AF66
:103468004FF0B0431B6803F00073B3F1007F01D144
:10347800012300E000231846BD4680BC704780B495
:1034880000AF4FF0B043DB681B0A03F07F03184618
:10349800BD4680BC704780B400AF4FF0B043DB68D6
:1034A80003F060431846BD4680BC704780B400AF47
:1034B8004FF0B043DB6803F070031846BD4680BC8C
:1034C800704780B400AF4FF0B043DB6803F00303EC
:1034D8001846BD4680BC704780B400AF4FF0B0437B
:1034E8009B6803F48033B3F5803F01D1012300E0EA
:1034F80000231846BD4680BC704780B400AF4FF02B
:10350800B043D3F8083103F40033B3F5003F01D1D9
:10351800012300E000231846BD4680BC704780B4F4
:1035280000AF4FF0B043D3F8083103F48033B3F55C
:10353800803F01D1012300E000231846BD4680BC2E
:10354800704780B400AF4FF0B0439B6803F400337A
:10355800B3F5003F01D1012300E000231846BD4622
:1035680080BC704780B400AF4FF0B0439B6803F451
:103578008023B3F5802F01D1012300E000231846F2
:10358800BD4680BC7047000080B588B000AF786049
:103598007B68002B01D101238AE3FFF7A6FEF861BF
:1035A800FFF78FFFB8617B681B6803F02003002BCF
:1035B80000F0C980FB69002B05D0FB690C2B7BD17F
:1035C800BB69012B78D1FFF732FE0346002B05D0EB
:1035D8007B681B6A002B01D1012369E37B689A6A27
:1035E8004FF0B0431B6803F00803002B05D04FF0E1
:1035F800B0431B6803F0F00306E04FF0B043D3F884
:1036080094301B0903F0F003934222D27B689B6A33
:10361800184600F06DFD0346002B01D0012347E357
:103628004FF0B0431B684FF0B04243F008031360FB
:103638004FF0B0431B6823F0F0027B689B6A4FF0A1
:10364800B04113430B607B685B6A1846FFF726FEA0
:1036580021E04FF0B0431B684FF0B04243F008033D
:1036680013604FF0B0431B6823F0F0027B689B6A3D
:103678004FF0B04113430B607B685B6A1846FFF755
:103688000DFE7B689B6A184600F032FD0346002B4E
:1036980001D001230CE300F0F3FC0246B44B1A609E
:1036A800B44B1B681846FDF74FFE0346FB74FB7CC2
:1036B800002B47D0FB7CFBE27B681B6A002B2CD0DD
:1036C800FFF799FDFDF74AFE786108E0FDF746FE31
:1036D80002467B69D31A022B01D90323E8E2FFF7DC
:1036E800A6FD0346002BF1D04FF0B0431B684FF006
:1036F800B04243F0080313604FF0B0431B6823F057
:10370800F0027B689B6A4FF0B04113430B607B6803
:103718005B6A1846FFF7C2FD15E0FFF77AFDFDF773
:103728001DFE786108E0FDF719FE02467B69D31A91
:10373800022B01D90323BBE2FFF779FD0346002BD7
:10374800F1D100E000BF7B681B6803F00103002B88
:103758005FD0FB69082B05D0FB690C2B0DD1BB6929
:10376800032B0AD1FFF7B3FC0346002B50D07B682C
:103778005B68002B4CD101239AE24FF0B0431B68E1
:1037880023F480127B689B684FF0B04113430B60B1
:103798007B685B68B3F5803F02D1FFF77CFC0DE0E6
:1037A8007B685B68B3F5041F04D1FFF747FCFFF79C
:1037B80072FC03E0FFF77DFCFFF74EFC7B685B685B
:1037C800002B12D0FDF7CAFD786108E0FDF7C6FDB1
:1037D80002467B69D31A642B01D9032368E2FFF7F9
:1037E80076FC0346002BF1D013E0FDF7B7FD7861B6
:1037F80008E0FDF7B3FD02467B69D31A642B01D9B3
:10380800032355E2FFF763FC0346002BF1D100E0E8
:1038180000BF7B681B6803F00203002B4BD0FB69D9
:10382800042B05D0FB690C2B13D1BB69022B10D1DB
:10383800FFF77AFC0346002B05D07B681B69002B39
:1038480001D1012334E27B685B691846FFF77DFCF0
:1038580031E07B681B69002B19D0FFF749FCFDF7A5
:103868007DFD786108E0FDF779FD02467B69D31A92
:10387800022B01D903231BE2FFF756FC0346002B5A
:10388800F1D07B685B691846FFF75FFC13E0FFF730
:103898003DFCFDF763FD786108E0FDF75FFD02463A
:1038A8007B69D31A022B01D9032301E2FFF73CFC01
:1038B8000346002BF1D17B681B6803F00803002B3B
:1038C8006ED07B689B69002B56D04FF0B043D3F87D
:1038D8009430FB607B68DA69FB6803F010039A4256
:1038E80031D0FB6803F00203002B06D0FB6803F01D
:1038F8000103002B01D10123DAE1FB6803F0010386
:10390800002B13D0FFF756FCFDF728FD786108E07F
:10391800FDF724FD02467B69D31A112B01D9032335
:10392800C6E1FFF757FC0346002BF1D14FF0B04337
:10393800D3F8943023F010027B68DB694FF0B04174
:103948001343C1F89430FFF725FCFDF707FD7861B4
:1039580008E0FDF703FD02467B69D31A112B01D954
:103968000323A5E1FFF736FC0346002BF1D017E04F
:103978001400002018000020FFF71CFCFDF7EEFCE7
:10398800786108E0FDF7EAFC02467B69D31A112B3F
:1039980001D903238CE1FFF71DFC0346002BF1D16D
:1039A8007B681B6803F00403002B00F0D880FFF746
:1039B80033FB0346002B13D1FFF772FAFDF7CEFC59
:1039C800786108E0FDF7CAFC02467B69D31A022B2E
:1039D80001D903236CE1FFF71FFB0346002BF1D04D
:1039E8007B68DB68002B7BD07B68DB68852B03D08A
:1039F8007B68DB68052B09D14FF0B043D3F89030D2
:103A08004FF0B04243F00403C2F89030FDF7A6FC33
:103A180078614FF0B043D3F890304FF0B04243F0A4
:103A28000103C2F890300AE0FDF798FC02467B6972
:103A3800D31A41F28832934201D9032338E1FFF7C0
:103A480098FB0346002BEFD07B68DB68812B03D003
:103A58007B68DB68852B21D1FDF780FC78614FF00E
:103A6800B043D3F890304FF0B04243F08003C2F82F
:103A780090300AE0FDF772FC02467B69D31A41F2E6
:103A88008832934201D9032312E14FF0B043D3F8AF
:103A9800903003F40063002BECD060E0FDF75EFC8F
:103AA80078614FF0B043D3F890304FF0B04223F034
:103AB8008003C2F890300AE0FDF750FC02467B69AB
:103AC800D31A41F28832934201D90323F0E04FF030
:103AD800B043D3F8903003F40063002BECD13EE000
:103AE800FDF73CFC78614FF0B043D3F890304FF0CD
:103AF800B04223F08003C2F890300AE0FDF72EFCB4
:103B080002467B69D31A41F28832934201D90323D2
:103B1800CEE04FF0B043D3F8903003F40063002BAD
:103B2800ECD1FDF71BFC78614FF0B043D3F890302F
:103B38004FF0B04223F00103C2F890300AE0FDF7DD
:103B48000DFC02467B69D31A41F28832934201D9AF
:103B58000323ADE0FFF70DFB0346002BEFD17B6895
:103B6800DB6A002B00F0A380FB690C2B76D07B6806
:103B7800DB6A022B4BD1FFF763FCFDF7EFFB7861A3
:103B880008E0FDF7EBFB02467B69D31A0A2B01D943
:103B980003238DE0FFF762FC0346002BF1D14FF0C1
:103BA800B043DA68444B13407A68116B7A68526BF9
:103BB80011437A68926B120211437A68D26B1143EF
:103BC8007A68126C11437A68526C0A434FF0B0411C
:103BD8001343CB60FFF726FC4FF0B043DB684FF090
:103BE800B04243F08053D360FDF7B8FB786108E03A
:103BF800FDF7B4FB02467B69D31A0A2B01D90323CC
:103C080056E0FFF72BFC0346002BF1D04FE0FFF7FF
:103C180017FC4FF0B043DB684FF0B04223F00303CA
:103C2800D3604FF0B043DB684FF0B04223F08853C5
:103C380023F48033D360FDF791FB786108E0FDF74A
:103C48008DFB02467B69D31A0A2B01D903232FE087
:103C5800FFF704FC0346002BF1D128E07B68DB6A00
:103C6800012B01D1012323E04FF0B043DB68BB6196
:103C7800BB6903F003027B681B6B9A4215D1BB69D1
:103C880003F070027B685B6B9A420ED1BB6903F448
:103C9800FE427B689B6B1B029A4206D1BB6903F00C
:103CA80060427B685B6C9A4201D0012300E00023EC
:103CB80018462037BD4680BD8C80C11180B584B0C0
:103CC80000AF786039607B68002B01D101232CE1BB
:103CD800984B1B6803F007033A689A421BD9954B27
:103CE8001B6823F0070293493B6813430B60FDF7F9
:103CF80035FBF86008E0FDF731FB0246FB68D31A94
:103D0800022B01D9032310E18A4B1B6803F0070338
:103D18003A689A42EFD17B681B6803F00203002BD4
:103D280016D07B689B681846FFF7EAFAFDF716FB82
:103D3800F86008E0FDF712FB0246FB68D31A022B75
:103D480001D90323F1E0FFF7C7FB0346002BF1D0AD
:103D58007B681B6803F02003002B16D07B685B6927
:103D68001846FFF7E0FAFDF7F9FAF86008E0FDF702
:103D7800F5FA0246FB68D31A022B01D90323D4E0D3
:103D8800FFF7BBFB0346002BF1D07B681B6803F0F1
:103D98004003002B16D07B689B691846FFF7D8FABA
:103DA800FDF7DCFAF86008E0FDF7D8FA0246FB6890
:103DB800D31A022B01D90323B7E0FFF7B0FB034660
:103DC800002BF1D07B681B6803F00403002B16D08E
:103DD8007B68DB681846FFF7D1FAFDF7BFFAF86091
:103DE80008E0FDF7BBFA0246FB68D31A022B01D99B
:103DF80003239AE0FFF7A5FB0346002BF1D07B686D
:103E08001B6803F00803002B17D07B681B69DB00D5
:103E18001846FFF7C6FAFDF7A1FAF86008E0FDF7C3
:103E28009DFA0246FB68D31A022B01D903237CE0D2
:103E3800FFF798FB0346002BF1D07B681B6803F063
:103E48000103002B43D07B685B68022B06D1FFF788
:103E58003EF90346002B1ED1012366E07B685B68B0
:103E6800032B06D1FFF7FAFA0346002B13D10123DF
:103E78005BE07B685B68002B06D1FFF7D8F9034647
:103E8800002B08D1012350E0FFF74EF90346002B21
:103E980001D1012349E07B685B681846FFF712FAF5
:103EA800FDF75CFAF8600AE0FDF758FA0246FB688D
:103EB800D31A41F28832934201D9032335E0FFF740
:103EC80014FA02467B685B689B009A42ECD1194B56
:103ED8001B6803F007033A689A421BD2154B1B680C
:103EE80023F0070213493B6813430B60FDF736FACA
:103EF800F86008E0FDF732FA0246FB68D31A022B95
:103F080001D9032311E00B4B1B6803F007033A6840
:103F18009A42EFD100F0B4F80246074B1A60074BFB
:103F28001B681846FDF710FA034618461037BD46B9
:103F380080BD00BF00400058140000201800002079
:103F480090B587B000AF00237B6100233B61FFF78A
:103F5800CCF9B860FFF7B5FA7860BB68002B05D0DC
:103F6800BB680C2B39D17B68012B36D1FFF76FF971
:103F78000346002B15D1FFF76AF90346012B06D13A
:103F8800FFF775F903461B0A03F00F0305E0FFF777
:103F980079F903461B0A03F00F03364A52F8233017
:103FA80014E0FFF754F90346012B06D1FFF75FF938
:103FB80003461B0903F00F0305E0FFF763F9034607
:103FC8001B0903F00F032B4A52F823303B61BB68EF
:103FD800002B15D13B697B6112E0BB68042B02D131
:103FE800254B7B610CE0BB68082B09D1FFF742F831
:103FF8000346012B02D1204B7B6101E01F4B7B6103
:10400800FFF773F903460C2B2ED1FFF75AFA7860A5
:104018007B68022B02D0032B03D00DE0164BFB600C
:104028000DE0FFF727F80346012B02D1124BFB6086
:1040380005E0124BFB6002E03B69FB6000BFFFF745
:104048001EFA0246FB6803FB02F4FFF72FFA034649
:104058001B090133B4FBF3F4FFF71DFA03465B0FAA
:104068000133B4FBF3F37B617B6918461C37BD460B
:1040780090BD00BF50B600080024F4000048E801D5
:1040880098B500AFFFF75CFF0446FFF79DF90346BC
:104098001B0903F00F03034A52F82330B4FBF3F370
:1040A800184698BDF0B5000898B500AFFFF7E8FFCF
:1040B8000446FFF7A1F903461B0A034A52F82330C6
:1040C80024FA03F3184698BD30B6000898B500AF37
:1040D800FFF7D6FF0446FFF79AF90346DB0A034ABF
:1040E80052F8233024FA03F3184698BD30B6000876
:1040F80090B585B000AF78607B681B0903F00F03AB
:10410800104A52F82330FB60FFF769F903461B0990
:1041180003F00F030C4A52F82330FA68B2FBF3F3AA
:10412800BB60BB68094AA2FB03239C0CFEF7FAFE9E
:1041380003461946204600F00BF803461846143784
:10414800BD4690BD50B60008F0B5000883DE1B439D
:1041580080B58EB000AF786039603C4A07F1200323
:1041680092E80300186004331980394A07F11803EC
:1041780092E80300186004331980364A07F10C03EB
:1041880007CA83E8070000237B633B68B3F5007F19
:104198001DD100233B6316E03B6B5B0007F138023F
:1041A800134433F8183C1A467B68934208D83B6B93
:1041B8009B0007F13802134453F82C3C7B6323E03F
:1041C8003B6B01333B633B6B022BE5D91CE00023BF
:1041D800FB6216E0FB6A5B0007F13802134433F810
:1041E800203C1A467B68934208D8FB6A9B0007F17B
:1041F8003802134453F82C3C7B6305E0FB6A013317
:10420800FB62FB6A022BE5D9134B1B6823F00702FC
:1042180011497B6B13430B60FDF7A0F8B86208E007
:10422800FDF79CF80246BB6AD31A022B01D9032377
:1042380007E0094B1B6803F007037A6B9A42EFD13A
:10424800002318463837BD4680BD00BFECB40008CF
:10425800F4B40008FCB400080040005880B400AF73
:104268004FF0B043D3F8903003F00203022B01D192
:10427800012300E000231846BD4680BC704780B487
:1042880083B000AF78604FF0B043D3F888207B68E4
:104298001B0CDB431A407B689BB24FF0B0411343C1
:1042A800C1F8883000BF0C37BD4680BC704780B469
:1042B80083B000AF78604FF0B043D3F8883023F470
:1042C80040724FF0B0417B681343C1F8883000BF9B
:1042D8000C37BD4680BC704780B483B000AF7860AF
:1042E8004FF0B043D3F8883023F440624FF0B04128
:1042F8007B681343C1F8883000BF0C37BD4680BCCB
:10430800704780B483B000AF78604FF0B043D3F803
:1043180088207B681B0903F47F23DB431A407B68F2
:104328001B0103F47F234FF0B0411343C1F88830D9
:1043380000BF0C37BD4680BC704780B483B000AF67
:1043480078604FF0B043D3F888207B681B0C1B04BF
:10435800DB431A407B681B044FF0B0411343C1F89C
:10436800883000BF0C37BD4680BC704780B483B02E
:1043780000AF78604FF0B043D3F8883023F0404264
:104388004FF0B0417B681343C1F8883000BF0C3749
:10439800BD4680BC704780B483B000AF78604FF0F2
:1043A800B043D3F8883023F040524FF0B0417B68D7
:1043B8001343C1F8883000BF0C37BD4680BC704736
:1043C80080B483B000AF78604FF0B043D3F890303A
:1043D80023F440724FF0B0417B681343C1F890302A
:1043E80000BF0C37BD4680BC704780B400AF4FF0AB
:1043F800B043D3F8903003F440731846BD4680BCF0
:10440800704780B400AF4FF0B043D3F890304FF00E
:10441800B04243F48033C2F8903000BFBD4680BC40
:10442800704780B400AF4FF0B043D3F890304FF0EE
:10443800B04223F48033C2F8903000BFBD4680BC40
:104448007047000080B586B000AF786000237B61BC
:104458000023FB740023BB747B681B6803F4803360
:10446800002B58D0FEF71CFDFCF778FFF86009E038
:10447800FCF774FF0246FB68D31A022B02D9032308
:10448800FB7406E07B4B1B6803F48073B3F5807FF5
:10449800EED1FB7C002B3CD1FFF7A7FF02467B68DF
:1044A8005B6B9A420FD04FF0B043D3F8903023F4AF
:1044B80040737B61FFF7A5FFFFF7B3FF4FF0B042F2
:1044C8007B69C2F890307B6903F00203002B14D09B
:1044D800FCF744FFF8600BE0FCF740FF0246FB687E
:1044E800D31A41F28832934202D90323FB7404E0C1
:1044F800FFF7B4FE0346012BEED1FB7C002B05D160
:104508007B685B6B1846FFF75BFF04E0FB7CBB74C2
:1045180001E0FB7CBB747B681B6803F00103002B84
:1045280004D07B685B681846FFF7A9FE7B681B68A8
:1045380003F00203002B04D07B689B681846FFF742
:104548009EFE7B681B6803F02003002B04D07B6869
:104558001B691846FFF7C0FE7B681B6803F40073ED
:10456800002B04D07B681B6A1846FFF7E6FE7B68C1
:104578001B6803F48063002B04D07B685B6A1846D1
:10458800FFF7DBFE7B681B6803F40063002B04D095
:104598007B689B6A1846FFF7D0FE7B681B6803F0B0
:1045A8004003002B04D07B685B691846FFF7A9FE1F
:1045B8007B681B6803F08003002B04D07B689B6931
:1045C8001846FFF79EFE7B681B6803F48073002B78
:1045D80004D07B68DB691846FFF793FE7B681B688D
:1045E80003F01003002B11D07B68DB681846FFF737
:1045F8005EFE7B68DB68B3F5807F07D14FF0B04380
:10460800DB684FF0B04243F08073D3607B681B686F
:1046180003F40043002B10D07B681B6B1846FFF790
:10462800A5FE7B681B6B002B07D14FF0B043DB68FE
:104638004FF0B04243F08073D3607B681B6803F48B
:104648008043002B11D07B68DB6A1846FFF7A3FE76
:104658007B68DB6AB3F1005F07D14FF0B043DB68DA
:104668004FF0B04243F48033D360BB7C1846183710
:10467800BD4680BD0004005880B584B000AF7860A6
:104688000123FB737B68002B68D07B6893F82D307F
:10469800DBB2002B06D17B68002283F82C207868D7
:1046A800FCF746FC7B68022283F82D202E4BCA2299
:1046B8005A622D4B53225A62786800F0FBF9034680
:1046C800FB73FB7B002B3FD1274B9B69264A23F0CA
:1046D8008E6323F040039361234B9A697B68596882
:1046E8007B681B6919437B689B690B431E4913430D
:1046F8008B617B68DA687B689B681B041A491343E3
:104708000B61194BDB6823F4F8527B68596A7B68A4
:104718009B6A0B4314491343CB60786800F0FEF999
:104728000346FB73FB7B002B0ED10F4B9B6923F0D9
:1047380060427B68196A7B68DB6919437B685B693F
:104748000B43094913438B61074BFF225A62FB7BDA
:10475800002B03D17B68012283F82D20FB7B1846B0
:104768001037BD4680BD00BF0028004090B587B017
:1047780000AFF860B9607A6000237B61FB6893F84A
:104788002C30012B01D10223E5E0FB68012283F8DC
:104798002C20FB68022283F82D20714BDB6803F480
:1047A80040733B613B69B3F5807F5CD07B68002B2D
:1047B80036D16B4B9B6903F04003002B02D1BB68D9
:1047C8000022DA70BB681B78184600F0E5F903464A
:1047D8001C04BB685B78184600F0DEF903461B0230
:1047E8001C43BB689B78184600F0D6F9034644EA98
:1047F8000302BB68DB789B0542EA0304BB6893F8B5
:104808002430184600F0C8F903461B0644EA0302A0
:10481800BB681B6A1A43BB685B6913437B6122E070
:104828004F4B9B6903F04003002B02D1BB68002269
:10483800DA70BB681B781A04BB685B781B021343E9
:10484800BA6892781A43BB68DB789B051A43BB6841
:1048580093F824301B061A43BB681B6A1A43BB68CB
:104868005B6913437B613E4BCA225A623C4B53221D
:104878005A62BB689B6AB3F5807F2CD1384B9B6921
:10488800374A23F488539361354B0122DA653B6933
:10489800B3F5807F07D1BB689A69BB68DB6930498B
:1048A80013434B6406E02E4A7B6913642C4ABB68A9
:1048B8009B6953642A4ABB685B681367FB681B6B78
:1048C80043F00102FB681A63254B9B69244A43F4B1
:1048D800885393612BE0224B9B69214A23F40853A8
:1048E80093611F4B0222DA653B69B3F5807F07D1DC
:1048F800BB689A69BB68DB6919491343CB6406E056
:10490800174A7B699364164ABB689B69D364144A47
:10491800BB685B685367FB681B6B43F00202FB686C
:104928001A630F4B9B690E4A43F4085393610D4B6E
:10493800D3F880300B4A43F40033C2F88030084B78
:10494800FF225A62FB68012283F82D20FB680022AF
:1049580083F82C20002318461C37BD4690BD00BFA5
:10496800002800400008005880B483B000AF786089
:1049780039607B6893F82C30012B01D1022342E087
:104988007B68012283F82C207B68022283F82D2083
:104998001F4BCA225A621E4B53225A623B68B3F518
:1049A800807F12D11A4B5B6C194A23F00043536481
:1049B800174B9B69164A23F4885393617B681B6BDA
:1049C80023F001027B681A6311E0114BDB6C104A7B
:1049D80023F00043D3640E4B9B690D4A23F408531C
:1049E80093617B681B6B23F002027B681A63084B98
:1049F800FF225A627B68012283F82D207B680022FF
:104A080083F82C20002318460C37BD4680BC70471D
:104A18000028004080B584B000AF7860114B5A6D13
:104A28007B681B6B1340FB60FB6803F00103002BE2
:104A380005D00C4B0122DA657868FCF74DFEFB685F
:104A480003F00203002B05D0064B0222DA657868D2
:104A580000F04AF97B68012283F82D2000BF103747
:104A6800BD4680BD0028004080B584B000AF7860A6
:104A78000F4BDB680E4A63F0A003D360FCF76EFCB3
:104A8800F86009E0FCF76AFC0246FB68D31AB3F544
:104A98007A7F01D9032306E0054BDB6803F0200386
:104AA800002BEFD0002318461037BD4680BD00BF4D
:104AB8000028004080B584B000AF78600023FB7305
:104AC800154BDB6803F04003002B20D1124BDB6849
:104AD800114A43F08003D360FCF740FCB8600DE056
:104AE800FCF73CFC0246BB68D31AB3F57A7F05D9BC
:104AF8000323FB737B68032283F82D20064BDB68B6
:104B080003F04003002B02D1FB7B032BE8D1FB7B96
:104B180018461037BD4680BD0028004080B584B0D7
:104B280000AF78600023FB731A4BDB68194A23F047
:104B38008003D360174B9B6903F02003002B0CD133
:104B48007868FFF791FF0346002B1ED07B6803228D
:104B580083F82D200323FB7317E00E4B9B690D4A46
:104B680023F0200393617868FFF77EFF0346002B4C
:104B780005D07B68032283F82D200323FB73054BA4
:104B88009B69044A43F020039361FB7B1846103766
:104B9800BD4680BD0028004080B485B000AF034604
:104BA800FB710023FB60FB79FB7205E0FB680133B6
:104BB800FB60FB7A0A3BFB72FB7A092BF6D8FB6891
:104BC800DBB21B01DAB2FB7A1343DBB218461437A7
:104BD800BD4680BC7047000080B483B000AF7860E9
:104BE8007B6893F82C30012B01D102231FE07B68EE
:104BF800012283F82C207B68022283F82D200E4B9B
:104C0800CA225A620C4B53225A620B4B9B690A4ABE
:104C180043F020039361084BFF225A627B6801220C
:104C280083F82D207B68002283F82C200023184667
:104C38000C37BD4680BC70470028004080B483B064
:104C480000AF78607B6893F82C30012B01D10223E8
:104C580027E07B68012283F82C207B68022283F8F6
:104C68002D20124BCA225A62104B53225A620F4B04
:104C78009B690E4A43F0800393610D4BD3F8803053
:104C88000B4A43F48023C2F88030084BFF225A6253
:104C98007B68012283F82D207B68002283F82C2072
:104CA800002318460C37BD4680BC704700280040DA
:104CB8000008005880B582B000AF7860094B5B6D82
:104CC80003F04003002B05D0064B4022DA657868D4
:104CD800FCF70CFD7B68012283F82D2000BF083704
:104CE800BD4680BD0028004080B483B000AF786026
:104CF80000BF0C37BD4680BC7047000080B487B049
:104D080000AFF860B9607A60074B7B61BB689B00B5
:104D18007A6913447B617B697A681A6000BF1C3723
:104D2800BD4680BC704700BF00B1004080B485B06C
:104D380000AF78603960074BFB603B689B00FA68FE
:104D48001344FB60FB681B6818461437BD4680BCDB
:104D5800704700BF00B1004080B483B000AF7860F6
:104D6800064B9B6823F4006204497B6813438B60FD
:104D780000BF0C37BD4680BC704700BF0004005818
:104D880080B400AF054BD3F89030044A43F4004395
:104D9800C2F8903000BFBD4680BC70470004005880
:104DA80080B400AF054BD3F89030044A23F4004395
:104DB800C2F8903000BFBD4680BC70470004005860
:104DC80080B400AF034B4FF400629A6100BFBD4648
:104DD80080BC70470004005880B400AF064B5B6984
:104DE80003F00203022B01D1012300E0002318463F
:104DF800BD4680BC704700BF0004005880B400AFB7
:104E0800064B5B6903F00403042B01D1012300E086
:104E180000231846BD4680BC704700BF00040058F8
:104E280080B400AF4FF0B043D3F894304FF0B042A5
:104E380023F40043C2F8943000BFBD4680BC7047DD
:104E480080B400AF4FF0B043D3F8943003F48043FC
:104E5800B3F5804F01D1012300E000231846BD4679
:104E680080BC704780B483B000AF7860064BD3F83D
:104E7800902005497B681343C1F8903000BF0C3778
:104E8800BD4680BC704700BF0008005880B584B09C
:104E980000AF78607B68002B03D10123FB73FB7B99
:104EA8004BE00023FB737B689B79DBB2002B05D1B9
:104EB8007B6800225A717868FCF73EF97B68022209
:104EC8009A71FFF7ADFF1F4B1A681346DB009B1A58
:104ED8009B00DB0C642202FB03F3BB60BB68002B66
:104EE80005D10123FB737B6801229A6007E0BB6848
:104EF800013BBB60FFF7A4FF0346002BEED1FFF791
:104F08003FFF4FF48050FFF7ADFF4FF40060FFF70D
:104F180023FFFFF755FFFB7B002B0AD17B681B683B
:104F2800184600F0ADFA7B6801221A717B680022EE
:104F38009A607B6801229A71FB7B18461037BD4640
:104F480080BD00BF1400002080B586B000AFF860B7
:104F58007A601A460B467B8113463B81FB689B7936
:104F6800DBB2012B4AD1FB685B79012B01D102230B
:104F780045E0FB6801225A71FB6802229A71F868C1
:104F880000F04CFBFFF70CFF0D21F86800F098FAD1
:104F98007B891B0A9BB2DBB21946F86800F090FACD
:104FA8007B89DBB21946F86800F08AFA0023BB82D5
:104FB8000AE0BB8A7A6813441B781946F86800F03F
:104FC8007FFABB8A0133BB82BA8A3B899A42F0D303
:104FD800FFF7D6FEF86800F039FBFB689B68002BEA
:104FE80002D00123FB7501E00023FB75FB68012259
:104FF8009A71FB6800225A71FB7D00E00223184673
:105008001837BD4680BD80B588B000AFF8607A60BB
:105018001A460B467B8113463B817B68BB61FB6864
:105028009B79DBB2012B4AD1FB685B79012B01D15B
:10503800022345E0FB6801225A71F86800F0EEFA95
:10504800FFF7AEFE1D21F86800F03AFA7B891B0ACB
:105058009BB2DBB21946F86800F032FA7B89DBB202
:105068001946F86800F02CFA0021F86800F028FAD0
:105078000023FB8209E0B969F86800F077FABB6998
:105088000133BB61FB8A0133FB82FA8A3B899A426E
:10509800F1D3FFF775FEF86800F0D8FAFB689B6853
:1050A800002B02D00123FB7701E00023FB77FB688C
:1050B80001229A71FB6800225A71FB7F00E00223EB
:1050C80018462037BD4680BD80B586B000AFF86071
:1050D8007A601A460B46FB7213463B81FB689B7944
:1050E800DBB2012B4AD1FB685B79012B01D102238A
:1050F80045E0FB6801225A71F86800F08FFAFB7AE4
:10510800842B02D0FB7A942B03D1FB6801221A71FD
:1051180002E0FB6800221A71FFF742FEFB7A19468B
:10512800F86800F0CDF90023BB820AE0BB8A7A68F0
:1051380013441B781946F86800F0C2F9BB8A01339A
:10514800BB82BA8A3B899A42F0D3FFF719FEFB7AF1
:10515800842B02D0F86800F079FAFB689B68002B72
:1051680002D00123FB7501E00023FB75FB680122D7
:105178009A71FB6800225A71FB7D00E002231846F1
:105188001837BD4680BD80B588B000AFF8607A603A
:105198001A460B46FB7213463B817B68BB61FB6872
:1051A8009B79DBB2012B3DD1FB685B79012B01D1E7
:1051B800022338E0FB6801225A71F86800F02EFAE1
:1051C800FFF7EEFDFB7A1946F86800F079F900213F
:1051D800F86800F075F90023FB8209E0B969F868FE
:1051E80000F0C4F9BB690133BB61FB8A0133FB8260
:1051F800FA8A3B899A42F1D3FFF7C2FDF86800F0BA
:1052080025FAFB689B68002B02D00123FB7701E09D
:105218000023FB77FB6801229A71FB6800225A7110
:10522800FB7F00E0022318462037BD4680BD80B5CD
:1052380086B000AFF8607A601A460B46FB721346D8
:105248003B81FB689B79DBB2012B3ED1FB685B7924
:10525800012B01D1022339E0FB6801225A71F86859
:1052680000F0DCF9FFF79CFD0E21F86800F028F942
:10527800FB7A1946F86800F023F90023BB820AE09C
:10528800BB8A7A6813441B781946F86800F018F945
:10529800BB8A0133BB82BA8A3B899A42F0D3FFF7B3
:1052A8006FFDF86800F0D2F9FB689B68002B02D00C
:1052B8000123FB7501E00023FB75FB6801229A714D
:1052C800FB6800225A71FB7D00E00223184618375C
:1052D800BD4680BD80B588B000AFF8607A601A46D8
:1052E8000B46FB7213463B817B68BB61FB689B796D
:1052F800DBB2012B41D1FB685B79012B01D1022381
:105308003CE0FB6801225A71F86800F087F9FFF762
:1053180047FD1E21F86800F0D3F8FB7A1946F868B3
:1053280000F0CEF80021F86800F0CAF80023FB82EC
:1053380009E0B969F86800F019F9BB690133BB6184
:10534800FB8A0133FB82FA8A3B899A42F1D3FFF741
:1053580017FDF86800F07AF9FB689B68002B02D00B
:105368000123FB7701E00023FB77FB6801229A7198
:10537800FB6800225A71FB7F00E0022318462037A1
:10538800BD4680BD80B584B000AF78600023BB8186
:1053980007F10C02022312217868FFF7F4FE3B7B29
:1053A800FB81FB891B021AB27B7B1BB213431BB226
:1053B800FB81FB8903F00103002B02D0786804F01D
:1053C80011FCFB895B0803F00103002B02D078680D
:1053D80004F016FCFB899B0803F00103002B02D0A4
:1053E800786804F065FCFB89DB0803F00103002BF7
:1053F80002D0786804F06AFCFB891B0903F00103FA
:10540800002B02D0786804F06FFCFB895B0903F07D
:105418000103002B02D0786804F03CFCFB899B094F
:1054280003F00103002B02D0786804F0F7FBFB8936
:10543800DB0903F00103002B0ED0FB891B0A03F0E4
:105448000103002B04D00121786804F0F5FB03E088
:105458000021786804F0F0FBFB895B0A03F0010384
:10546800002B02D0786804F005FC07F10C02022337
:1054780002217868FFF728FE00BF1037BD4680BDBF
:1054880080B483B000AF78600C4B1B680B4A23F0E4
:1054980040031360094A7B6843F441731360074B68
:1054A8004FF4B8525A60054B1B68044A43F0400356
:1054B800136000BF0C37BD4680BC70470000015820
:1054C80080B487B000AF78600B46FB700023FB7593
:1054D800234B1A681346DB009B1A9B00DB0C6422E3
:1054E80002FB03F3FB60FB68002B05D10123FB756E
:1054F8007B6801229A6008E0FB68013BFB60194B5E
:105508009B6803F00203022BEDD1174B3B613B690B
:10551800FA781A70124B1A681346DB009B1A9B0024
:10552800DB0C642202FB03F3FB60FB68002B05D154
:105538000123FB757B6801229A6008E0FB68013B48
:10554800FB60084B9B6803F00103012BEDD1054B71
:10555800DB68FB7D18461C37BD4680BC704700BF22
:1055680014000020000001580C00015880B487B0D6
:1055780000AF786039600023FB75254B1A68134625
:10558800DB009B1A9B00DB0C642202FB03F3FB602D
:10559800FB68002B05D10123FB757B6801229A600B
:1055A80008E0FB68013BFB601A4B9B6803F00203B1
:1055B800022BEDD1184B3B613B69FF221A70144B4B
:1055C8001A681346DB009B1A9B00DB0C642202FB63
:1055D80003F3FB60FB68002B05D10123FB757B6897
:1055E80001229A6008E0FB68013BFB60094B9B685D
:1055F80003F00103012BEDD1064BDB68DAB23B68FF
:105608001A70FB7D18461C37BD4680BC704700BF2A
:1056180014000020000001580C00015880B582B029
:1056280000AF78607B681B79012B06D1FFF7B8FBC8
:105638000120FBF79AFEFFF7A3FB786800F006F855
:10564800034618460837BD4680BD000080B586B0C1
:1056580000AF78600023FB75124B1A6813465B0095
:105668001344DB001B0D642202FB03F3FB60FFF70E
:10567800C5FB3861FB68002B05D10123FB757B68EE
:1056880002229A6009E0FB68013BFB60FFF7A4FB7C
:1056980002463B691340012BE9D0FB7D18461837B9
:1056A800BD4680BD1400002080B483B000AF786090
:1056B8004FF0B043D3F888207B681A407B681B04FE
:1056C800134318460C37BD4680BC704780B483B07E
:1056D80000AF78604FF0B043D3F888207B68134060
:1056E80018460C37BD4680BC704780B582B000AF05
:1056F80078607B68002B01D1012342E07B68D3F8F6
:105708008430002B06D17B68002283F880207868DB
:10571800FCF736F97B682422C3F884207B681B6871
:105728001A687B681B6822F001021A60786800F02A
:105738002DFB0346012B01D1012322E07B689B6AE4
:10574800002B02D0786800F073FD7B681B685A68EC
:105758007B681B6822F490425A607B681B689A68D1
:105768007B681B6822F02A029A607B681B681A68AB
:105778007B681B6842F001021A60786800F0F9FD46
:10578800034618460837BD4680BD80B584B000AFD3
:10579800F860B9601346FB80FB68D3F88830202B8B
:1057A8001DD1BB68002B02D0FB88002B01D101233F
:1057B80016E0FB6893F88030012B01D102230FE03B
:1057C800FB68012283F88020FB680022DA66FB88E8
:1057D8001A46B968F86800F097FE034600E002230D
:1057E80018461037BD4680BD80B584B000AFF8605C
:1057F800B9601346FB80FB68D3F88430202B68D14E
:10580800BB68002B02D0FB88002B01D1012361E08B
:10581800FB6893F88030012B01D102235AE0FB6822
:10582800012283F88020FB68BA681A65FB68FA8849
:10583800A3F85420FB68FA88A3F85620FB680022D6
:10584800C3F88C20FB682122C3F88420FB689B6F77
:10585800002B2CD0FB689B6F204ADA62FB689B6F99
:105868001F4A1A63FB689B6F1E4A5A63FB689B6F4B
:1058780000229A63FB68986FFB681B6D1946FB68EA
:105888001B6828331A46FB88FCF7EEFD0346002BFD
:105898000DD0FB681022C3F88C20FB68002283F827
:1058A8008020FB682022C3F88420012312E0FB68D3
:1058B8001B6840221A62FB68002283F88020FB687C
:1058C8001B689A68FB681B6842F080029A60002394
:1058D80000E0022318461037BD4680BD2567000842
:1058E800796700089567000880B588B000AF7860D0
:1058F8007B681B68DB69FB617B681B681B68BB6195
:105908007B681B689B687B61FA6940F60F0313404C
:105918003B613B69002B18D1FB6903F02003002B86
:1059280013D0BB6903F02003002B04D17B6903F07B
:105938008053002B09D07B681B6F002B00F0FC8183
:105948007B681B6F78689847F6E13B69002B00F08D
:10595800EF807A69734B1340002B05D1BA69724BFB
:105968001340002B00F0E480FB6903F00103002BD7
:1059780010D0BB6903F48073002B0BD07B681B68C5
:1059880001221A627B68D3F88C3043F001027B68ED
:10599800C3F88C20FB6903F00203002B10D07B694D
:1059A80003F00103002B0BD07B681B6802221A62EC
:1059B8007B68D3F88C3043F004027B68C3F88C20F2
:1059C800FB6903F00403002B10D07B6903F001038B
:1059D800002B0BD07B681B6804221A627B68D3F803
:1059E8008C3043F002027B68C3F88C20FB6903F01B
:1059F8000803002B15D0BB6903F02003002B04D14A
:105A08007A69484B1340002B0BD07B681B6808222F
:105A18001A627B68D3F88C3043F008027B68C3F8BD
:105A28008C20FB6903F40063002B11D0BB6903F0E1
:105A38008063002B0CD07B681B684FF400621A62ED
:105A48007B68D3F88C3043F020027B68C3F88C2045
:105A58007B68D3F88C30002B00F07081FB6903F071
:105A68002003002B11D0BB6903F02003002B04D1C5
:105A78007B6903F08053002B07D07B681B6F002BDA
:105A880003D07B681B6F786898477B68D3F88C30A5
:105A9800FB607B681B689B6803F04003402B04D0C5
:105AA800FB6803F02803002B31D0786800F005FE6E
:105AB8007B681B689B6803F04003402B23D17B68FD
:105AC8001B689A687B681B6822F040029A607B68B2
