:020000040800F2
:1000000000800020692000083B1300084713000807
:100010004D13000853130008591300080000000096
:100020000000000000000000000000005F13000856
:100030006B1300080000000077130008831300080A
:10004000B9200008B920000891130008B920000861
:10005000B9200008B9200008B9200008B92000081C
:10006000B9200008B9200008B9200008B92000080C
:10007000B9200008B9200008B9200008A51300081D
:10008000B9200008B9200008B9200008B9200008EC
:10009000B9200008B9200008B9200008B9200008DC
:1000A000B9200008B9200008B9200008B9200008CC
:1000B000B9200008B9200008B9200008B9200008BC
:1000C000B9200008B9200008B9200008B9200008AC
:1000D000B9200008B9130008B9200008B9200008A9
:1000E000B9200008B9200008CD130008B920000885
:1000F000B9200008B9200008B9200008B92000087C
:10010000B9200008B9200008E1130008B920000850
:10011000B9200008B9200008B9200008B92000085B
:10012000B9200008B9200008B9200008B92000084B
:08013000B9200008B920000805
:1001380010B5054C237833B9044B13B10448AFF319
:1001480000800123237010BD9000002000000000F3
:1001580084C6000808B5034B1BB103490348AFF335
:10016800008008BD000000009400002084C600083C
:10017800034613F8012B002AFBD1181A01387047DF
:1001880053B94AB9002908BF00281CBF4FF0FF31F6
:100198004FF0FF3000F072B9ADF1080C6DE904CEF4
:1001A80000F006F8DDF804E0DDE9022304B070474A
:1001B8002DE9F047089E04468846002B4BD18A4219
:1001C800154667D9B2FA82F24AB1C2F1200701FA9C
:1001D80002F320FA07F7954047EA030894404FEAEC
:1001E800154E230CB8FBFEF71FFA85FC0EFB17888B
:1001F80043EA084307FB0CF1994209D9EB1807F1C8
:10020800FF3080F01B81994240F21881023F2B4455
:100218005B1AA4B2B3FBFEF00EFB103344EA0344AE
:1002280000FB0CFCA44509D92C1900F1FF3380F020
:100238000781A44540F2048102382C4440EA074073
:10024800A4EB0C0400271EB1D4400023C6E90043E8
:100258003946BDE8F0878B4209D9002E00F0EB80C3
:100268000027C6E9000138463946BDE8F087B3FAE9
:1002780083F7002F47D18B4202D3824200F2FA80E3
:10028800841A61EB030301209846002EE0D0C6E9EA
:100298000048DDE702B9FFDEB2FA82F2002A40F038
:1002A8008F80491B4FEA154E1FFA85F80127B1FBCD
:1002B800FEFC230C0EFB1C1143EA014308FB0CF166
:1002C800994207D9EB180CF1FF3002D2994200F29B
:1002D800CD808446591AA3B2B1FBFEF00EFB101470
:1002E80043EA044408FB00F8A04507D92C1900F19B
:1002F800FF3302D2A04500F2B6801846A4EB0804EA
:1003080040EA0C409FE7C7F1200CBB4022FA0CFEE4
:100318004EEA030E01FA07F420FA0CF521FA0CF361
:100328004FEA1E482543B3FBF8F92C0C08FB193398
:100338001FFA8EFA44EA034309FB0AF49C4202FAC4
:1003480007F200FA07F10BD91EEB030309F1FF309E
:1003580080F087809C4240F28480A9F102097344AE
:100368001B1BADB2B3FBF8F008FB103345EA03449E
:1003780000FB0AFAA24508D91EEB040400F1FF337A
:100388006BD2A24569D90238744440EA0940A0FBFF
:100398000289A4EB0A044C45C2464B4654D351D0BB
:1003A800002E69D0B1EB0A0564EB030404FA0CFCD7
:1003B800FD40FC404CEA0505C6E90054002747E724
:1003C800C2F1200320FA03F7954001FA02F021FA5E
:1003D80003F34FEA154E3843010CB3FBFEF71FFA3F
:1003E80085F80EFB173341EA034107FB08F38B42FC
:1003F80004FA02F407D9691807F1FF3C2FD28B429F
:100408002DD9023F2944CB1A81B2B3FBFEF00EFB73
:10041800103341EA034100FB08F38B4207D96918FE
:1004280000F1FF3C17D28B4215D902382944C91A6A
:1004380040EA07473BE73746304609E70746E7E61D
:100448001846FBE64145ABD2B8EB020A69EB0E024F
:1004580001381346A4E76046E9E7184695E767467A
:10046800D1E781467CE702382C4447E7ACF1020C1F
:100478002B442FE7384608E73746E9E6704700BFC0
:1004880080B500AF01F02CF800F00AF800BF80BD7D
:1004980080B500AF4FF0FF300BF00EF900BF80BD04
:1004A80090B58BB00AAF00230093674B00224FF042
:1004B800FF3166480BF0F0FA42F2107163480BF016
:1004C800FDFB00230093624B00224FF0FF3161488F
:1004D8000BF0E2FA64215F480BF0F0FB0023009375
:1004E8005D4B00224FF0FF315C480BF0D5FA4FF41A
:1004F800FA715A480BF0E2FB00230093584B002294
:100508004FF0FF3157480BF0C7FA642155480BF0FC
:10051800D5FB00F0EBFB544B544A1A60524B544A3B
:100528009A60514B534A5A604F4B534ADA604E4BCC
:10053800524A1A61524B1B684B489847504B5B69AB
:100548009847034618460BF0CDFF4D4BDC6940F643
:10055800B8330893002307930023069300230593D9
:100568000123049300230393082302930123019397
:1005780007230093002300220A210120A047404BB3
:100588009C69012309930023089300230793002300
:100598000693012305930023049300230393052363
:1005A80002930823019300230093012307220021CB
:1005B8000120A047324B5B6D402101209847304B0A
:1005C800DB6830489847022000F0AAFC012000F0C0
:1005D800A7FC002000F0A4FC294B5B6B4FF4FA60E9
:1005E8009847294A002101200BF046F9002000F025
:1005F800A5FA264B0022002101200AF03BFD012329
:100608000093234B0022002101200AF033FD072329
:1006180001931C4B00931F4B0022002101200AF07C
:1006280029FD6FF04F0300931B4B0022002101208E
:100638000AF020FD194B0022002101200AF01AFDC2
:1006480000BF0437BD4690BD450B0008FC000020E4
:10065800010B0008B40000202D0B0008E400002066
:10066800170B0008CC00002014010020290A0008FC
:10067800450A0008AD0A0008C90A0008E50A00088A
:10068800C0C9000800A1BC33A9060008A0C600081C
:10069800B4C60008C0C60008D4C60008E0C60008F2
:1006A80090B589B002AF01237B74AB4B1B78062B46
:1006B80000F2A48101A252F823F000BFD308000879
:1006C800B1090008C5090008E1060008050A000884
:1006D800A7080008E509000800237B617B695A1C0C
:1006E8007A619E4A0121D15400F058FF0346194609
:1006F8007B695A1C7A61C9B2984AD1547C69631CD7
:100708007B6100F013FF03461A46944B1A55944B2D
:100718001B881B0A99B27B695A1C7A61C9B28F4A35
:10072800D1548F4B19887B695A1C7A61C9B28B4A9C
:10073800D1548C4B1B881B0A99B27B695A1C7A616D
:10074800C9B2864AD154874B19887B695A1C7A6189
:10075800C9B2824AD1547B699AB2834B1A80834BBF
:10076800DB6883489847814B5B6B002098477F4B39
:10077800DB6D98470346184600F0C7FF00237B61EE
:100788005BE07B69013300937A4B01220021012051
:100798000AF070FC01237B740BF038FBB8600DE0A5
:1007A800724B1B6C0120984703467B82B7F91230C5
:1007B80013F14F0F02DB00237B7405E0B8680BF0E0
:1007C80037FB0346092BEBD9B8680BF031FBB8604F
:1007D800B7F91230BA6801920093674B00220021E2
:1007E80001200AF047FC7B7C002B2AD17B69032B74
:1007F80020D80BF09BFE03461C467B690133194643
:10080800022000F0B9F90346B4FBF3F203FB02F34C
:10081800E31A5A1C13469B0013449B007B607B68B9
:100828000093564B0122002101200AF023FC78682E
:1008380000F06BFF7B6901337B617B69042BA0D9D6
:1008480000E000BF7B7C002B1AD0484BDB6848488F
:100858009847464BDB6D984703463233184600F0FD
:1008680054FF424B9B6A404A1288D2B211463B4819
:100878009847434B0122002101200AF0FBFBC0E00E
:1008880040480BF03FF9002000F084FB384B009300
:100898003D4B0122002101200AF0ECFBB1E0304B76
:1008A8001B8801339AB22E4B1A80304BDB683048D4
:1008B80098472E4B5B6B4FF4FA609847334B0122F5
:1008C800002101200AF0D6FB9BE0284BDB6A984701
:1008D8002F480BF017F9012000F05CFB2D4B01228B
:1008E800002101200AF0C6FB0023FB810CE0FB89F4
:1008F8001A4AD35C0093284B0022002101200AF0F9
:10090800B9FBFB890133FB81174B1B88FA899A4293
:10091800EDD3224B93F900301A46214B93F900305E
:10092800019300921F4B0022002101200AF0A2FB34
:100938000A4B1B78412B63D1084B5B78432B5FD163
:10094800064B9B784B2B5BD1064B1B8801339AB225
:10095800044B1A8054E000BF020000202406002047
:10096800AC000020AE00002000000020C0C9000834
:1009780000A1BC33E4C6000800C7000820C700086F
:1009880054C70008E40000205CC700087CC70008C2
:10099800CC00002084C7000890C70008B0000020E1
:1009A800B100002098C70008184BDB6A9847184B1D
:1009B8000122002101200AF05DFB22E0134BDB6AD3
:1009C800984714480BF09EF8002000F0E3FA124B09
:1009D8000122002101200AF04DFB12E00B4BDB6ADB
:1009E80098470C480BF08EF8002000F0D3FA0B4B18
:1009F8000122002101200AF03DFB02E000BF00E0D7
:100A080000BF00BF1C37BD4690BD00BFC0C900086D
:100A1800B4C70008E4000020C4C70008D0C7000815
:100A280080B500AF044B05221A70002101200AF09E
:100A380043FF00BF80BD00BF0200002080B584B026
:100A480000AFF860084611461A4603467B810B46FC
:100A58003B811346FB710E4A7B8913800C4B1B8824
:100A68001A46F9680B480BF029FD3B895AB20A4B24
:100A78001A700A4AFB791370094B00221A70002178
:100A880001200AF019FF00BF1037BD4680BD00BF26
:100A98000000002024060020B0000020B100002043
:100AA8000200002080B500AF044B06221A70002116
:100AB80001200AF001FF00BF80BD00BF0200002036
:100AC80080B500AF044B01221A70002101200AF002
:100AD800F3FE00BF80BD00BF0200002080B500AF5C
:100AE800044B02221A70002101200AF0E5FE00BF23
:100AF80080BD00BF0200002080B582B000AF7860E2
:100B0800022000F061FA00BF0837BD4680BD80B5FD
:100B180082B000AF7860012000F056FA00BF0837B5
:100B2800BD4680BD80B582B000AF7860002000F07F
:100B38004BFA00BF0837BD4680BD000080B582B0C3
:100B480000AF7860094B03221A7009480AF0DAFFEF
:100B580008480AF0D7FF022000F01CFA0021012003
:100B68000AF0AAFE00BF0837BD4680BD020000207B
:100B7800FC000020B400002080B485B000AF78608D
:100B880039600123FB6007E0FB687A6802FB03F326
:100B9800FB603B68013B3B603B68002BF4D1FB6882
:100BA80018461437BD4680BC704780B485B000AF86
:100BB80078604FF0B0431A6E4FF0B0417B68134332
:100BC8000B664FF0B0431A6E7B681340FB60FB68FE
:100BD80000BF1437BD4680BC704780B483B000AFF7
:100BE80078604FF0B0431A6E7B68DB434FF0B0413A
:100BF80013400B6600BF0C37BD4680BC7047000031
:100C080080B500AF234B244A1A60224B4FF00042B4
:100C18005A60204B00229A601E4B0022DA601D4B5E
:100C280000221A611B4B04225A611A4B00221A76C1
:100C3800184B00225A76174B00229A76154B012240
:100C4800DA61144B002283F82020124B00225A62EA
:100C5800104B00229A620F4B002283F82C200D4B78
:100C68004FF480521A630B4B07225A63094B072231
:100C78009A63084B002283F83C20064B0022DA6472
:100C8800044801F0DFFC0346002B01D000F056FABF
:100C980000BF80BD640600200024014080B582B0FA
:100CA80000AF78607B681B68054A934203D14FF414
:100CB8000070FFF77AFF00BF0837BD4680BD00BF50
:100CC8000024014080B582B000AF78607B681B6863
:100CD800054A934203D14FF40070FFF77EFF00BF2F
:100CE8000837BD4680BD00BF0024014080B400AF76
:100CF800034B044A1A6000BFBD4680BC704700BF62
:100D0800640600200024014080B586B002AF0023AD
:100D1800FB810023BB6000F071F80346FB8030487C
:100D280000F0A0F8B8602F4B1A882F4B1B889A4206
:100D380026D02C4B1A882C4B1B889A421CD0FB8837
:100D4800BA6802FB03F39B08284AA2FB03235B094A
:100D58001A46254B1B88D31A642202FB03F2214B47
:100D68001B881946204B1B88CB1A92FBF3F39BB2C6
:100D78001E339BB21BB201E047F6FF73FB811CE0F8
:100D8800FB88BA6802FB03F2194BA3FB0213D21AC1
:100D980052081344DB0A4FF47A7202FB03F3A3F5FB
:100DA8003923A3F50C63134A82FB03129212DB1753
:100DB800D31A9BB21E339BB2FB81B7F90E30009356
:100DC8000D4B0122002101200AF054F9B7F90E3029
:100DD8001B02FB81B7F90E3018461037BD4680BD9F
:100DE800001000B0C875FF1FA875FF1F9F00EE090F
:100DF80001011000AD8BDB68E0C7000880B582B048
:100E080000AF0023FB8000233B60134800F02AF862
:100E180038603B68002B02D10023FB8016E00F4BA3
:100E28001B884FF6FF7293420BD00C4B1B881A4657
:100E380040F6E44303FB02F23B68B2FBF3F3FB80AA
:100E480004E0074A3B68B2FBF3F3FB80FB881846D3
:100E58000837BD4680BD00BF002000B4AA75FF1F3B
:100E6800D8084C0080B586B000AF786000237B615D
:100E780007F1080300221A605A609A60FFF7C0FE63
:100E88001A4802F0A4F90346002B01D000F056F9E5
:100E98007B68BB600023FB6000233B6107F108030C
:100EA8001946124801F022FF0346002B01D000F03A
:100EB80045F90E4801F006FE0346002B01D000F06C
:100EC8003DF94FF0FF31094801F074FE074801F081
:100ED8003FFE064801F0FEFE7861044801F076FD09
:100EE8007B6918461837BD4680BD00BF64060020E0
:100EF80080B485B000AF78604FF0B043DA6C4FF043
:100F0800B0417B681343CB644FF0B043DA6C7B6825
:100F18001340FB60FB6800BF1437BD4680BC7047B8
:100F280080B588B000AF0346FB7107F10C030022BF
:100F38001A605A609A60DA601A610220FFF7D8FFD7
:100F4800FB79124A32F81330FB6001233B6100231E
:100F58007B610223BB61FB790D4A52F8233007F10C
:100F68000C021146184602F0D3FEFB79084A52F8E3
:100F78002300FB79054A32F813300022194603F0A2
:100F8800F1F8002318462037BD4680BD98C80008F0
:100F98000400002080B582B000AF0346FB71FB79E6
:100FA800074A52F82300FB79064A32F81330012227
:100FB800194603F0D7F8002318460837BD4680BD08
:100FC8000400002098C8000880B582B000AF03462E
:100FD800FB71FB79074A52F82300FB79064A32F87D
:100FE80013300022194603F0BDF8002318460837CD
:100FF800BD4680BD0400002098C8000880B485B0B4
:1010080000AF78604FF0B0439A6C4FF0B0417B6806
:1010180013438B644FF0B0439A6C7B681340FB60BA
:10102800FB6800BF1437BD4680BC704780B500AF71
:101038000420FFF7E3FF0120FFF7E0FF0022022171
:101048000F2002F016FA0F2002F02DFA00BF80BD23
:1010580080B483B000AF78604FF0B043D3F89030DD
:1010680023F018024FF0B0417B681343C1F8903069
:1010780000BF0C37BD4680BC704780B500AF01F09B
:1010880017F900F005F8FFF7FBF9FFF701FAFCE79D
:1010980080B59AB000AF07F1200348220021184616
:1010A8000BF017FA3B1D00221A605A609A60DA604A
:1010B8001A615A619A610020FFF7CAFF1E4B1B682C
:1010C80023F4C0631C4A43F4007313601A4B1B6873
:1010D80003F4C0633B603B6824233B628123FB62CB
:1010E80001233B6400237B64B023BB640023FB64BF
:1010F80007F12003184603F0C1FB0346002B01D07B
:1011080000F01CF84F237B600023BB600023FB60CA
:1011180000233B6100237B610023FB613B1D02210F
:10112800184603F045FF0346002B01D000F006F8EF
:1011380000BF6837BD4680BD0004005880B400AFCA
:10114800FEE780B400AF4FF0B043D3F890304FF0D3
:10115800B04243F40043C2F8903000BFBD4680BCA3
:10116800704780B485B000AF78604FF0B0439A6D97
:101178004FF0B0417B6813438B654FF0B0439A6DD5
:101188007B681340FB60FB6800BF1437BD4680BC1A
:101198007047000080B58CB000AF3B1D2C220021A9
:1011A80018460BF096F9224B224A1A60204B1F2250
:1011B8009A601F4B00221A611D4B00225A611C4B7A
:1011C80000229A611A4B4FF08042DA61184B0022D4
:1011D8001A62174B4FF480725A62154804F0C6FB26
:1011E8000346002B01D0FFF7A9FF114804F0A0FE29
:1011F8000346002B01D0FFF7A1FF00233B62002329
:10120800BB600023BB614FF00053FB614FF4807358
:10121800FB623B1D01221946054804F021FC0346E8
:10122800002B01D0FFF78AFF00BF3037BD4680BDD5
:10123800C80600200028004080B590B000AF786054
:1012480007F108033822002118460BF042F97B68A1
:101258001B68164A934225D14FF48033BB604FF484
:101268008073FB6307F10803184604F065FA034628
:10127800002B01D0FFF762FFFFF763FF4FF4806098
:10128800FFF76FFF00220021022002F0F2F802208F
:1012980002F009F9002200212A2002F0EAF82A20A7
:1012A80002F001F900BF4037BD4680BD002800406C
:1012B80080B400AF034B0122C3F8882000BFBD46AD
:1012C80080BC70470004005880B400AF00BFBD4622
:1012D80080BC704780B400AF00BFBD4680BC70477B
:1012E80080B500AF01F016F8FFF7E2FF012002F029
:1012F800E3FF00BF80BD80B500AF01F019F800F032
:1013080069FE00BF80BD80B500AF01F003F8012180
:10131800002002F04DFF00BF80BD80B500AF01F096
:1013280007F800BF80BD80B400AF00BFBD4680BCD9
:10133800704780B400AF00BFBD4680BC704780B422
:1013480000AFFEE780B400AFFEE780B400AFFEE771
:1013580080B400AFFEE780B400AF00BFBD4680BCDC
:10136800704780B400AF00BFBD4680BC704780B4F2
:1013780000AF00BFBD4680BC704780B500AF00F02D
:10138800B7FF00BF80BD000080B500AF024804F081
:101398000BFE00BF80BD00BFC806002080B500AFAF
:1013A800024802F017FB00BF80BD00BF0C070020F9
:1013B80080B500AF024805F011FC00BF80BD00BF3A
:1013C8006C07002080B500AF024804F09DFC00BF08
:1013D80080BD00BFC806002080B500AF024805F0F8
:1013E8004BF900BF80BD00BF0007002080B485B066
:1013F80000AF78604FF0B0435A6E4FF0B0417B6851
:1014080013434B664FF0B0435A6E7B681340FB6042
:10141800FB6800BF1437BD4680BC704780B500AF7D
:10142800064B08221A60054804F0AAFE0346002B62
:1014380001D0FFF783FE00BF80BD00BF000700207A
:1014480080B582B000AF78600120FFF7CFFF00229F
:101458000021322002F00DF8322002F024F800BFFB
:101468000837BD4680BD80B483B000AF78604FF0C8
:10147800B0439B6823F400424FF0B0417B681343AC
:101488008B6000BF0C37BD4680BC704780B485B008
:1014980000AF78604FF0B043DA6C4FF0B0417B6832
:1014A8001343CB644FF0B043DA6C7B681340FB60A6
:1014B800FB6800BF1437BD4680BC704780B483B05A
:1014C80000AF78604FF0B043DA6C7B68DB434FF0D5
:1014D800B0411340CB6400BF0C37BD4680BC704799
:1014E80080B500AF0020FFF7BEFF0AF0C5FA00F094
:1014F80089F800F02EF909F0A1FD084809F03CFE32
:10150800022009F047FEFFF7F1FB0AF01BF8012162
:1015180001200AF055F800BF80BD00BFCD150008B6
:1015280080B500AF0AF07AF800BF80BD80B584B0FE
:1015380002AF0023FB71FFF761FC0346BB80BB8849
:1015480040F6B832934202D9FE23FB7114E0BB88FF
:10155800B3F5E16F02D20023FB710DE0BB88A3F560
:10156800E1631A461346DB019B1A5B001A46094BD6
:10157800A3FB0223DB09FB71FB790093064B0122D5
:101588000021022009F076FDFB7918460837BD4690
:1015980080BD00BFB5814E1BECC7000880B582B086
:1015A80000AF0023FB80FFF7AFFB0346002B00DAF8
:1015B800FF331B121BB2FB80FB8818460837BD4659
:1015C80080BD000080B586B002AF7860396007F151
:1015D800080318460AF018FABB68B7F90C200092FD
:1015E800074A1021786800F069F87868FEF7C0FDAE
:1015F80003469AB23B681A8000BF1037BD4680BDCB
:10160800F8C7000880B586B000AF3B1D00221A60FD
:101618005A609A60DA601A610120FFF737FF0220EA
:10162800FFF734FF0420FFF731FF8020FFF72EFF7C
:101638000323BB600023FB6049F6FF737B603B1DFF
:1016480019464FF0904002F063FB4FF6FF737B6042
:101658003B1D19460E4802F05BFB3B1D19460D4821
:1016680002F056FB3B1D19460B4802F051FB0120C6
:10167800FFF724FF0220FFF721FF0420FFF71EFFDA
:101688008020FFF71BFF00BF1837BD4680BD00BF95
:101698000004004800080048001C004880B500AF5E
:1016A8000121022009F05EFF00BF80BD80B500AFB8
:1016B8000021022009F056FF00BF80BD0CB480B5A0
:1016C80084B000AF7860396007F11C03FB603968AB
:1016D800FB68BA6978680AF071FD00BF1037BD462B
:1016E800BDE8804002B0704780B483B000AF786036
:1016F800002318460C37BD4680BC704780B500AF44
:1017080000F036F90346184680BD80B582B000AFB8
:1017180078607B68184600F096F900BF0837BD4628
:1017280080BD80B485B000AF78604FF0B043DA6C0C
:101738004FF0B0417B681343CB644FF0B043DA6C91
:101748007B681340FB60FB6800BF1437BD4680BC54
:10175800704780B586B000AF3B1D00221A605A6002
:101768009A60DA601A610323BB600023FB604FF4C0
:10177800C0437B600120FFF7D4FF3B1D19464FF0A3
:10178800904002F0C5FA00F0E1FD00F0E5FD00F040
:10179800E9FD00BF1837BD4680BD000080B586B0A2
:1017A80000AF7860144A154BD31A7B617B693B61A3
:1017B800134B1B68002B02D1114B124A1A60104BB5
:1017C8001A687B6813443A699A4207D20AF04CFEB9
:1017D80002460C2313604FF0FF3309E0084B1B68E7
:1017E800FB60074B1A687B681344054A1360FB6863
:1017F80018461837BD4680BD00800020000800004C
:10180800300100209008002080B483B000AF7860D9
:101818007B689B6818460C37BD4680BC7047000043
:1018280080B582B000AF0023FB71144B1B7883F0A6
:101838000103DBB2002B1BD0114B4FF0FF321A63B0
:10184800FFF7A8FC00F056F84FF480710C4804F03C
:1018580005FA0B4B4FF0FF321A63094804F036FBC8
:10186800002000F0A3F900F05FF8044B01221A7081
:10187800FB7918460837BD4680BD00BF34010020FB
:10188800C806002080B58EB000AF7860002387F8C6
:10189800373007F108032C22002118460AF019FEF8
:1018A80000F028F8114B1B687A6813447B6000230A
:1018B8007B627B68DB43FB600023FB614FF00053D6
:1018C8003B624FF480733B6307F10803012219461A
:1018D800074804F0C5F80346002B01D0FFF72EFC9B
:1018E80097F8373018463837BD4680BD3801002094
:1018F800C806002080B582B000AF0023FB71084BFA
:101908000122DA654FF48071064804F0A7F9054B07
:101918004FF0FF321A63FB7918460837BD4680BD81
:1019280000280040C806002080B500AF00F05EF92E
:101938000246034B1A60024B1B68184680BD00BF65
:101948003801002080B400AF024B1B681846BD4622
:1019580080BC70473801002080B500AF00F046F920
:101968000246024B1B68D31A184680BD3801002076
:1019780080B500AF054B1B78002B03D000F036F97B
:10198800034600E00023184680BD00BF3401002054
:1019980080B400AF03231846BD4680BC7047F0B53D
:1019A80083B000AF78607B684FF000049E0D9D0205
:1019B8004FF47A724FF0000328463146FEF7E0FBF9
:1019C80003460C4618460C37BD46F0BDF0B482B04D
:1019D80000AF78607B681D464FF000062B46344602
:1019E8004FF000014FF00002620142EAD362590150
:1019F8000B4614465B1B64EB06044FF000014FF0E6
:101A08000002A20042EA937299000B4614465B1941
:101A180044EB06044FF000014FF00002E20042EAF6
:101A28005372D9000B461446194622464FF000035C
:101A38004FF000048B0A43EA8253940A1846083789
:101A4800BD46F0BC704780B584B000AF7860786858
:101A5800FFF7A5FFF86000F0C9F8B86000E000BF24
:101A680000F0C4F80246BB68D31AFA689A42F6D85E
:101A780000BF1037BD4680BD80B582B000AF78602A
:101A88000AF046F900BF0837BD4680BD80B584B06E
:101A980000AF786000F09AF8F860FB6801331846E8
:101AA80000F084F800BF1037BD4680BD2DE990488E
:101AB80088B000AF786000F099F8F86100F086F817
:101AC800B861BB6919464FF000024FF0000B4FF0A8
:101AD800000C8C464FF0000BFA6911464FF00002DB
:101AE8001BEB01034CEB0204C7E90434D7E90412E9
:101AF8004FF000034FF000048B0A43EA8253940A24
:101B0800FB603B699B464FF0000C40F2FF314FF001
:101B180000020BEA01030CEA0204C7E904343B693A
:101B28001846FFF753FF03469AB27B681A80FB6892
:101B380018462037BD46BDE89088000080B582B0C1
:101B480000AF78607A680021034804F051FA00BFBA
:101B58000837BD4680BD00BFC806002080B582B0EA
:101B680000AF78607A680121034804F041FA00BFA9
:101B78000837BD4680BD00BFC806002080B500AF4D
:101B88000021034804F04CFA0346184680BD00BF04
:101B9800C806002080B500AF0121034804F040FAD0
:101BA8000346184680BD00BFC806002080B582B035
:101BB80000AF78607A680221034804F019FA00BF80
:101BC8000837BD4680BD00BFC806002080B582B07A
:101BD80000AF0221044804F023FA78607B681846B5
:101BE8000837BD4680BD00BFC806002080B500AFDD
:101BF8000348FFF709FE0346DB43184680BD00BFD4
:101C08000028004080B485B000AF78604FF0B04342
:101C1800DA6C4FF0B0417B681343CB644FF0B043AC
:101C2800DA6C7B681340FB60FB6800BF1437BD4665
:101C380080BC704780B485B000AF78604FF0B04387
:101C48009A6D4FF0B0417B6813438B654FF0B043FA
:101C58009A6D7B681340FB60FB6800BF1437BD4674
:101C680080BC704780B483B000AF78604FF0B04359
:101C78009A6D7B68DB434FF0B04113408B6500BF22
:101C88000C37BD4680BC704780B500AF224B234A55
:101C98001A60214B4FF4E1325A601F4B00229A60C0
:101CA8001D4B0022DA601C4B00221A611A4B0C22D1
:101CB8005A61194B00229A61174B0022DA61164BC0
:101CC80000221A62144B00225A62134B00229A62B5
:101CD800114804F084FE0346002B01D0FFF72EFACA
:101CE80000210D4806F0EAFA0346002B01D0FFF761
:101CF80025FA0021084806F01FFB0346002B01D0F7
:101D0800FFF71CFA044806F09EFA0346002B01D0A0
:101D1800FFF714FA00BF80BD6C07002000440040A4
:101D280080B596B000AF786007F1440300221A60CE
:101D38005A609A60DA601A6107F10C0338220021B0
:101D480018460AF0C6FB7B681B68334A93425FD18A
:101D58000223FB60314B7B6107F10C03184603F04B
:101D6800EBFC0346002B01D0FFF7E8F94FF40030F5
:101D7800FFF760FF0120FFF745FF0C237B64022378
:101D8800BB640023FB6403233B6507237B6507F1E2
:101D9800440319464FF0904001F0BAFF204B214A06
:101DA8001A601F4B14225A601D4B10229A601C4B5C
:101DB8000022DA601A4B80221A61194B00225A61FC
:101DC800174B00229A61164B0022DA61144B00224D
:101DD8001A62134801F084FB0346002B01D0FFF779
:101DE800ADF910210E4801F0BBFE0346002B01D0CF
:101DF800FFF7A4F97B680A4A9A67094A7B689362E5
:101E080000220221252001F034FB252001F04BFBA4
:101E180000BF5837BD4680BD0044004004000C0098
:101E28000C0700205800024080B582B000AF7860EF
:101E38007B681B680B4A934210D14FF40030FFF7C0
:101E480011FF0C214FF0904002F0C0F87B689B6FA7
:101E5800184601F0EDFB252001F033FB00BF0837E1
:101E6800BD4680BD0044004080B483B000AF7860B8
:101E78004FF0B0439A6B4FF0B0417B6813438B63CC
:101E880000BF0C37BD4680BC704780B483B000AF3C
:101E980078604FF0B0439A6B7B68DB434FF0B041FA
:101EA80013408B6300BF0C37BD4680BC70470000F1
:101EB80080B483B000AF7860064BD3F88020054922
:101EC8007B681343C1F8803000BF0C37BD4680BC27
:101ED800704700BF0008005880B582B000AF786036
:101EE800074A7B681360FFF7A1F8FFF7CDFE4FF0B4
:101EF8000060FFF7DDFF002318460837BD4680BDA8
:101F08003C01002080B500AF4FF40030FFF7ACFF74
:101F18004FF40030FFF7B9FF0448FFF785FF0F20A3
:101F280001F0CFFA0023184680BD00BF6C070020DF
:101F380080B582B000AF78600B467B807B881A46FC
:101F48007968044804F0CAFD002318460837BD46DE
:101F580080BD00BF6C07002080B584B000AF7860FA
:101F6800194A7B6813604FF40013BB6007F108033C
:101F780093E80600154806F0EAF800BF134B1B6803
:101F8800DB6903F48033B3F5803FF7D000BF0F4B14
:101F98001B68DB6903F48003B3F5800FF7D10B4BA3
:101FA8001B689A68094B1B6842F480029A600748CC
:101FB80006F028F901220649044804F060FD0023D0
:101FC80018461037BD4680BD400100206C07002030
:101FD800FC07002080B500AF084804F000FD034668
:101FE800002B01D0FFF7AAF8054801F079FA03465B
:101FF800002B01D0FFF7A2F800BF80BD6C070020BE
:102008000C07002080B582B000AF7860034B1B68D6
:102018000020984700BF0837BD4680BD3C0100201E
:1020280080B582B000AF78600B4B1B68002B0AD0DC
:102038007B68D3F88C30002B05D1074B1B68002236
:1020480001210648984701220449786804F017FDE1
:1020580000BF0837BD4680BD40010020FC070020B6
:102068000D48854600F0F4F80C480D490D4A002348
:1020780002E0D458C4500433C4188C42F9D30A4A35
:102088000A4C002301E013600432A242FBD30AF099
:10209800F1F9FEF7F2FFFEE70080002000000020C3
:1020A8009000002018CB0008900000209008002025
:1020B800FEE780B485B000AF78604FF0B043DA6CCB
:1020C8004FF0B0417B681343CB644FF0B043DA6CF8
:1020D8007B681340FB60FB6800BF1437BD4680BCBB
:1020E8007047000080B586B000AF3B1D00221A6023
:1020F8005A609A60DA601A610420FFF7DAFF102349
:102108007B600123BB600023FB6003233B613B1D15
:102118001946124801F0FCFD20237B603B1D19463F
:102128000E4801F0F5FD08237B603B1D19460B485E
:1021380001F0EEFD00222021084802F013F80022E9
:102148001021064802F00EF800220821034802F088
:1021580009F8002318461837BD4680BD0008004816
:1021680080B582B000AF0346FB71FB79032B4BD8D7
:1021780001A252F823F000BF91210008B121000804
:10218800D1210008F121000800220821214801F08E
:10219800E9FF002210211F4801F0E4FF002220215E
:1021A8001C4801F0DFFF30E001220821194801F046
:1021B800D9FF01221021174801F0D4FF0022202165
:1021C800144801F0CFFF20E001220821114801F056
:1021D800C9FF012210210F4801F0C4FF012220216C
:1021E8000C4801F0BFFF10E001220821094801F066
:1021F800B9FF00221021074801F0B4FF0122202175
:10220800044801F0AFFF00E000BF0023184608377C
:10221800BD4680BD0008004880B400AF00231846C2
:10222800BD4680BC704780B400AF0A231846BD463F
:1022380080BC704780B400AF01231846BD4680BCFF
:10224800704780B400AF00231846BD4680BC704775
:1022580080B400AF00BFBD4680BC704780B400AFFB
:10226800044B5B68034A23F00103536000BFBD467B
:1022780080BC7047002004E080B400AF044B5B686A
:10228800034A23F00203536000BFBD4680BC704779
:10229800002004E080B400AF044B5B68034A23F0DD
:1022A8000403536000BFBD4680BC7047002004E0B3
:1022B80080B582B000AF0023FB71032001F0CEF897
:1022C80003F058F80246094B1A600F20FFF70CFA82
:1022D8000346002B02D00123FB7101E0FFF723F82E
:1022E800FB7918460837BD4680BD00BF10000020A6
:1022F80080B400AF054B1B781A46054B1B68134486
:10230800034A136000BFBD4680BC70471800002018
:102318000008002080B400AF044B1B68034A23F078
:102328000203136000BFBD4680BC704710E000E0A8
:1023380080B400AF044B1B68034A43F002031360E8
:1023480000BFBD4680BC704710E000E080B500AF1C
:10235800FFF784FF00BF80BD80B500AFFFF78CFF9B
:1023680000BF80BD80B500AFFFF794FF00BF80BD00
:1023780080B483B000AF786039607B681B6823F055
:10238800E0723B681A437B681A6000BF0C37BD4691
:1023980080BC704780B483B000AF78607B681B68EE
:1023A80003F0E07318460C37BD4680BC704780B414
:1023B80085B000AFF860B9607A60FB685A69BB689D
:1023C80003F00403072101FA03F3DB431A40BB6857
:1023D80003F00403796801FA03F31A43FB685A61AE
:1023E80000BF1437BD4680BC704780B483B000AFCF
:1023F80078607B68DB6803F44063002B01D101231C
:1024080000E0002318460C37BD4680BC704780B4F6
:1024180085B000AFF860B9607A60FB689A6ABB68FB
:1024280003F01F030F2101FA03F3DB431A407B6813
:102438009B0E03F00F01BB6803F01F0301FA03F3BF
:102448001A43FB689A6200BF1437BD4680BC7047C8
:1024580080B483B000AF786039607B689A6A3B6863
:10246800C3F311031A437B689A6200BF0C37BD4659
:1024780080BC704780B483B000AF786039607B68F7
:102488009A6A3B68C3F31103DB431A407B689A627C
:1024980000BF0C37BD4680BC704780B485B000AF24
:1024A800F860B9607A60FB685A69BB681B02DB4355
:1024B8001A40BB6819027B680B4023F07C4323F069
:1024C800FF031A43FB685A6100BF1437BD4680BC3E
:1024D800704780B483B000AF78607B689B6823F056
:1024E800104323F0170343F080527B689A6000BFC3
:1024F8000C37BD4680BC704780B483B000AF7860AD
:102508007B689B6823F0104323F017037A68936075
:1025180000BF0C37BD4680BC704780B483B000AFA5
:1025280078607B689B6803F08053B3F1805F01D1CA
:10253800012300E0002318460C37BD4680BC7047D5
:1025480080B483B000AF78607B689B6823F0004359
:1025580023F0170343F001027B689A6000BF0C3731
:10256800BD4680BC704780B483B000AF78607B689C
:102578009B6823F0004323F0170343F002027B68B3
:102588009A6000BF0C37BD4680BC704780B483B0EA
:1025980000AF78607B689B6803F00103012B01D1D1
:1025A800012300E0002318460C37BD4680BC704765
:1025B80080B483B000AF78607B689B6803F0020347
:1025C800022B01D1012300E0002318460C37BD4639
:1025D80080BC704780B483B000AF78607B689B682C
:1025E80023F0004323F0170343F004027B689A604A
:1025F80000BF0C37BD4680BC704780B483B000AFC5
:1026080078607B689B6823F0004323F0170343F04E
:1026180010027B689A6000BF0C37BD4680BC7047CB
:1026280080B483B000AF78607B689B6803F00403D4
:10263800042B01D1012300E0002318460C37BD46C6
:1026480080BC704780B588B000AF78600023FB7706
:102658000023BB6100237B610023BB607B68002BE8
:1026680001D10123ABE17B681B69002B7B689B6D63
:10267800002B09D17868FEF711FB7B680022DA6528
:102688007B68002283F854207B681B681846FFF794
:1026980044FF0346002B14D17B681B681846FFF7DC
:1026A80018FF9F4B1B689B099E4AA2FB03239B09AB
:1026B8005B00BB6002E0BB68013BBB60BB68002BF2
:1026C800F9D17B681B681846FFF727FF0346002BE4
:1026D8000DD17B689B6D43F010027B689A657B681F
:1026E800DB6D43F001027B68DA650123FB777B68C9
:1026F8001B681846FFF794FFF8607B689B6D03F032
:102708001003002B40F05281FB68002B40F04E81F3
:102718007B689B6D23F4817343F002027B689A65A2
:102728007B681B681846FFF731FF0346002B4AD128
:102738007B681B68DB6823F018017B689A687B68F4
:102748001B680A43DA607B685B6803F040427B6879
:102758001B6C1A437B685B6C1A437B689B6C1A433F
:102768007B68DB6C13437A6913437B617B6893F85E
:102778003C30012B03D17B6943F001037B617B680B
:102788001B681A69684B13407A68126879690B43A9
:1027980013617B685B68B3F1404F14D07B685B685A
:1027A800B3F1804F0FD07B685B68B3F1004F0AD05C
:1027B8005E4B1B6823F470127B685B6803F470132C
:1027C8005A4913430B607B681B7E9A037B685B7EC8
:1027D800DB031A437B689B7E5B0313437A68126BA7
:1027E800002A02D04FF4805200E000221A437B688E
:1027F800DB681A437B681B69002B04DA7B681B695A
:1028080023F0004301E04FF400131A437B6893F868
:102818002C305B001343BA691343BB617B6893F8A0
:102828002030012B14D17B689B7E002B04D1BB691F
:1028380043F48033BB610BE07B689B6D43F020025F
:102848007B689A657B68DB6D43F001027B68DA651B
:102858007B685B6A002B09D07B685B6A03F4E072D3
:102868007B689B6A1343BA691343BB617B681B6827
:10287800DB6823F4FE3323F4F3737A681268B969CA
:102888000B43D3607B681B681A69294B13407A682D
:10289800126879690B4313617B6818687B685B6B06
:1028A8001A460021FFF783FD7B6818687B689B6BDD
:1028B8001A462049FFF77BFD7B681B69002B08D16E
:1028C8007B681B689A6A7B681B6862F00F029A62D1
:1028D80047E07B681B69B3F5001F42D100233B61C9
:1028E8000CE07B681A6E3B699B0022FA03F303F045
:1028F8000F030F2B06D03B6901333B613B69072B64
:10290800EFD900E000BF3B69012B15D17B681B683C
:102918009A6A7B681B6862F00F029A6221E000BF26
:1029280010000020632D3E0502FCFF1F0827014010
:1029380002FCFFDF04FFFF037B681B689B6A7B6860
:10294800DB6903F18043013B9B0003F01C036FF03C
:102958000F0202FA03F17B681A6E7B681B680A4350
:102968009A627B681B68DA68174B1340BA699A4207
:102978000BD17B680022DA657B689B6D23F003032B
:1029880043F001027B689A6518E07B689B6D23F031
:10299800120343F010027B689A657B68DB6D43F095
:1029A80001027B68DA650123FB7707E07B689B6D92
:1029B80043F010027B689A650123FB77FB7F18467A
:1029C8002037BD4680BD00BFE7FF3F8380B584B098
:1029D80000AF78607B68002B01D101236AE07B6837
:1029E8009B6D43F002027B689A65786800F0B6FA3E
:1029F8000346FB73FB7B002B0FD1786800F06AFB62
:102A08000346FB73FB7B002B02D17B6801229A658E
:102A18007B681B681846FFF76FFD7B681B685B685F
:102A28007A68126823F4677323F0030353607B68A2
:102A38001B6840F29F321A607B681B68D9687B6804
:102A48001A681E4B0B40D3607B681B681A697B6849
:102A58001B6822F040421A617B681B685A697B68D0
:102A68001B6822F007025A617B681B681A6A7B6838
:102A78001B6802F0F0221A627B681B689B6A7B68FD
:102A88001B6800229A620E4B1B680D4A23F0FE73E6
:102A980013607868FEF716F97B6800221A667B686F
:102AA8000022DA657B6800229A657B68002283F839
:102AB8005420FB7B18461037BD4680BD00023E837C
:102AC8000827014080B584B000AF78607B681B6838
:102AD8001846FFF7A5FD0346002B32D17B6893F813
:102AE8005430012B01D102232EE07B68012283F8A8
:102AF8005420786800F070FA0346FB73FB7B002BC8
:102B08001AD17B689B6D23F4706323F0010343F4AF
:102B180080727B689A657B680022DA657B681B682F
:102B28001C221A607B68002283F854207B681B688B
:102B38001846FFF74FFD06E07B68002283F8542013
:102B480001E00223FB73FB7B18461037BD4680BDAE
:102B580080B584B000AF78607B6893F85430012B5F
:102B680001D1022322E07B68012283F8542078688F
:102B780000F0F4F90346FB73FB7B002B11D1786856
:102B880000F0A8FA0346FB73FB7B002B09D17B6896
:102B98009B6D23F4807323F0010343F001027B68EB
:102BA8009A657B68002283F85420FB7B184610370F
:102BB800BD4680BD80B584B000AF786039607B6861
:102BC8005B69082B02D10823FB6010E07B681B6857
:102BD800DB6803F00103002B07D07B689B6D43F093
:102BE80020027B689A65012370E00423FB60FEF7EE
:102BF80085FDB8601AE03B68B3F1FF3F16D0FEF7D9
:102C08007DFD0246BB68D31A3A689A4202D33B68F4
:102C1800002B0BD17B689B6D43F004027B689A659F
:102C28007B68002283F8542003234FE07B681B68ED
:102C38001A68FB681340002BDDD07B689B6D43F45A
:102C480000727B689A657B681B681846FFF7CDFBA6
:102C58000346002B31D07B689B7E002B2DD17B68EF
:102C68001B681B6803F00803082B26D17B681B68C8
:102C78001846FFF7D5FC0346002B12D17B681B686A
:102C88005A687B681B6822F00C025A607B689B6D4F
:102C980023F4807323F0010343F001027B689A65F3
:102CA8000BE07B689B6D43F020027B689A657B682C
:102CB800DB6D43F001027B68DA657B681B7E002BC5
:102CC80003D17B681B680C221A6000231846103752
:102CD800BD4680BD80B483B000AF78607B681B6858
:102CE8001B6C18460C37BD4680BC704780B588B051
:102CF80000AF786039600023FB770023BB607B68F6
:102D08001B69B3F1004F7B6893F85430012B01D154
:102D1800022310E17B68012283F854207B681B683A
:102D28001846FFF77DFC0346002B40F0F7803B6810
:102D38005B68022B00F0B1807B681B69B3F1004F20
:102D480004D07B681B697E4A934208D17B681A6865
:102D58003B681B6819461046FFF77AFB41E07B6821
:102D68001A6E3B685B6803F01F030F2101FA03F337
:102D7800DB431A403B681B68C3F31103002B05D1E2
:102D88003B681B689B0E03F01F0311E03B681B6840
:102D98003B613B6993FAA3F3FB60FB687B617B694A
:102DA800002B01D1202303E07B69B3FA83F3DBB264
:102DB8003968496801F01F018B401A437B681A661D
:102DC8003B685B689B085A1C7B68DB699A4208D899
:102DD8007B6818683B6859683B681B681A46FFF7A8
:102DE80016FB7B6818683B6819683B689B681A463D
:102DF800FFF753FB3B681B68002B80F29780514814
:102E0800FFF7C8FAB8613B681B684F4A934220D164
:102E1800BB6903F40003002B1BD1BB6943F4000317
:102E280019464848FFF7A4FA484B1B689B09484ACB
:102E3800A2FB03239A0913465B0013449B0001334A
:102E4800BB6002E0BB68013BBB60BB68002BF9D1EB
:102E58006CE03B681B683F4A93420CD1BB6903F0A6
:102E68008073002B07D1BB6943F08073194635483E
:102E7800FFF77EFA5AE03B681B68374A934255D100
:102E8800BB6903F48003002B50D1BB6943F4800372
:102E980019462C48FFF76CFA48E07B681B69B3F1C8
:102EA800004F04D07B681B69254A934207D17B6891
:102EB8001A683B681B6819461046FFF7DBFA3B683F
:102EC8001B68002B32DA1F48FFF764FAB8613B68C9
:102ED8001B681D4A934207D1BB6923F400031946B6
:102EE8001848FFF745FA21E03B681B68194A9342E6
:102EF80007D1BB6923F0807319461248FFF738FAE7
:102F080014E03B681B68144A93420FD1BB6923F451
:102F1800800319460B48FFF72BFA07E07B689B6D87
:102F280043F020027B689A650123FB777B680022C7
:102F380083F85420FB7F18462037BD4680BD00BF6C
:102F48000400008008270140001000B01000002095
:102F5800632D3E05004000B8002000B480B584B061
:102F680000AF78607B681B681846FFF759FB03467B
:102F7800002B2CD07B681B681846FFF719FB03460B
:102F8800002B04D17B681B681846FFF736FBFEF759
:102F9800B5FBF86014E0FEF7B1FB0246FB68D31AF4
:102FA800022B0DD97B689B6D43F010027B689A65F4
:102FB8007B68DB6D43F001027B68DA65012307E07B
:102FC8007B681B689B6803F00403002BE3D1002394
:102FD80018461037BD4680BD80B584B000AF786014
:102FE8000023BB607B681B681846FFF7CFFA0346CF
:102FF800002B62D17B681B689A68324B1340002B08
:103008000DD07B689B6D43F010027B689A657B68E6
:10301800DB6D43F001027B68DA6501234EE07B68D3
:103028001B681846FFF78CFA2748FFF7B3F90346E1
:1030380003F40003002B0FD0244B1B689B09244A80
:10304800A2FB03239B090133BB6002E0BB68013B81
:10305800BB60BB68002BF9D17B685B7E012B2CD051
:10306800FEF74CFBF86021E07B681B681846FFF709
:103078008DFA0346002B04D17B681B681846FFF7BE
:103088005FFAFEF73BFB0246FB68D31A022B0DD909
:103098007B689B6D43F010027B689A657B68DB6DEB
:1030A80043F001027B68DA65012307E07B681B684F
:1030B8001B6803F00103012BD6D1002318461037F3
:1030C800BD4680BD17000080082701401000002081
:1030D800632D3E0580B584B000AF78607B681B68BF
:1030E8001846FFF765FAF8607B681B681846FFF713
:1030F8004DFA0346002B40D0FB68002B3DD17B687E
:103108001B689B6803F00503012B0CD17B681B68C7
:103118001846FFF728FA7B681B6803221A60FEF737
:10312800EDFAB86022E07B689B6D43F010027B6883
:103138009A657B68DB6D43F001027B68DA650123E1
:103148001CE0FEF7DBFA0246BB68D31A022B0DD946
:103158007B689B6D43F010027B689A657B68DB6D2A
:1031680043F001027B68DA65012307E07B681B688E
:103178009B6803F00103002BE3D1002318461037A6
:10318800BD4680BD80B483B000AF78607B689B6823
:1031980003F00103012B01D1012300E000231846AD
:1031A8000C37BD4680BC704780B483B000AF7860F0
:1031B8007B689B6803F00043B3F1004F01D1012302
:1031C80000E0002318460C37BD4680BC704780B528
:1031D80086B000AF78600023FB607B6893F85430BA
:1031E800012B01D1022368E07B68012283F8542077
:1031F8007868FFF76FFF0346FB757B681B68184606
:10320800FFF7C0FF0346002B4CD17B689B6D23F46E
:10321800817343F002027B689A657B681B68DB68F0
:1032280003F003033B617B681B68DA687B681B68F3
:1032380022F00302DA607B681B689A687B681B6867
:1032480042F000429A6014E0FB680133FB60FB68BF
:10325800B3F52E3F0DD37B689B6D23F0120343F02B
:1032680010027B689A657B68002283F8542001234A
:1032780023E07B681B681846FFF796FF0346002B80
:10328800E2D17B681B68D9687B681B683A690A4386
:10329800DA607B689B6D23F0030343F001027B68CF
:1032A8009A6505E07B689B6D43F010027B689A6520
:1032B8007B68002283F85420FB7D18461837BD46EA
:1032C80080BD000080B485B000AF78607B6803F0F3
:1032D8000703FB600C4BDB68BB60BA684FF6FF0363
:1032E8001340BB60FB681A02BB68134343F0BF631B
:1032F80043F40033BB60044ABB68D36000BF143793
:10330800BD4680BC704700BF00ED00E080B400AF50
:10331800044BDB681B0A03F007031846BD4680BC54
:10332800704700BF00ED00E080B483B000AF0346F3
:10333800FB7197F90730002B0BDBFB7903F01F02B9
:10334800064997F907305B09012000FA02F241F8B3
:10335800232000BF0C37BD4680BC704700E100E069
:1033680080B483B000AF0346FB7197F90730002B98
:1033780010DBFB7903F01F02094997F907305B0955
:10338800012000FA02F2203341F82320BFF34F8FC7
:10339800BFF36F8F00BF0C37BD4680BC704700BFBE
:1033A80000E100E080B483B000AF03463960FB71F0
:1033B80097F90730002B0ADB3B68DAB20C4997F91A
:1033C80007301201D2B20B4483F800230AE03B68AD
:1033D800DAB20849FB7903F00F03043B1201D2B2B9
:1033E8000B441A7600BF0C37BD4680BC704700BF3F
:1033F80000E100E000ED00E080B489B000AFF860C3
:10340800B9607A60FB6803F00703FB61FB69C3F1ED
:103418000703042B28BF0423BB61FB690433062B75
:1034280002D9FB69033B00E000237B614FF0FF32C8
:10343800BB6902FA03F3DA43BB681A407B699A4016
:103448004FF0FF317B6901FA03F3D9437B680B40E6
:10345800134318462437BD4680BC704780B582B0F8
:1034680000AF78607868FFF72DFF00BF0837BD46CA
:1034780080BD80B586B000AF0346B9607A60FB7343
:10348800FFF744FF78617A68B9687869FFF7B4FF95
:10349800024697F90F3011461846FFF783FF00BF21
:1034A8001837BD4680BD80B582B000AF0346FB71BA
:1034B80097F907301846FFF737FF00BF0837BD46B2
:1034C80080BD80B582B000AF0346FB7197F9073025
:1034D8001846FFF745FF00BF0837BD4680BD00000E
:1034E80080B582B000AF78607B68002B01D10123E2
:1034F8008EE07B681B681A46474B9A420FD87B6858
:103508001B681A46454B1344454AA2FB03231B0973
:103518009A007B685A647B68424A1A640EE07B68AA
:103528001B681A46404B13443D4AA2FB03231B0960
:103538009A007B685A647B683C4A1A647B6802225A
:1035480083F825207B681B681B687A68126823F457
:10355800FF4323F0700313607B681B6819687B685E
:103568009A687B68DB681A437B681B691A437B6827
:103578005B691A437B689B691A437B68DB691A435A
:103588007B681B6A1A437B681B680A431A60786861
:1035980000F052FB7B689B68B3F5804F02D17B68D3
:1035A80000225A607B685A687B689B6C02F07F0235
:1035B8001A607B68DB6C7A68126D5A607B685B689E
:1035C800002B10D07B685B68042B0CD8786800F05F
:1035D8007BFB7B685B6D00221A607B689B6D7A6859
:1035E800D26D5A6008E07B6800225A657B68002229
:1035F8009A657B680022DA657B680022DA637B685B
:10360800012283F825207B68002283F824200023E8
:1036180018460837BD4680BD07040240F8FFFDBFC5
:10362800CDCCCCCC00000240F8FBFDBF000402402A
:1036380080B582B000AF78607B68002B01D1012390
:103648007BE07B681B681A687B681B6822F00102B4
:103658001A607B681B681A463A4B9A420FD87B68F7
:103668001B681A46384B1344384AA2FB03231B092C
:103678009A007B685A647B68354A1A640EE07B6856
:103688001B681A46334B1344304AA2FB03231B0919
:103698009A007B685A647B682F4A1A647B681B68A7
:1036A80000221A607B685B6C03F01C027B681B6C51
:1036B800012101FA02F25A60786800F0BDFA7B68CD
:1036C8009B6C00221A607B68DB6C7A68126D5A600A
:1036D8007B685B68002B0FD07B685B68042B0BD87A
:1036E800786800F0F1FA7B685B6D00221A607B68ED
:1036F8009B6D7A68D26D5A607B6800225A657B6838
:1037080000229A657B680022DA657B680022DA620B
:103718007B6800221A637B6800225A637B68002258
:103728009A637B680022DA637B68002283F825208D
:103738007B68002283F82420002318460837BD46FA
:1037480080BD00BF07040240F8FFFDBFCDCCCCCC44
:1037580000000240F8FBFDBF0004024080B586B0BF
:1037680000AFF860B9607A603B600023FB75FB68C6
:1037780093F82430012B01D1022369E0FB68012270
:1037880083F82420FB6893F82530DBB2012B55D150
:10379800FB68022283F82520FB680022DA63FB68B5
:1037A8001B681A68FB681B6822F001021A603B68F4
:1037B8007A68B968F86800F002FAFB681B6B002B9E
:1037C80008D0FB681B681A68FB681B6842F00E0289
:1037D8001A600FE0FB681B681A68FB681B6822F018
:1037E80004021A60FB681B681A68FB681B6842F0D1
:1037F8000A021A60FB689B6C1B6803F48033002B79
:1038080007D0FB689B6C1A68FB689B6C42F480725B
:103818001A60FB685B6D002B07D0FB685B6D1A684C
:10382800FB685B6D42F480721A60FB681B681A685B
:10383800FB681B6842F001021A6008E0FB688022FE
:10384800DA63FB68002283F824200123FB75FB7DE3
:1038580018461837BD4680BD80B483B000AF786085
:103868007B68002B01D101234FE07B6893F825305A
:10387800DBB2022B08D07B680422DA637B68002263
:1038880083F82420012340E07B681B681A687B6862
:103898001B6822F00E021A607B689B6C1A687B68B2
:1038A8009B6C22F480721A607B681B681A687B68BC
:1038B8001B6822F001021A607B685B6C03F01C0233
:1038C8007B681B6C012101FA02F25A607B68DB6C91
:1038D8007A68126D5A607B685B6D002B0CD07B6830
:1038E8005B6D1A687B685B6D22F480721A607B6876
:1038F8009B6D7A68D26D5A607B68012283F8252017
:103908007B68002283F82420002318460C37BD4624
:1039180080BC704780B584B000AF78600023FB732B
:103928007B6893F82530DBB2022B05D07B68042234
:10393800DA630123FB7347E07B681B681A687B68BE
:103948001B6822F00E021A607B681B681A687B6885
:103958001B6822F001021A607B689B6C1A687B68FE
:103968009B6C22F480721A607B685B6C03F01C020B
:103978007B681B6C012101FA02F25A607B68DB6CE0
:103988007A68126D5A607B685B6D002B0CD07B687F
:103998005B6D1A687B685B6D22F480721A607B68C5
:1039A8009B6D7A68D26D5A607B68012283F8252066
:1039B8007B68002283F824207B689B6B002B03D054
:1039C8007B689B6B78689847FB7B18461037BD4629
:1039D80080BD000080B584B000AF78607B681B6C48
:1039E8001B68FB607B681B681B68BB607B685B6C43
:1039F80003F01C0304229A40FB681340002B27D0D5
:103A0800BB6803F00403002B22D07B681B681B688B
:103A180003F02003002B07D17B681B681A687B68BA
:103A28001B6822F004021A607B685B6C03F01C02BE
:103A38007B681B6C042101FA02F25A607B681B6BDD
:103A4800002B00F081807B681B6B786898477BE0CF
:103A58007B685B6C03F01C0302229A40FB681340EE
:103A6800002B3DD0BB6803F00203002B38D07B68E5
:103A78001B681B6803F02003002B0BD17B681B68B5
:103A88001A687B681B6822F00A021A607B680122A8
:103A980083F825207B681B681A462E4B9A4209D961
:103AA8007B685B6C03F01C032B4A022101FA03F3C9
:103AB800536008E07B685B6C03F01C03274A022113
:103AC80001FA03F353607B68002283F824207B68A3
:103AD800DB6A002B38D07B68DB6A7868984733E06C
:103AE8007B685B6C03F01C0308229A40FB68134058
:103AF800002B2AD0BB6803F00803002B25D07B6875
:103B08001B681A687B681B6822F00E021A607B68C3
:103B18005B6C03F01C027B681B6C012101FA02F24A
:103B28005A607B680122DA637B68012283F82520CA
:103B38007B68002283F824207B685B6B002B04D011
:103B48007B685B6B7868984700BF00BF1037BD463D
:103B580080BD00BF80000240000402400000024017
:103B680080B485B000AF786039600023FB727B6851
:103B7800002B03D10123FB72FB7A1BE07B681B68D7
:103B88001B68FB603B6803F01003002B0DD03B68FB
:103B980003F48013002B04D0FB6843F48013FB600C
:103BA80003E0FB6823F48013FB607B681B68FA68FA
:103BB8001A60FB7A18461437BD4680BC704780B43B
:103BC80085B000AFF860B9607A603B60FB68DB6C79
:103BD800FA68126D5A60FB685B6D002B04D0FB68B5
:103BE8009B6DFA68D26D5A60FB685B6C03F01C022F
:103BF800FB681B6C012101FA02F25A60FB681B6822
:103C08003A685A60FB689B68102B08D1FB681B68F0
:103C18007A689A60FB681B68BA68DA6007E0FB6834
:103C28001B68BA689A60FB681B687A68DA6000BF2C
:103C38001437BD4680BC704780B485B000AF78604B
:103C48007B681B681A461C4B9A4213D87B685B6CCE
:103C58009B089B0003F1804303F502337A68936461
:103C68007B681B68DBB2083B144AA2FB03231B09D1
:103C7800FB6011E07B685B6C9B089A00104B134457
:103C88007A6893647B681B68DBB2083B0B4AA2FB2B
:103C980003231B090733FB607B680A4ADA64FB6865
:103CA80003F01F0301229A407B681A6500BF14378E
:103CB800BD4680BC704700BF07040240CDCCCCCCC9
:103CC8001C0802408008024080B485B000AF7860CC
:103CD8007B685B6803F07F03FB60FA680A4B134458
:103CE8009B001A467B685A657B68084A9A65FB6898
:103CF800013B03F0030301229A407B68DA6500BFA9
:103D08001437BD4680BC70473F820010400902400E
:103D180080B487B000AF7860396000237B6140E1F0
:103D28003B681A6801217B6901FA03F31340FB60C1
:103D3800FB68002B00F032813B685B68012B0BD0DD
:103D48003B685B68022B07D03B685B68112B03D08C
:103D58003B685B68122B30D17B689B683B617B6951
:103D68005B00032202FA03F3DB433A6913403B6129
:103D78003B68DA687B695B0002FA03F33A6913432C
:103D88003B617B683A699A607B685B683B610122AA
:103D98007B6902FA03F3DB433A6913403B613B68F2
:103DA8005B681B0903F001027B6902FA03F33A69B5
:103DB80013433B617B683A695A607B68DB683B6107
:103DC8007B695B00032202FA03F3DB433A69134081
:103DD8003B613B689A687B695B0002FA03F33A69C6
:103DE80013433B617B683A69DA603B685B68022B86
:103DF80003D03B685B68122B23D17B69DA087B68A8
:103E0800083253F822303B617B6903F007039B00BB
:103E18000F2202FA03F3DB433A6913403B613B6824
:103E28001A697B6903F007039B0002FA03F33A69F6
:103E380013433B617B69DA087B680832396943F8C8
:103E480022107B681B683B617B695B00032202FAD6
:103E580003F3DB433A6913403B613B685B6803F05B
:103E680003027B695B0002FA03F33A6913433B617F
:103E78007B683A691A603B685B6803F08053002BE3
:103E880000F08C804D4A7B699B08023352F823303E
:103E98003B617B6903F003039B00072202FA03F3EB
:103EA800DB433A6913403B617B68B3F1904F0DD017
:103EB8007B68434A934207D07B68424A934201D1C8
:103EC800022304E0072302E0012300E000237A69CB
:103ED80002F00302920093403A6913433B61374969
:103EE8007B699B0802333A6941F82320364BD3F8A3
:103EF80080303B61FB68DB433A6913403B613B68B8
:103F08005B6803F48033002B03D03A69FB681343E2
:103F18003B612D4A3B69C2F880302B4BD3F8843083
:103F28003B61FB68DB433A6913403B613B685B6874
:103F380003F40033002B03D03A69FB6813433B6159
:103F4800214A3B69C2F884301F4B1B683B61FB6800
:103F5800DB433A6913403B613B685B6803F48013B9
:103F6800002B03D03A69FB6813433B61164A3B694F
:103F78001360154B5B683B61FB68DB433A69134090
:103F88003B613B685B6803F40013002B03D03A697C
:103F9800FB6813433B610C4A3B6953607B690133FF
:103FA8007B613B681A687B6922FA03F3002B7FF474
:103FB800B7AE00BF1C37BD4680BC7047000001404B
:103FC80000040048000800480008005880B487B082
:103FD80000AF7860396000237B61AFE001227B6924
:103FE80002FA03F33A6813403B613B69002B00F087
:103FF800A280584A7B699B08023352F82330FB6041
:104008007B6903F003039B00072202FA03F3FA68B3
:104018001340FB607B68B3F1904F0DD07B684E4A2C
:10402800934207D07B684D4A934201D1022304E0B2
:10403800072302E0012300E000237A6902F003026B
:1040480092009340FA689A4236D1454BD3F88020C3
:104058003B69DB4342491340C1F88030404BD3F8F9
:1040680084203B69DB433E491340C1F884303C4B14
:104078001A683B69DB433A4913400B60384B5A686E
:104088003B69DB43364913404B607B6903F003030C
:104098009B00072202FA03F3FB602E4A7B699B0808
:1040A800023352F82310FB68DA432A487B699B08DD
:1040B8000A40023340F823207B681A687B695B005A
:1040C800032101FA03F31A437B681A607B69DA0853
:1040D8007B68083253F822107B6903F007039B00C2
:1040E8000F2202FA03F3DB437A69D20819407B688E
:1040F800083243F822107B689A687B695B000321C9
:1041080001FA03F3DB431A407B689A607B685A68BC
:1041180001217B6901FA03F3DB431A407B685A608B
:104128007B68DA687B695B00032101FA03F3DB43F0
:104138001A407B68DA607B6901337B613A687B6986
:1041480022FA03F3002B7FF449AF00BF1C37BD46AA
:1041580080BC704700000140000400480008004887
:104168000008005880B483B000AF78600B467B80AD
:1041780013467B707B78002B03D07A887B689A6122
:1041880002E07A887B689A6200BF0C37BD4680BC23
:104198007047000080B400AF044B1B68034A43F427
:1041A8008073136000BFBD4680BC70470004005890
:1041B80080B582B000AF78600B46FB707B68002B3F
:1041C8000CD1134B5B6903F40073B3F5007F0DD179
:1041D80000F03CF80346002B08D015E00C4B5B6957
:1041E80003F40073002B01D100F022F8094B1B697E
:1041F800084A23F004031361FB78012B01D130BF77
:1042080002E040BF20BF20BF0837BD4680BD00BFC9
:104218000004005800ED00E080B400AF034B1B68B9
:1042280003F4C0631846BD4680BC704700040058BC
:1042380080B400AF044B1B68034A43F48043136007
:1042480000BFBD4680BC70470004005880B483B0EE
:1042580000AF164B1B68154A23F480431360144BB8
:104268001B68322202FB03F3124AA2FB03239B0CB6
:104278007B6002E07B68013B7B600C4B5B6903F46D
:104288000073B3F5007F02D17B68002BF2D1074B96
:104298005B6903F40073B3F5007F01D1032300E0E9
:1042A800002318460C37BD4680BC704700040058F0
:1042B8001000002083DE1B4380B483B000AF0346A8
:1042C800FB71104B1B6823F007030E4A43F00203EF
:1042D80013600D4B1B690C4A43F004031361FB790F
:1042E800012B01D130BF02E040BF20BF20BF064BE9
:1042F8001B69054A23F00403136100BF0C37BD4650
:1043080080BC70470004005800ED00E080B400AFA6
:10431800064B1B6803F48073B3F5807F01D101233A
:1043280000E000231846BD4680BC704700040058D2
:1043380080B400AF4FF0B0431B684FF0B04243F475
:104348000013136000BFBD4680BC704780B400AF47
:104358004FF0B0431B684FF0B04223F400131360D2
:1043680000BFBD4680BC704780B400AF4FF0B0437B
:104378001B6803F48013B3F5801F01D1012300E00B
:1043880000231846BD4680BC704780B400AF4FF08C
:10439800B0431B684FF0B04243F48033136000BF52
:1043A800BD4680BC704780B400AF4FF0B0431B6877
:1043B8004FF0B04223F48033136000BFBD4680BC89
:1043C800704780B400AF4FF0B0431B6803F400336C
:1043D800B3F5003F01D1012300E000231846BD4694
:1043E80080BC704780B400AF4FF0B0431B684FF0FB
:1043F800B04243F48073136000BFBD4680BC704771
:1044080080B400AF4FF0B0431B684FF0B04223F4C4
:104418008073136000BFBD4680BC704780B400AF96
:104428004FF0B0431B6803F48063B3F5806F01D18C
:10443800012300E000231846BD4680BC704780B4C5
:1044480083B000AF78604FF0B0435B6823F0FE4262
:104458007B681B064FF0B04113434B6000BF0C371D
:10446800BD4680BC704780B400AF4FF0B043D3F86E
:10447800903003F00203022B01D1012300E0002356
:104488001846BD4680BC704780B400AF4FF0B043BB
:10449800D3F894304FF0B04243F00103C2F894309F
:1044A80000BFBD4680BC704780B400AF4FF0B0433A
:1044B800D3F894304FF0B04223F00103C2F894309F
:1044C80000BFBD4680BC704780B400AF4FF0B0431A
:1044D800D3F8943003F00203022B01D1012300E04A
:1044E80000231846BD4680BC704780B400AF4FF02B
:1044F800B0431B684FF0B04243F00103136000BFA4
:10450800BD4680BC704780B400AF4FF0B0431B6815
:104518004FF0B04223F00103136000BFBD4680BCDA
:10452800704780B400AF4FF0B0431B6803F002033C
:10453800022B01D1012300E000231846BD4680BCB0
:10454800704780B400AF4FF0B0431B6803F0080316
:10455800082B01D1012300E000231846BD4680BC8A
:10456800704780B400AF4FF0B0431B6803F0F0030E
:104578001846BD4680BC704780B400AF4FF0B043CA
:10458800D3F8943003F470631846BD4680BC704776
:1045980080B483B000AF78604FF0B0435B6823F419
:1045A8007F427B681B024FF0B04113434B6000BF52
:1045B8000C37BD4680BC704780B483B000AF7860CC
:1045C8004FF0B0439B6823F003024FF0B0417B6883
:1045D80013438B6000BF0C37BD4680BC704780B466
:1045E80000AF4FF0B0439B6803F00C031846BD467C
:1045F80080BC704780B483B000AF78604FF0B043A0
:104608009B6823F0F0024FF0B0417B6813438B6046
:1046180000BF0C37BD4680BC704780B483B000AF84
:1046280078604FF0B043D3F8083123F0F0024FF030
:10463800B0417B681343C1F8083100BF0C37BD4651
:1046480080BC704780B483B000AF78604FF0B0434F
:10465800D3F8083123F00F027B681B094FF0B041F3
:104668001343C1F8083100BF0C37BD4680BC704702
:1046780080B483B000AF78604FF0B0439B6823F4F8
:10468800E0624FF0B0417B6813438B6000BF0C378A
:10469800BD4680BC704780B483B000AF78604FF0EF
:1046A800B0439B6823F460524FF0B0417B681343DA
:1046B8008B6000BF0C37BD4680BC704780B400AF2C
:1046C8004FF0B0439B6803F0F0031846BD4680BC2A
:1046D800704780B400AF4FF0B043D3F808311B01E6
:1046E80003F0F0031846BD4680BC704780B400AFA5
:1046F8004FF0B0439B6803F4E0631846BD4680BCA6
:10470800704780B400AF4FF0B0439B6803F4605328
:104718001846BD4680BC704780B400AF4FF0B04328
:104728001B684FF0B04243F08073136000BFBD4672
:1047380080BC704780B400AF4FF0B0431B684FF0A7
:10474800B04223F08073136000BFBD4680BC704741
:1047580080B400AF4FF0B0431B6803F00073B3F1AF
:10476800007F01D1012300E000231846BD4680BC2C
:10477800704780B400AF4FF0B043DB681B0A03F00A
:104788007F031846BD4680BC704780B400AF4FF029
:10479800B043DB6803F060431846BD4680BC7047F1
:1047A80080B400AF4FF0B043DB6803F070031846E5
:1047B800BD4680BC704780B400AF4FF0B043DB68A3
:1047C80003F003031846BD4680BC704780B400AFB1
:1047D8004FF0B0439B6803F48033B3F5803F01D1B9
:1047E800012300E000231846BD4680BC704780B412
:1047F80000AF4FF0B043D3F8083103F40033B3F5FA
:10480800003F01D1012300E000231846BD4680BCCB
:10481800704780B400AF4FF0B043D3F8083103F4C9
:104828008033B3F5803F01D1012300E0002318460F
:10483800BD4680BC704780B400AF4FF0B0439B6862
:1048480003F40033B3F5003F01D1012300E0002356
:104858001846BD4680BC704780B400AF4FF0B043E7
:104868009B6803F48023B3F5802F01D1012300E076
:1048780000231846BD4680BC7047000080B588B04C
:1048880000AF78607B68002B01D101238AE3FFF732
:10489800A6FEF861FFF78FFFB8617B681B6803F01D
:1048A8002003002B00F0C980FB69002B05D0FB69B1
:1048B8000C2B7BD1BB69012B78D1FFF732FE034665
:1048C800002B05D07B681B6A002B01D1012369E30B
:1048D8007B689A6A4FF0B0431B6803F00803002B0B
:1048E80005D04FF0B0431B6803F0F00306E04FF02B
:1048F800B043D3F894301B0903F0F003934222D25B
:104908007B689B6A184600F06DFD0346002B01D0BA
:10491800012347E34FF0B0431B684FF0B04243F028
:10492800080313604FF0B0431B6823F0F0027B6864
:104938009B6A4FF0B04113430B607B685B6A184673
:10494800FFF726FE21E04FF0B0431B684FF0B0425E
:1049580043F0080313604FF0B0431B6823F0F002E4
:104968007B689B6A4FF0B04113430B607B685B6ABE
:104978001846FFF70DFE7B689B6A184600F032FD6B
:104988000346002B01D001230CE300F0F3FC0246A0
:10499800B44B1A60B44B1B681846FCF7A5FE0346D7
:1049A800FB74FB7C002B47D0FB7CFBE27B681B6A1B
:1049B800002B2CD0FFF799FDFCF7A0FE786108E0EA
:1049C800FCF79CFE02467B69D31A022B01D903230C
:1049D800E8E2FFF7A6FD0346002BF1D04FF0B04305
:1049E8001B684FF0B04243F0080313604FF0B04328
:1049F8001B6823F0F0027B689B6A4FF0B0411343B9
:104A08000B607B685B6A1846FFF7C2FD15E0FFF78D
:104A18007AFDFCF773FE786108E0FCF76FFE02464A
:104A28007B69D31A022B01D90323BBE2FFF779FD77
:104A38000346002BF1D100E000BF7B681B6803F040
:104A48000103002B5FD0FB69082B05D0FB690C2BF9
:104A58000DD1BB69032B0AD1FFF7B3FC0346002B2A
:104A680050D07B685B68002B4CD101239AE24FF051
:104A7800B0431B6823F480127B689B684FF0B041F9
:104A880013430B607B685B68B3F5803F02D1FFF787
:104A98007CFC0DE07B685B68B3F5041F04D1FFF76D
:104AA80047FCFFF772FC03E0FFF77DFCFFF74EFCC5
:104AB8007B685B68002B12D0FCF720FE786108E069
:104AC800FCF71CFE02467B69D31A642B01D9032329
:104AD80068E2FFF776FC0346002BF1D013E0FCF701
:104AE8000DFE786108E0FCF709FE02467B69D31ADF
:104AF800642B01D9032355E2FFF763FC0346002B1F
:104B0800F1D100E000BF7B681B6803F00203002BB3
:104B18004BD0FB69042B05D0FB690C2B13D1BB6967
:104B2800022B10D1FFF77AFC0346002B05D07B68D7
:104B38001B69002B01D1012334E27B685B691846AD
:104B4800FFF77DFC31E07B681B69002B19D0FFF76C
:104B580049FCFCF7D3FD786108E0FCF7CFFD02467D
:104B68007B69D31A022B01D903231BE2FFF756FCFA
:104B78000346002BF1D07B685B691846FFF75FFCA2
:104B880013E0FFF73DFCFCF7B9FD786108E0FCF79E
:104B9800B5FD02467B69D31A022B01D9032301E232
:104BA800FFF73CFC0346002BF1D17B681B6803F040
:104BB8000803002B6ED07B689B69002B56D04FF002
:104BC800B043D3F89430FB607B68DA69FB6803F084
:104BD80010039A4231D0FB6803F00203002B06D081
:104BE800FB6803F00103002B01D10123DAE1FB6824
:104BF80003F00103002B13D0FFF756FCFCF77EFDF2
:104C0800786108E0FCF77AFD02467B69D31A112B1C
:104C180001D90323C6E1FFF757FC0346002BF1D166
:104C28004FF0B043D3F8943023F010027B68DB696F
:104C38004FF0B0411343C1F89430FFF725FCFCF75F
:104C48005DFD786108E0FCF759FD02467B69D31ADF
:104C5800112B01D90323A5E1FFF736FC0346002BEE
:104C6800F1D017E01000002014000020FFF71CFC12
:104C7800FCF744FD786108E0FCF740FD02467B69DB
:104C8800D31A112B01D903238CE1FFF71DFC03462E
:104C9800002BF1D17B681B6803F00403002B00F0A4
:104CA800D880FFF733FB0346002B13D1FFF772FAC6
:104CB800FCF724FD786108E0FCF720FD02467B69DB
:104CC800D31A022B01D903236CE1FFF71FFB03461C
:104CD800002BF1D07B68DB68002B7BD07B68DB681E
:104CE800852B03D07B68DB68052B09D14FF0B043D7
:104CF800D3F890304FF0B04243F00403C2F890303C
:104D0800FCF7FCFC78614FF0B043D3F890304FF0DB
:104D1800B04243F00103C2F890300AE0FCF7EEFC21
:104D280002467B69D31A41F28832934201D90323A0
:104D380038E1FFF798FB0346002BEFD07B68DB6870
:104D4800812B03D07B68DB68852B21D1FCF7D6FC4F
:104D580078614FF0B043D3F890304FF0B04243F051
:104D68008003C2F890300AE0FCF7C8FC02467B6971
:104D7800D31A41F28832934201D9032312E14FF04A
:104D8800B043D3F8903003F40063002BECD060E01C
:104D9800FCF7B4FC78614FF0B043D3F890304FF093
:104DA800B04223F08003C2F890300AE0FCF7A6FC7A
:104DB80002467B69D31A41F28832934201D9032310
:104DC800F0E04FF0B043D3F8903003F40063002BC9
:104DD800ECD13EE0FCF792FC78614FF0B043D3F899
:104DE80090304FF0B04223F08003C2F890300AE0D0
:104DF800FCF784FC02467B69D31A41F2883293425D
:104E080001D90323CEE04FF0B043D3F8903003F438
:104E18000063002BECD1FCF771FC78614FF0B043D4
:104E2800D3F890304FF0B04223F00103C2F890302D
:104E38000AE0FCF763FC02467B69D31A41F2883228
:104E4800934201D90323ADE0FFF70DFB0346002B86
:104E5800EFD17B68DB6A002B00F0A380FB690C2B89
:104E680076D07B68DB6A022B4BD1FFF763FCFCF73B
:104E780045FC786108E0FCF741FC02467B69D31ADF
:104E88000A2B01D903238DE0FFF762FC0346002BB0
:104E9800F1D14FF0B043DA68444B13407A68116B94
:104EA8007A68526B11437A68926B120211437A68DE
:104EB800D26B11437A68126C11437A68526C0A43B8
:104EC8004FF0B0411343CB60FFF726FC4FF0B043DF
:104ED800DB684FF0B04243F08053D360FCF70EFC20
:104EE800786108E0FCF70AFC02467B69D31A0A2BB2
:104EF80001D9032356E0FFF72BFC0346002BF1D022
:104F08004FE0FFF717FC4FF0B043DB684FF0B042BB
:104F180023F00303D3604FF0B043DB684FF0B04297
:104F280023F0885323F48033D360FCF7E7FB7861E0
:104F380008E0FCF7E3FB02467B69D31A0A2B01D988
:104F480003232FE0FFF704FC0346002BF1D128E0F0
:104F58007B68DB6A012B01D1012323E04FF0B043CA
:104F6800DB68BB61BB6903F003027B681B6B9A4279
:104F780015D1BB6903F070027B685B6B9A420ED156
:104F8800BB6903F4FE427B689B6B1B029A4206D105
:104F9800BB6903F060427B685B6C9A4201D00123D5
:104FA80000E0002318462037BD4680BD8C80C11123
:104FB80080B584B000AF786039607B68002B01D180
:104FC80001232CE1984B1B6803F007033A689A42C7
:104FD8001BD9954B1B6823F0070293493B68134381
:104FE8000B60FCF78BFBF86008E0FCF787FB0246D8
:104FF800FB68D31A022B01D9032310E18A4B1B68E3
:1050080003F007033A689A42EFD17B681B6803F004
:105018000203002B16D07B689B681846FFF7EAFA54
:10502800FCF76CFBF86008E0FCF768FB0246FB68DD
:10503800D31A022B01D90323F1E0FFF7C7FB03467C
:10504800002BF1D07B681B6803F02003002B16D0DF
:105058007B685B691846FFF7E0FAFCF74FFBF860DE
:1050680008E0FCF74BFB0246FB68D31A022B01D978
:105078000323D4E0FFF7BBFB0346002BF1D07B688A
:105088001B6803F04003002B16D07B689B69184609
:10509800FFF7D8FAFCF732FBF86008E0FCF72EFBC4
:1050A8000246FB68D31A022B01D90323B7E0FFF7A6
:1050B800B0FB0346002BF1D07B681B6803F00403A8
:1050C800002B16D07B68DB681846FFF7D1FAFCF78F
:1050D80015FBF86008E0FCF711FB0246FB68D31AE1
:1050E800022B01D903239AE0FFF7A5FB0346002B07
:1050F800F1D07B681B6803F00803002B17D07B688E
:105108001B69DB001846FFF7C6FAFCF7F7FAF860E8
:1051180008E0FCF7F3FA0246FB68D31A022B01D920
:1051280003237CE0FFF798FB0346002BF1D07B6854
:105138001B6803F00103002B43D07B685B68022BDC
:1051480006D1FFF73EF90346002B1ED1012366E086
:105158007B685B68032B06D1FFF7FAFA0346002B3E
:1051680013D101235BE07B685B68002B06D1FFF756
:10517800D8F90346002B08D1012350E0FFF74EF978
:105188000346002B01D1012349E07B685B68184680
:10519800FFF712FAFCF7B2FAF8600AE0FCF7AEFA89
:1051A8000246FB68D31A41F28832934201D903239D
:1051B80035E0FFF714FA02467B685B689B009A4269
:1051C800ECD1194B1B6803F007033A689A421BD2CB
:1051D800154B1B6823F0070213493B6813430B6008
:1051E800FCF78CFAF86008E0FCF788FA0246FB68DE
:1051F800D31A022B01D9032311E00B4B1B6803F0D0
:1052080007033A689A42EFD100F0B4F80246074B18
:105218001A60074B1B681846FCF766FA03461846DF
:105228001037BD4680BD00BF004000581000002068
:105238001400002090B587B000AF00237B610023E5
:105248003B61FFF7CCF9B860FFF7B5FA7860BB6847
:10525800002B05D0BB680C2B39D17B68012B36D1CC
:10526800FFF76FF90346002B15D1FFF76AF90346DC
:10527800012B06D1FFF775F903461B0A03F00F034C
:1052880005E0FFF779F903461B0A03F00F03364AD6
:1052980052F8233014E0FFF754F90346012B06D1E6
:1052A800FFF75FF903461B0903F00F0305E0FFF75B
:1052B80063F903461B0903F00F032B4A52F8233006
:1052C8003B61BB68002B15D13B697B6112E0BB6871
:1052D800042B02D1254B7B610CE0BB68082B09D15C
:1052E800FFF742F80346012B02D1204B7B6101E016
:1052F8001F4B7B61FFF773F903460C2B2ED1FFF789
:105308005AFA78607B68022B02D0032B03D00DE099
:10531800164BFB600DE0FFF727F80346012B02D17F
:10532800124BFB6005E0124BFB6002E03B69FB603F
:1053380000BFFFF71EFA0246FB6803FB02F4FFF703
:105348002FFA03461B090133B4FBF3F4FFF71DFAE8
:1053580003465B0F0133B4FBF3F37B617B691846AB
:105368001C37BD4690BD00BF68C900080024F40082
:105378000048E80198B500AFFFF75CFF0446FFF767
:105388009DF903461B0903F00F03034A52F8233023
:10539800B4FBF3F3184698BD08C9000898B500AFE8
:1053A800FFF7E8FF0446FFF7A1F903461B0A034A83
:1053B80052F8233024FA03F3184698BD48C9000868
:1053C80098B500AFFFF7D6FF0446FFF79AF90346F2
:1053D800DB0A034A52F8233024FA03F3184698BD2F
:1053E80048C9000890B585B000AF78607B681B0994
:1053F80003F00F03104A52F82330FB60FFF769F9F6
:1054080003461B0903F00F030C4A52F82330FA68CD
:10541800B2FBF3F3BB60BB68094AA2FB03239C0CF5
:10542800FEF7FAFE03461946204600F00BF803463D
:1054380018461437BD4690BD68C9000808C9000859
:1054480083DE1B4380B58EB000AF786039603C4A7C
:1054580007F1200392E80300186004331980394AE1
:1054680007F1180392E80300186004331980364ADC
:1054780007F10C0307CA83E8070000237B633B6836
:10548800B3F5007F1DD100233B6316E03B6B5B0047
:1054980007F13802134433F8183C1A467B689342E4
:1054A80008D83B6B9B0007F13802134453F82C3C97
:1054B8007B6323E03B6B01333B633B6B022BE5D9FA
:1054C8001CE00023FB6216E0FB6A5B0007F1380270
:1054D800134433F8203C1A467B68934208D8FB6A89
:1054E8009B0007F13802134453F82C3C7B6305E01A
:1054F800FB6A0133FB62FB6A022BE5D9134B1B687D
:1055080023F0070211497B6B13430B60FCF7F6F895
:10551800B86208E0FCF7F2F80246BB6AD31A022B1D
:1055280001D9032307E0094B1B6803F007037A6BD3
:105538009A42EFD1002318463837BD4680BD00BFD8
:1055480004C800080CC8000814C800080040005827
:1055580080B400AF4FF0B043D3F8903003F00203AB
:10556800022B01D1012300E000231846BD4680BC70
:10557800704780B483B000AF78604FF0B043D3F881
:1055880088207B681B0CDB431A407B689BB24FF07A
:10559800B0411343C1F8883000BF0C37BD4680BC0A
:1055A800704780B483B000AF78604FF0B043D3F851
:1055B800883023F440724FF0B0417B681343C1F840
:1055C800883000BF0C37BD4680BC704780B483B0BC
:1055D80000AF78604FF0B043D3F8883023F44062CE
:1055E8004FF0B0417B681343C1F8883000BF0C37D7
:1055F800BD4680BC704780B483B000AF78604FF080
:10560800B043D3F888207B681B0903F47F23DB436E
:105618001A407B681B0103F47F234FF0B04113430A
:10562800C1F8883000BF0C37BD4680BC704780B4D5
:1056380083B000AF78604FF0B043D3F888207B6820
:105648001B0C1B04DB431A407B681B044FF0B04162
:105658001343C1F8883000BF0C37BD4680BC704783
:1056680080B483B000AF78604FF0B043D3F888308F
:1056780023F040424FF0B0417B681343C1F88830B3
:1056880000BF0C37BD4680BC704780B483B000AF04
:1056980078604FF0B043D3F8883023F040524FF091
:1056A800B0417B681343C1F8883000BF0C37BD4652
:1056B80080BC704780B483B000AF78604FF0B043CF
:1056C800D3F8903023F440724FF0B0417B68134315
:1056D800C1F8903000BF0C37BD4680BC704780B41D
:1056E80000AF4FF0B043D3F8903003F4407318463E
:1056F800BD4680BC704780B400AF4FF0B043D3F8CC
:1057080090304FF0B04243F48033C2F8903000BF7D
:10571800BD4680BC704780B400AF4FF0B043D3F8AB
:1057280090304FF0B04223F48033C2F8903000BF7D
:10573800BD4680BC7047000080B586B000AF786079
:1057480000237B610023FB740023BB747B681B6808
:1057580003F48033002B58D0FEF71CFDFBF7CEFF77
:10576800F86009E0FBF7CAFF0246FB68D31A022B70
:1057780002D90323FB7406E07B4B1B6803F4807398
:10578800B3F5807FEED1FB7C002B3CD1FFF7A7FF60
:1057980002467B685B6B9A420FD04FF0B043D3F858
:1057A800903023F440737B61FFF7A5FFFFF7B3FF49
:1057B8004FF0B0427B69C2F890307B6903F0020376
:1057C800002B14D0FBF79AFFF8600BE0FBF796FF6D
:1057D8000246FB68D31A41F28832934202D9032366
:1057E800FB7404E0FFF7B4FE0346012BEED1FB7C0B
:1057F800002B05D17B685B6B1846FFF75BFF04E065
:10580800FB7CBB7401E0FB7CBB747B681B6803F00A
:105818000103002B04D07B685B681846FFF7A9FEDC
:105828007B681B6803F00203002B04D07B689B682D
:105838001846FFF79EFE7B681B6803F02003002BC9
:1058480004D07B681B691846FFF7C0FE7B681B689D
:1058580003F40073002B04D07B681B6A1846FFF71B
:10586800E6FE7B681B6803F48063002B04D07B682A
:105878005B6A1846FFF7DBFE7B681B6803F400636E
:10588800002B04D07B689B6A1846FFF7D0FE7B6824
:105898001B6803F04003002B04D07B685B69184643
:1058A800FFF7A9FE7B681B6803F08003002B04D078
:1058B8007B689B691846FFF79EFE7B681B6803F4AC
:1058C8008073002B04D07B68DB691846FFF793FED2
:1058D8007B681B6803F01003002B11D07B68DB6822
:1058E8001846FFF75EFE7B68DB68B3F5807F07D15B
:1058F8004FF0B043DB684FF0B04243F08073D360A1
:105908007B681B6803F40043002B10D07B681B6B7B
:105918001846FFF7A5FE7B681B6B002B07D14FF0DD
:10592800B043DB684FF0B04243F08073D3607B68CC
:105938001B6803F48043002B11D07B68DB6A184690
:10594800FFF7A3FE7B68DB6AB3F1005F07D14FF076
:10595800B043DB684FF0B04243F48033D360BB7C84
:1059680018461837BD4680BD0004005880B584B07D
:1059780000AF78600123FB737B68002B68D07B68DD
:1059880093F82D30DBB2002B06D17B68002283F818
:105998002C207868FBF750FC7B68022283F82D20C6
:1059A8002E4BCA225A622D4B53225A62786800F055
:1059B800FBF90346FB73FB7B002B3FD1274B9B690D
:1059C800264A23F08E6323F040039361234B9A69A0
:1059D8007B6859687B681B6919437B689B690B4323
:1059E8001E4913438B617B68DA687B689B681B04DC
:1059F8001A4913430B61194BDB6823F4F8527B688F
:105A0800596A7B689B6A0B4314491343CB607868D7
:105A180000F0FEF90346FB73FB7B002B0ED10F4B06
:105A28009B6923F060427B68196A7B68DB691943CC
:105A38007B685B690B43094913438B61074BFF2262
:105A48005A62FB7B002B03D17B68012283F82D204F
:105A5800FB7B18461037BD4680BD00BF00280040BC
:105A680090B587B000AFF860B9607A6000237B61B9
:105A7800FB6893F82C30012B01D10223E5E0FB6889
:105A8800012283F82C20FB68022283F82D20714B19
:105A9800DB6803F440733B613B69B3F5807F5CD0FE
:105AA8007B68002B36D16B4B9B6903F04003002BBE
:105AB80002D1BB680022DA70BB681B78184600F078
:105AC800E5F903461C04BB685B78184600F0DEF96C
