:020000040800F2
:10000000008000204D700008A3350008AF350008BF
:10001000B5350008BB350008C135000800000000F8
:10002000000000000000000000000000C7350008CC
:10003000D335000800000000DF350008EB3500086C
:100040009D7000089D700008F93500089D7000083B
:100050009D7000089D7000080D3600081B360008D2
:100060009D7000089D7000089D7000089D7000083C
:100070009D7000089D7000089D70000829360008DA
:100080009D7000089D7000089D7000089D7000081C
:100090009D7000089D7000089D7000089D7000080C
:1000A0009D7000089D7000089D7000089D700008FC
:1000B0009D7000089D7000089D7000089D700008EC
:1000C0009D7000089D7000089D7000089D700008DC
:1000D0009D7000083D3600089D70000851360008EC
:1000E0009D7000089D700008653600089D7000082E
:1000F0009D7000089D7000089D7000089D700008AC
:100100009D7000089D700008793600089D700008F9
:100110009D7000089D7000089D7000089D7000088B
:100120009D7000089D7000089D7000089D7000087B
:080130009D7000089D7000089D
:1001400010B5054C237833B9044B13B10448AFF311
:1001500000800123237010BD600200200000000019
:10016000F00E020808B5034B1BB103490348AFF377
:10017000008008BD0000000064020020F00E0208AC
:10018000F0B583B00400874D2878002801D01120F5
:10019000FEBD002C01D11320FEBD6E463B20307108
:1001A000684605F0ABF901000DD130793B2801D04C
:1001B0001220FEBD291D6C2005F0E4F869680029B5
:1001C00001D0020001D010217EE00800643001F06F
:1001D0003FF80700686803D005F0EEF83800FEBD70
:1001E0007178090232781143818400230221627BF5
:1001F000022A18D103228260AD4AC26003612269DB
:100200008262277E302287546069AA4A90426868D9
:1002100006D1FA225200C26203273122875402E03B
:10022000C362312281540122607B01280CD16868AD
:10023000A14F8760C36003613223C254F07800028B
:10024000B37818436B68988620686B68186060689C
:100250006B685860607B6B685626985568685830A4
:10026000A3680360237B012B01D1642303E0022BED
:1002700002D196239B008380237B0374A3683C26D2
:100280009B4FBB420ED1C6809A4B0381607B0428F2
:1002900000D12970607B012801D0022800D12A708A
:1002A0000020FEBD944FBB4204D10823C380FA2333
:1002B000DB00EAE7914FBB4202D1C6807C4BE4E70A
:1002C000686805F079F8142100F062FAFEBD70B597
:1002D00000250024334E3078002801D1212070BD44
:1002E000706805F069F8010000D020243570210005
:1002F00000F04EFA70BD3EB5069C012C01D10125DF
:1003000000E00025002801D133203EBD0D2901DB8E
:1003100030203EBD002A03D1012C01D131203EBD49
:100320000295019300920B00020001211D484068D4
:1003300000F00EFB3EBD1FB502240443012B06D185
:1003400001206B461C73002904D134200CE00020EE
:100350006B461C73029001920091002303AA0021B6
:100360001048406800F0F4FA04B010BDE0B5012870
:1003700001DD35200EBD002802D10321072303E053
:10038000012801D1042105230020029002200190C0
:1003900000200090DBB20022C9B20248406800F0A1
:1003A000D7FA0EBD7C02002080B5052A1FD801A314
:1003B0009B5C9F440416262C383200BFBAA2026010
:1003C000002901D012200870002002BD05F0B2F90A
:1003D0000100F9D05C2100F0DBF902BD05F0F8FD69
:1003E000F6E701F02BFBF3E701F07AF8F0E75D2187
:1003F0000020F0E738B50C00A74D2978012930D14D
:10040000696802688A604268CA6080680861C005DD
:1004100009D5886D394A904205D108005830344AD0
:100420000260344A02815620085C01280AD1080083
:1004300000F04FF96968C886002801D1412032BD1B
:1004400032200C5468685621415C022907D181682A
:10045000002902D0C068062801D2402032BD022007
:100460002870002032BDF8B507000C008A4E3078A5
:10047000002801D05820F2BD05F030FB050001D066
:1004800057210DE0380005F0F1FC050004D12000F3
:1004900005F074FC050006D005F0E6FB57212800A6
:1004A00000F076F9F2BD032030700020F2BD0000AC
:1004B00088130000E0930400FF01000038B5764C7B
:1004C0002078032801D05A2032BD05F0BDFC00255C
:1004D000010001D0257004E005F0C6FB0100257085
:1004E00003D0592100F054F932BD002032BD000084
:1004F00000EE020008520000D4300000A08C000082
:10050000FEB505000E0002A865A10C68046001D1CB
:100510005320FEBD0D2A01DB5220FEBD5E4C20782B
:10052000022801D05120FEBD032020700020616808
:1005300009186427C95D02AF3F5CB9420ED1401C67
:100540000428F4DB01930020009013003200012105
:10055000606800F0B9FA010002D0FEBD5020FEBD77
:10056000606800F0E1F9010003D0542100F010F9B7
:10057000FEBD002D04D10021606800F01FFE0500C3
:100580002A000021606800F0BBFB010002D10220BC
:1005900020700020FEBD0000F8B50D0017001E0001
:1005A000694600BF3FA213680B603B4C21780229CB
:1005B00001D05620F2BD042121700021626852183A
:1005C0006423D25C6B465B5C9A4210D1491C0429BF
:1005D000F4DB002802D1606800F038FE012302003D
:1005E0003100280000F04CFD010002D0F2BD552082
:1005F000F2BD3A002900606800F06AFD02219B28E4
:1006000000D12170020006D160686222805A069AE9
:10061000108021700020F2BD002101701E490A786F
:10062000002A06D0496856228A5C022A01D109694B
:1006300001700020704780B500F00AFE02BD38B599
:10064000050001F012FA04000DD1280001F016FA9D
:10065000040004D001F00BFA5B21200004E001F05B
:1006600006FA040003D05B2100F092F832BD0020AE
:1006700032BD80B50949884201DBB12002BD401C72
:1006800080B201F09DFB010003D0B02100F080F8A2
:1006900002BD002002BD00007C020020FF0F000010
:1006A00098BADCFE98BADCFE56322E382E315F53F3
:1006B000455F46444C5F4D4F4E0000000100C87836
:1006C00002028878024348780002097808435040C3
:1006D000704720B5030000220020002185005D192D
:1006E000AD68CD40ED0700D5521C491C2029F5DB33
:1006F000401C0328F1DB0620424390B220BDB0B578
:10070000040000250027481E062101F0EBFB401CD9
:10071000C0B20022874216D00023390081420ED099
:100720009700E719BF68DF40FF0705D5491CC9B22C
:10073000884201D15501ED185B1C202BEEDB0F0028
:10074000521C032AE6DBE8B2B0BDF0B50C00050090
:100750005835AE88806D310001F0B2FB0700288962
:10076000310001F0BFFB381AE9886143401A80B2BA
:10077000F0BD30B502000C0015005C35A8885C2186
:10078000515A01F0AFFB69884C43001980B230BD6B
:100790000202C8B210437047F4B582B0040056207C
:1007A000205C491C0091C74F042801D0022847D182
:1007B000A08C002802D0791C884205DB2000643020
:1007C000FFF77CFF3840A0846846007A01281BD1DF
:1007D00001212000FFF7B9FF050001212000FFF7EC
:1007E000C8FF01232A000100A08C00F04BFDA0846B
:1007F000208320005630A18C028989186183A18C46
:100800000089081AA0831BE0002526000021300083
:10081000FFF79BFF040000213000FFF7AAFF012330
:1008200022000100B08C00F02DFDB08431001831A1
:100830006A0088526D1CEDB200988542E6DB3400F8
:100840005620205C012858D1A08E002802D0791CA7
:10085000884205DB20006430FFF730FF0740A786A1
:10086000A08C002801D0802806DB20006430FFF730
:1008700025FF4006400EA0846846007A01281ED15C
:100880000123E28E521D92B20821A08E00F0FAFCE4
:10089000A086002326220421A08C00F0F3FCA08473
:1008A000A08E2087A08E401C6087A08E401EA0874F
:1008B000A08C2083A08C6083A08CA083F7BD002532
:1008C0000123E28E921D92B20721A08E00F0DAFC85
:1008D000A086002326220421A08C00F0D3FCA08453
:1008E0006800A18E22181187A18C220018321152A3
:1008F0006D1CEDB200988542E2DBF7BD026849004D
:100900004118098B5C23C35A59435118836D5B0806
:10091000C91A914201D3012101E00021C943826A31
:10092000C06A41435018704780B56946828C0A708E
:10093000828C120A4A705622825C012A04D1828E6D
:100940008A70808E000AC870684604F0E9FD02BD16
:10095000F2B586B005000027039700260EA80078A0
:100960000490012800D101267A480078022801D09D
:100970006020A5E003207749087054216F540224B9
:100980000D980028694601D10F7200E00C720196A3
:100990006846007A00906846017E280000F094F8CE
:1009A0000100E6D12800FFF7BFFF002802D00102B6
:1009B000612070E0280054308078022805D1E86872
:1009C00003902869FF2188432861039B9BB26846F6
:1009D000027A0EA80178280000F0F1F901003ED15A
:1009E000002E41D004205B4908700EA802780C99B3
:1009F000280000F020FB010001D09B2830E0049883
:100A0000012831D1032053490870022004F018FD59
:100A1000002802D0010264203DE0019000900823EC
:100A200000220221280000F04FF8010048D12800E0
:100A3000FFF77AFF002802D0010262202BE0280095
:100A400054308078022801D143480390039B9BB225
:100A500000220021280000F0B2F9010004D07E2815
:100A60002ED13C490C702BE05420285C012824D165
:100A700054202F54019700970523002204212800B9
:100A800000F022F801001BD12800FFF74DFF0028DD
:100A900003D001026320084312E02800543080781C
:100AA000022801D1E8680390039B9BB20222002137
:100AB000280000F084F9010002D1264804700020CB
:100AC00007B0F0BDFF07000070B582B004000D0054
:100AD000079E009600F058F801003AD1022D05DB80
:100AE0001E48E083623020841D482BE05520215CA5
:100AF0001CA0102912DA490041181C390988E18329
:100B00005521615C4900411810390988218455211B
:100B1000615C49004018001F008813E00A39891001
:100B20004900415AE1835521615C0A398910490025
:100B30004118898921845521615C0A39891049004D
:100B40004018008B6084320006992000FFF724FED5
:100B5000002076BD7C020020280A000067AF00005C
:100B6000BEB100006BA08DA05FA311A64CA967AF1A
:100B7000E0A6D2A098A5BFA671A9C9AF34A002A3D0
:100B8000A3A52CA797A9BEB1F8B586B00500002093
:100B900000276C4620732C004434002914D002290D
:100BA00039D003D304295DD011D37CE00095694688
:100BB000097E884200DB9FE0009B3E33851DEDB23D
:100BC000165C5E55401CF4E7107820706BE003AAB9
:100BD000921C04A904A8801C04F0F8FB060002D0B3
:100BE000010292207EE0082020706846408A6070F2
:100BF0006846408A000AA0706846008AE07068462D
:100C0000008A000A20710398001460710398001490
:100C10000012A07147E003AA921C04A904A8801C3A
:100C200004F0D4FB060002D0010293205AE0092010
:100C300020706846408A60706846408A000AA0704A
:100C40006846008AE0706846008A000A20710398AE
:100C500000146071039800140012A071E08B6430DE
:100C6000E07120E0012703AA921C04A904A8801CBB
:100C700004F0ACFB060002D00102952032E00A200D
:100C800020706846408AC82101F02CF960706846DF
:100C9000008AC82101F026F9A070039800140A21E7
:100CA00001F020F9E07000F0E0FE060018D1280005
:100CB0005530029028003E30019003A800903B0080
:100CC0000C9A6846017E200000F0DDFE060003D08D
:100CD00000F0CDFE310204E000F0C9FE060003D0B2
:100CE00001029020084305E0207C6946097B01430E
:100CF0002174002007B0F0BD009D68460176D2E760
:100D0000F2B588B004001700002004F0E7FE972534
:100D100000282DD1380005F0A9F8060020D1AA211D
:100D200068460170417008A9097849006118CA8BAA
:100D3000120A8270C98BC17008A90B785521615CB9
:100D40000A1FD2B2011D20003E3000F0CDFA55201E
:100D5000225C6820215C684604F098FF060003D0FE
:100D600004F082FF300204E004F07EFF060003D0AE
:100D700000020543280000E0002009B0F0BDF8B5EE
:100D80000400080017001D0004F0A8FE060015D19D
:100D9000380005F06BF8060007D12A0030202156F4
:100DA000052005F0BBF8060003D004F05DFF30001D
:100DB000F2BD04F059FF060000D10020F2BDF2B5EB
:100DC00086B01F0000260025019603966946097E1D
:100DD000012900D1039169468A7004005620205CE5
:100DE000012811D14E703220205C012811D1002A37
:100DF0000FD0039800280CD00A2004F0CFFB002865
:100E000032D0010270200BE16846039901224A406A
:100E1000427038004BD05620205C022847D1380061
:100E200004F090FB00281CD100212000FFF766FD94
:100E30006B4602003120215C2000FFF7A0FF002854
:100E400019D168460078002818D1A068401E854254
:100E50001CD2032004F0F4FA002817D001027920F4
:100E6000DEE001027720DBE004F0ECFB0028D0D0CC
:100E700001027120D4E001027620D1E068460078BA
:100E8000012803D104F0CCFB00283FD16D1CEDB24A
:100E9000A1688D4203D2694609780129BFD1216931
:100EA0004A07520FC9084819C0001018206156207F
:100EB000205C022804D168460078012800D0B1E007
:100EC0000027684680780290401C04900025290085
:100ED000200000F073F9020029002000FFF710FF46
:100EE000010000D0A5E05620205C022802D1206934
:100EF000401C2061002D2AD15620205C6946097EC5
:100F000001290ED1022804D1132003E00102782028
:100F100086E0142004F042FB002818D0010275205E
:100F20007EE0012813D13220205C01280FD1E08E11
:100F3000049900F0D7FF0100142000F0C1FF80B237
:100F40000028019003D004F029FB002833D156205B
:100F5000205C02280AD10298854207DA002D05D1CB
:100F6000FA20400104F0EEFA002827D168464078C4
:100F700004F066FA002824D16E1C5620205C02285A
:100F800030D1029885422DDAF1B22000FFF7B6FC8D
:100F90006B4602003120215C2000FFF7F0FE0028A4
:100FA00012D168460078002814D104F039FB0028DB
:100FB0000DD1012716E00102722031E001027B20F1
:100FC0002EE0010274202BE001027A2028E00102C9
:100FD0007C2025E00298401E854203D104F020FBCE
:100FE00000281BD1F5B20498854202DA380000D1FE
:100FF0006DE75620205C01281AD13220205C0128A0
:1010000016D10198000413D00398002810D104F0E1
:1010100019FB00280CD00102732001E001027D20A1
:10102000084306E068460078002801D17E2000E0F1
:10103000002007B0F0BD70B504000D001600012EB1
:1010400007D104F0FFFA002803D0010298200843DA
:1010500070BD62695620205C022801D1222100E087
:1010600019213300012000F00BF8010007D12A00FC
:101070000121200000F02CF8010000D1002070BDFB
:10108000F2B504001700012004F028FDE026002836
:1010900001D0000217E0380004F0E8FE050004D19A
:1010A000009804F07BFA050002D004F0DDFD09E0B1
:1010B000012C0BD100F0D9FC050007D004F0D4FDC1
:1010C00004F09CFA280206433000F2BD0020F2BD75
:1010D000F3B589B01700002402940026019400257E
:1010E0006A460999623104A804F0DAFE0390684662
:1010F000007801282ED10AA80078012814D100A96F
:10110000491C04A800F0CCFD0290002822D16846BA
:10111000407801281BD1002104A840180079785498
:10112000491C082916DAF7E7012000217A5C04AB94
:101130005B5C9A4200D00020491C0F29F6DB09991C
:101140006222895E04F08EFA0190002802D1039891
:101150000028C5D004F088FD040068460078002807
:1011600002D004F04BFA06000AA80078012802D148
:1011700000F07DFC05009A20029900290DD1039909
:1011800000290AD1002C01D021020CE0310001D04D
:10119000310208E00199002902D00906090C02E099
:1011A000290002D02902084306E06846007800289A
:1011B00001D19B2000E000200BB0F0BDF8B5040089
:1011C0000D00002000216A00A21800925622A25CA5
:1011D00026005836042A01D0022A08D10098018B33
:1011E000B088414320684018A36D5B08C01A012AEB
:1011F0001FD10098008F811F89B22000FFF77FFA6E
:10120000070036890098008F401E062100F062FE1C
:101210000C48414370180099098B962292004A436A
:10122000811820684018084A5743C019A26D520817
:10123000801A002D05D162685118A26D5208891AD2
:101240006161F2BDA8610000E0930400406970474D
:1012500070B5050000F009FC992400280CD1280085
:1012600000F007FC060003D000F001FC300204E0AF
:1012700000F0FDFB060003D000020443200070BD17
:10128000002070BDF8B505000C001600012B03D13D
:10129000082014490A2202E005207F2106222B00A3
:1012A0006D466C806C462680002B00D10B001E0022
:1012B0001641012535401F00074101263E405B04D1
:1012C0001B0C6E4002D01D0001232B430B406C46CB
:1012D00024889C42E8DB6C466488A342E4DB180067
:1012E000F2BD00BFFF070000F6B583B006001F0087
:1012F0000024002A03D0114603981FF0FDF83300A4
:1013000000222AE01E0066432E43009C267000BF88
:1013100015A4615C1CE003998918009101932100D8
:10132000802300BF11A4BD006419645C009D2D786A
:10133000019EB65C1E42E5D0641EA441E40F1E006F
:1013400066432E43009C267007A4615C891CC9B2C9
:101350005B08E6D1019B0C00521C6946097C8A425D
:10136000D9DB05B0F0BD0000000001010000000065
:101370000001010000010001FF22F632904201DB72
:1013800080207047B34808600020704700207047F5
:1013900010B513000024002905D0022909D004D378
:1013A000032909D00CE002000BE00200FA208000C3
:1013B00004E00200A84801E00200A848424300E01F
:1013C0008224180006D0A6480360A649100004F045
:1013D000FFFA00E08224200010BD80B504F020FB5D
:1013E000002002BDFEB582B0010000250022684643
:1013F000007A00E0521C8242FCDB072801DB8420DB
:1014000061E0994C6560A56000220CE0D300E6180D
:1014100082277F00F619CB181F6837601F79377154
:101420005B797371521C0600B242EFDB01910499A3
:101430006A46127B9A235B00E718386020009C30D4
:1014400000900560B9603A7101231022A420400089
:10145000211820000C3000F020F902230D22C420B6
:101460004000211820003C3000F017F903230B2224
:10147000DE204000211820006C3000F00EF92560BD
:10148000002201980BE011016118A43180231B0692
:101490000B608D600D71D300C358CB60521CB242FB
:1014A000F1DB3D61714804F0D3F98220400020183F
:1014B00000990968C900405804F030FA04F016FA9F
:1014C00004F042FA002005B0F0BD80B5684800681D
:1014D000012803D104F01CFA04F0E8F9002002BD51
:1014E000D5A20260002901D1862070470E20087025
:1014F00000207047FEB501005B4C2068401C206056
:1015000020000C3000F002F92068FF2138318842B9
:1015100000D09EE06068401C60600025256084204B
:1015200040002618001F20180290481C2018019027
:1015300020009C3000902000A43000990968090127
:10154000411820000C3000F002F9002874D10198F5
:101550000078002846D1A068002801D16068A0600A
:10156000F16A6068A268801A884269D380221206F4
:1015700000200BE00301E318A4339F68002F04D080
:101580001B689A4201DA05001A00401C8842F1DB10
:1015900000984560E800201882214900471828017A
:1015A0002518A43538792979884204D0787900281B
:1015B0000ED088420CD104F0CDF92B683A68297915
:1015C000002004F0CDF92A6812B22979386830E099
:1015D00020000C3000F080F8F26A0299009800F0C8
:1015E00049F829E00098007B3178814204D0717875
:1015F000002921D081421FD101200199C86004F047
:10160000A9F90098006801016118A4310B68029AD9
:10161000C00012580979012004F0A2F9009800686E
:1016200001016118A4310A6812B20979029BC00055
:101630001858019B5B68984701980078002804D1EE
:10164000F26A0299009800F015F820000C3000F0C2
:1016500043F8F7BD8402002060EA000080EE360007
:10166000B80500201518000878040020F5140008BB
:10167000BC05002070B504000D00160004F048F908
:101680002068401CB04200D100202060C0002858D3
:1016900004F044F904F02AF970BD38B504001500CF
:1016A0006160256024202354FF203830290000F099
:1016B00019FC6843A0610020E061A0608021090658
:1016C000E1600021C9432161606120622A0000219C
:1016D000606800F0A9F831BD70B50025002406004F
:1016E000302060433018856080210906C1600021E8
:1016F000C94301614561C561056202680021406816
:1017000000F092F8641C032CEADB70BD70B5002277
:10171000002330245C430419E569A669B54212DA56
:101720006D1CE561A5686E1CA6606668AD00751944
:101730002E6876182E60A5682668B54203D1A2608F
:1017400065696D1C65615B1C032BE2DB70BDF3B545
:1017500083B00020029000250020802424060399F5
:1017600030226A438E183168002208E073689700BF
:10177000DB59C0189C4201DA1C003261521C8A42BB
:10178000F4DB001B0190491E009101270846716996
:101790004843810008180199401800996143884224
:1017A00011DA37622000716900F09CFBF0602000C4
:1017B000716900F097FBB06201987169009A51431A
:1017C00000F090FBF0626D1C022DC5DD0398006AED
:1017D0000399096D401803998022895840180128FF
:1017E00012D100220499039830235343C3181C6A72
:1017F000002C05D0DC680C6024241B5D0B718F600D
:10180000521C022A03DCEFE70020C043029002983A
:1018100005B0F0BD80B503480121416000688047F4
:1018200001BD0000B8050020002A02E00160001D93
:10183000521EFBD1704700004D4E5F4150495F562C
:10184000322E302E30000000F1B58AB00026112A69
:1018500001DB022000E0012005011D70002501913F
:1018600069460A701A78E9B291420FD20199895DEE
:1018700002AAEFB2D15569460978491E8E4202D0BC
:10188000761CF6B200E000266D1CEBE70A9B020016
:1018900002A9180004F004FF0CB0E0BDF7B58AB04F
:1018A0001E00139C149D159F684604F077FC0B21C5
:1018B000681D1EF021FEE078C0012871A078C001EB
:1018C000E17849080143E9706078C001A1784908CE
:1018D0000143A9702078C00161784908014369700B
:1018E000207840088021014329700122290002A8A4
:1018F00004F0D6FE02A8017BFE220A4002733109E1
:101900004173002F02D110220A434273129932010F
:101910000B051B0F13438373C173E078C00128715B
:10192000A078C001E17849080143E9706078C001FE
:10193000A17849080143A9702078C001617849085D
:10194000014369702078400828700121280004F0C4
:1019500013FF012202A906A804F0DEFE00220A9865
:101960000B990CAB1B7805E006ACA45C8D5C654064
:101970008554521C9A42F7DB0DB0F0BD082221239A
:1019800003404108202B01D0012B02D180204000D0
:1019900000E000200843521EF1D180B27047FEB52E
:1019A00005000C00684604F0F9FBB849227860781D
:1019B000000210436A4612885043084000D10800D4
:1019C0000026FFF7DBFF721CA9190B780700D74030
:1019D0005F400F70691C89190F78012393405B1ECB
:1019E00003409C4607239A1B634693407B400B7041
:1019F000761C082EE5DB0026FFF7C0FF721CA91934
:101A00004B7A0700D7405F404F728F7A0123934093
:101A10005B1E03409C4607239A1B634693407B4012
:101A20008B72761C052EE7DBFFF7A8FFA97B761CDF
:101A3000F0404840A8730020E873F7BD70B505007A
:101A40000E0004F0CFFE0200914C92A120000A305B
:101A50001EF0CCFD002E01D1472070BD2C600A3055
:101A60003070002070BD00207047002070470020BB
:101A7000704780B504F0C0FE002002BD80B504F0C0
:101A8000D7FE002002BDF1B598B00D0014001F0074
:101A900002200F9010A820211EF02EFD0AA814216C
:101AA0001EF02AFD06A804F079FB6846068B06A8FE
:101AB0004088099006A800796946487404F0D8FE69
:101AC0000090012F05D1002801D14920DCE0052537
:101AD0000024761C3005000D0890009801281AD1CA
:101AE0000898002804D16846407C401C6946487428
:101AF000380010D1089800280BD0099800280AD087
:101B000008980999491C00F0FBF9491E8941C90F41
:101B100002E0012100E000211E98017060012021F7
:101B200008402E001F9C07D11899097889010843A5
:101B300080210143217023E0012D01D100210BE020
:101B4000691E0422521B4B109B0F591889108900E3
:101B500051188A1CD2B20F9289010843207018983C
:101B600000280DD00021A31D02E0425C5A54491CFC
:101B7000A942FADB1890012F02D16846407CA0727E
:101B80002078F021014008980004000E08432070DE
:101B90000898607005A804F02FFE0020A21C05A97B
:101BA000095C1154401C0428F9DB0098012822D15B
:101BB000002F20D103900AA8029005A80190089850
:101BC00080B200906846437C2A001899A01DFFF758
:101BD00065FE0AA86946497C01700021431C625CCD
:101BE0005A54491CC9B2AA1D9142F8DB04ABEA1D44
:101BF000D2B20AA903E004ABAA1DD2B2210010A8F8
:101C0000FFF722FE00210F980AE010AA6B461B7C0A
:101C10005B18D218103A1278A31D6F18DA55491CB8
:101C20008142F2DB209A2B189B1D137000210026A5
:101C30000FE0080009E0205C0002484080B208275D
:101C400041000004F5D5144848407F1EF8D101003A
:101C5000761CF0B2DFB2B842EDD31048484080B2F3
:101C6000010ADBB2E154611C1378C8541078801D5E
:101C7000107006A808990180099941806946497C3D
:101C8000017104F09FFA002019B0F0BDFF010000BF
:101C9000000000202573000021100000FFFF00005D
:101CA000F2B590B0070006A804F078FA06A80188FB
:101CB0006A46D182007969460875002510990D7031
:101CC00004A804F099FD04A93800FFF768FE00207D
:101CD00001260021002200BF42A39B5CBC5CC440E3
:101CE000344063434B401900521C0E2AF3DD00BF01
:101CF00040A2C9B2515C79180A780123834053404D
:101D00000B70401C0828E4DB002000213A1DCBB2F8
:101D1000D25C5040C0B208224300000602D52F20FA
:101D2000584000E01800521EF6D1491CCAB20A2AD7
:101D3000ECD3B97BC0B281423FD108AC04A8017892
:101D40002170417861708278A270C278E2706A4630
:101D5000D28A22716A46D28A120A627100223D003A
:101D60002B1D9B5CA718BB71521C082AF8DB00785E
:101D7000A073E173012208A908A804F091FC287B54
:101D80002178884219D1687B6178884215D11098F2
:101D9000067004F06DFD01280FD10020039008A803
:101DA000029004A801906846C08A00906846037DAE
:101DB0000822291D281DFFF771FD002011B0F0BD7C
:101DC0001CB5040004F054FD002801D1482016BDC4
:101DD000684604F0E3F96846448004F0F3F9002013
:101DE00016BD00000102040803060C0B050A070ECD
:101DF0000F0D09000F0001040208050A030E090770
:101E0000060D0B0C034613F8012B002AFBD1181A00
:101E100001387047000000000000000000000000D2
:101E200001F0FF01102A2BDB10F0070F08D010F88B
:101E3000013B013A8B422DD010F0070F42B3F6D18F
:101E4000F0B441EA012141EA014122F007047FF0A8
:101E500000070023F0E80256083C85EA010586EAFF
:101E6000010685FA47F5A3FA87F586FA47F6A5FA3B
:101E700087F68EB9EED1F0BC01F0FF0102F0070247
:101E800032B110F8013B013A83EA010313B1F8D1F2
:101E90000020704701387047002D06BF35460338D3
:101EA000073815F0010F07D1013015F4807F02BF0C
:101EB000013015F4C03F0130F0BC0138704700BF5D
:101EC000002902D0B0FBF1F0704708B14FF0FF30AD
:101ED00000F01EB80029F8D00246B0FBF1F000FB7C
:101EE00011217047002902D090FBF1F070470028C3
:101EF000C8BF6FF00040B8BF4FF0004000F008B816
:101F00000029F4D0024690FBF1F000FB112170474C
:101F1000704700BF81F0004102E000BF83F0004342
:101F200030B54FEA41044FEA430594EA050F08BF74
:101F300090EA020F1FBF54EA000C55EA020C7FEA38
:101F4000645C7FEA655C00F0E2804FEA5454D4EBB5
:101F50005555B8BF6D420CDD2C4480EA020281EA7F
:101F6000030382EA000083EA010180EA020281EAB7
:101F70000303362D88BF30BD11F0004F4FEA013109
:101F80004FF4801C4CEA113102D0404261EB410118
:101F900013F0004F4FEA03334CEA133302D052429E
:101FA00063EB430394EA050F00F0A780A4F101045A
:101FB000D5F1200E0DDB02FA0EFC22FA05F2801894
:101FC00041F1000103FA0EF2801843FA05F359417A
:101FD0000EE0A5F120050EF1200E012A03FA0EFCF9
:101FE00028BF4CF0020C43FA05F3C01851EBE37123
:101FF00001F0004507D54FF0000EDCF1000C7EEB40
:1020000000006EEB0101B1F5801F1BD3B1F5001F7D
:102010000CD349085FEA30004FEA3C0C04F101049C
:102020004FEA445212F5800F80F09A80BCF1004FC5
:1020300008BF5FEA500C50F1000041EB045141EA47
:10204000050130BD5FEA4C0C404141EB010111F448
:10205000801FA4F10104E9D191F0000F04BF0146F3
:102060000020B1FA81F308BF2033A3F10B03B3F1D1
:1020700020020CDA0C3208DD02F1140CC2F10C0261
:1020800001FA0CF021FA02F10CE002F11402D8BFBF
:10209000C2F1200C01FA02F120FA0CFCDCBF41EA8B
:1020A0000C019040E41AA2BF01EB0451294330BD5A
:1020B0006FEA04041F3C1CDA0C340EDC04F1140437
:1020C000C4F1200220FA04F001FA02F340EA03000E
:1020D00021FA04F345EA030130BDC4F10C04C4F154
:1020E000200220FA02F001FA04F340EA0300294634
:1020F00030BD21FA04F0294630BD94F0000F83F47E
:10210000801306BF81F480110134013D4EE77FEA60
:10211000645C18BF7FEA655C29D094EA050F08BFAC
:1021200090EA020F05D054EA000C04BF194610468D
:1021300030BD91EA030F1EBF0021002030BD5FEAD1
:10214000545C05D14000494128BF41F0004130BDF9
:1021500014F580043CBF01F5801130BD01F000454D
:1021600045F0FE4141F470014FF0000030BD7FEAC0
:10217000645C1ABF194610467FEA655C1CBF0B46BB
:10218000024650EA013406BF52EA033591EA030FD2
:1021900041F4002130BD00BF90F0000F04BF0021CA
:1021A000704730B54FF4806404F132044FF00005FD
:1021B0004FF0000150E700BF90F0000F04BF002176
:1021C000704730B54FF4806404F1320410F00045DC
:1021D00048BF40424FF000013EE700BF42004FEAD7
:1021E000E2014FEA31014FEA02701FBF12F07F4354
:1021F00093F07F4F81F06051704732F07F4208BF0B
:10220000704793F07F4F04BF41F40021704730B511
:102210004FF4607401F0004521F000411CE700BF5D
:1022200050EA010208BF704730B54FF000050AE0E0
:1022300050EA010208BF704730B511F0004502D5E1
:10224000404261EB41014FF4806404F132045FEAE3
:10225000915C3FF4D8AE4FF003025FEADC0C18BF8C
:1022600003325FEADC0C18BF033202EBDC02C2F17E
:10227000200300FA03FC20FA02F001FA03FE40EA10
:102280000E0021FA02F11444BDE600BF4FF0FF3CFE
:1022900006E000BF4FF0010C02E000BF4FF0010C60
:1022A0004DF804CD4FEA410C7FEA6C5C4FEA430CD9
:1022B00018BF7FEA6C5C1BD001B050EA410C0CBF28
:1022C00052EA430C91EA030F02BF90EA020F00208A
:1022D000704710F1000F91EA030F58BF994208BFF1
:1022E00090422CBFD8176FEAE37040F001007047AE
:1022F0004FEA410C7FEA6C5C02D150EA013C07D105
:102300004FEA430C7FEA6C5CD6D152EA033CD3D04F
:102310005DF8040B704700BF8446104662468C4649
:102320001946634600E000BF01B5FFF7B7FF00287C
:1023300048BF10F1000F01BD4DF808EDFFF7F4FFA5
:102340000CBF012000205DF808FB00BF4DF808ED30
:10235000FFF7EAFF34BF012000205DF808FB00BF53
:102360004DF808EDFFF7E0FF94BF012000205DF875
:1023700008FB00BF4DF808EDFFF7CEFF94BF01202A
:1023800000205DF808FB00BF4DF808EDFFF7C4FF23
:1023900034BF012000205DF808FB00BF4FEA410276
:1023A00012F5001215D211D56FF47873B3EB6252A7
:1023B00012D94FEAC12343F0004343EA505311F0CE
:1023C000004F23FA02F018BF404270474FF0000060
:1023D000704750EA013005D111F0004008BF6FF09E
:1023E000004070474FF00000704700BF80F0004091
:1023F00002E000BF81F0004142001FBF5FEA4103DD
:1024000092EA030F7FEA226C7FEA236C6AD04FEADC
:102410001262D2EB1363C1BFD21841404840414021
:10242000B8BF5B42192B88BF704710F0004F40F4D3
:10243000000020F07F4018BF404211F0004F41F4EF
:10244000000121F07F4118BF494292EA030F3FD0BB
:10245000A2F1010241FA03FC10EB0C00C3F12003CE
:1024600001FA03F100F0004302D5494260EB40005D
:10247000B0F5000F13D3B0F1807F06D340084FEAC8
:10248000310102F10102FE2A51D2B1F1004F40EBBD
:10249000C25008BF20F0010040EA03007047490025
:1024A00040EB000010F4000FA2F10102EDD1B0FAF0
:1024B00080FCACF1080CB2EB0C0200FA0CF0AABFE5
:1024C00000EBC25052421843BCBFD0401843704783
:1024D00092F0000F81F4000106BF80F40000013289
:1024E000013BB5E74FEA41037FEA226C18BF7FEA60
:1024F000236C21D092EA030F04D092F0000F08BFA2
:102500000846704790EA010F1CBF0020704712F088
:102510007F4F04D1400028BF40F00040704712F1C7
:1025200000723CBF00F50000704700F0004343F02C
:10253000FE4040F4000070477FEA226216BF084662
:102540007FEA23630146420206BF5FEA412390EA25
:10255000010F40F4800070474FF0000304E000BF1B
:1025600010F0004348BF40425FEA000C08BF7047CC
:1025700043F0964301464FF000001CE050EA010290
:1025800008BF70474FF000030AE000BF50EA0102A5
:1025900008BF704711F0004302D5404261EB410192
:1025A0005FEA010C02BF84460146002043F0B643B7
:1025B00008BFA3F18053A3F50003BCFA8CF2083ADC
:1025C000A3EBC25310DB01FA02FC634400FA02FCE5
:1025D000C2F12002BCF1004F20FA02F243EB0200EC
:1025E00008BF20F00100704702F1200201FA02FC4E
:1025F000C2F1200250EA4C0021FA02F243EB020041
:1026000008BF20EADC70704753B94AB9002908BFF7
:1026100000281CBF4FF0FF314FF0FF30FFF778BCB0
:10262000ADF1080C6DE904CE00F006F8DDF804E029
:10263000DDE9022304B070472DE9F047089E044607
:102640008846002B4BD18A42154667D9B2FA82F2EE
:102650004AB1C2F1200701FA02F320FA07F79540C8
:1026600047EA030894404FEA154E230CB8FBFEF7E7
:102670001FFA85FC0EFB178843EA084307FB0CF1A1
:10268000994209D9EB1807F1FF3080F01B8199427C
:1026900040F21881023F2B445B1AA4B2B3FBFEF058
:1026A0000EFB103344EA034400FB0CFCA44509D99B
:1026B0002C1900F1FF3380F00781A44540F204811A
:1026C00002382C4440EA0740A4EB0C0400271EB15A
:1026D000D4400023C6E900433946BDE8F0878B4269
:1026E00009D9002E00F0EB800027C6E9000138462A
:1026F0003946BDE8F087B3FA83F7002F47D18B4204
:1027000002D3824200F2FA80841A61EB03030120B3
:102710009846002EE0D0C6E90048DDE702B9FFDEAA
:10272000B2FA82F2002A40F08F80491B4FEA154E20
:102730001FFA85F80127B1FBFEFC230C0EFB1C11D0
:1027400043EA014308FB0CF1994207D9EB180CF15D
:10275000FF3002D2994200F2CD808446591AA3B2CA
:10276000B1FBFEF00EFB101443EA044408FB00F832
:10277000A04507D92C1900F1FF3302D2A04500F281
:10278000B6801846A4EB080440EA0C409FE7C7F166
:10279000200CBB4022FA0CFE4EEA030E01FA07F4AD
:1027A00020FA0CF521FA0CF34FEA1E482543B3FB3F
:1027B000F8F92C0C08FB19331FFA8EFA44EA03438C
:1027C00009FB0AF49C4202FA07F200FA07F10BD95E
:1027D0001EEB030309F1FF3080F087809C4240F23A
:1027E0008480A9F1020973441B1BADB2B3FBF8F05E
:1027F00008FB103345EA034400FB0AFAA24508D956
:102800001EEB040400F1FF336BD2A24569D90238F4
:10281000744440EA0940A0FB0289A4EB0A044C4539
:10282000C2464B4654D351D0002E69D0B1EB0A05B5
:1028300064EB030404FA0CFCFD40FC404CEA050583
:10284000C6E90054002747E7C2F1200320FA03F746
:10285000954001FA02F021FA03F34FEA154E38438E
:10286000010CB3FBFEF71FFA85F80EFB173341EAA4
:10287000034107FB08F38B4204FA02F407D96918F5
:1028800007F1FF3C2FD28B422DD9023F2944CB1AAE
:1028900081B2B3FBFEF00EFB103341EA034100FBB3
:1028A00008F38B4207D9691800F1FF3C17D28B421D
:1028B00015D902382944C91A40EA07473BE7374689
:1028C000304609E70746E7E61846FBE64145ABD246
:1028D000B8EB020A69EB0E0201381346A4E7604622
:1028E000E9E7184695E76746D1E781467CE7023875
:1028F0002C4447E7ACF1020C2B442FE7384608E79D
:102900003746E9E680B485B000AF78604FF0B04359
:102910001A6E4FF0B0417B6813430B664FF0B04323
:102920001A6E7B681340FB60FB6800BF1437BD461E
:1029300080BC704780B483B000AF78604FF0B04384
:102940001A6E7B68DB434FF0B04113400B6600BF4B
:102950000C37BD4680BC704780B500AF234B244A7E
:102960001A60224B4FF000425A60204B00229A60BE
:102970001E4B0022DA601D4B00221A611B4B042201
:102980005A611A4B00221A76184B00225A76174BBE
:1029900000229A76154B0122DA61144B002283F84B
:1029A0002020124B00225A62104B00229A620F4BD9
:1029B000002283F82C200D4B4FF480521A630B4BEE
:1029C00007225A63094B07229A63084B002283F8B7
:1029D0003C20064B0022DA64044804F047FE03461C
:1029E000002B01D000F076FC00BF80BD281D002028
:1029F0000024014080B582B000AF78607B681B681E
:102A0000054A934203D14FF40070FFF77BFF00BFEC
:102A10000837BD4680BD00BF0024014080B582B0AC
:102A200000AF78607B681B68054A934203D14FF47E
:102A30000070FFF77FFF00BF0837BD4680BD00BFB5
:102A40000024014080B400AF034B044A1A6000BF69
:102A5000BD4680BC704700BF281D002000240140F7
:102A600080B586B002AF0023FB810023BB6000F07D
:102A700071F80346FB80304800F0A0F8B8602F4B97
:102A80001A882F4B1B889A4226D02C4B1A882C4B25
:102A90001B889A421CD0FB88BA6802FB03F39B0890
:102AA000284AA2FB03235B091A46254B1B88D31A2D
:102AB000642202FB03F2214B1B881946204B1B8822
:102AC000CB1A92FBF3F39BB21E339BB21BB201E015
:102AD00047F6FF73FB811CE0FB88BA6802FB03F238
:102AE000194BA3FB0213D21A52081344DB0A4FF40A
:102AF0007A7202FB03F3A3F53923A3F50C63134A9F
:102B000082FB03129212DB17D31A9BB21E339BB2C5
:102B1000FB81B7F90E3000930D4B012200210120FB
:102B20001CF0C2F9B7F90E301B02FB81B7F90E3069
:102B300018461037BD4680BD001000B0C875FF1F95
:102B4000A875FF1F9F00EE0901011000AD8BDB6827
:102B5000080F020880B582B000AF0023FB8000237D
:102B60003B60134800F02AF838603B68002B02D124
:102B70000023FB8016E00F4B1B884FF6FF72934239
:102B80000BD00C4B1B881A4640F6E44303FB02F2C1
:102B90003B68B2FBF3F3FB8004E0074A3B68B2FBFF
:102BA000F3F3FB80FB8818460837BD4680BD00BFA5
:102BB000002000B4AA75FF1FD8084C0080B586B06D
:102BC00000AF786000237B6107F1080300221A60E0
:102BD0005A609A60FFF7C0FE1A4805F00CFB0346E6
:102BE000002B01D000F076FB7B68BB600023FB600C
:102BF00000233B6107F108031946124805F08AF8E3
:102C00000346002B01D000F065FB0E4804F06EFF78
:102C10000346002B01D000F05DFB4FF0FF31094867
:102C200004F0DCFF074804F0A7FF064805F066F84B
:102C30007861044804F0DEFE7B6918461837BD460B
:102C400080BD00BF281D002080B485B000AF786033
:102C50004FF0B043DA6C4FF0B0417B681343CB6464
:102C60004FF0B043DA6C7B681340FB60FB6800BF39
:102C70001437BD4680BC704780B588B000AF0346AE
:102C8000FB7107F10C0300221A605A609A60DA6047
:102C90001A610220FFF7D8FFFB79124A32F813308D
:102CA000FB6001233B6100237B610223BB61FB7955
:102CB0000D4A52F8233007F10C021146184606F06F
:102CC0008DFAFB79084A52F82300FB79054A32F85D
:102CD00013300022194606F0ABFC002318462037BB
:102CE000BD4680BDE41B02082000002080B582B0F4
:102CF00000AF0346FB71FB79074A52F82300FB79CA
:102D0000064A32F813300122194606F091FC0023DE
:102D100018460837BD4680BD20000020E41B02088D
:102D200080B582B000AF0346FB71FB79074A52F8C9
:102D30002300FB79064A32F813300022194606F0C8
:102D400077FC002318460837BD4680BD20000020D0
:102D5000E41B020880B582B000AF0346FB71FB792B
:102D6000074A52F82300FB79064A32F81330194615
:102D700006F075FC002318460837BD4680BD00BF2D
:102D800020000020E41B020880B588B000AF034695
:102D90000A46FB711346BB7107F10C0300221A604F
:102DA0005A609A60DA601A61FB79002B03D1012026
:102DB000FFF74AFF0CE0FB79022B03D10120FFF75C
:102DC00043FF05E0FB79012B02D10420FFF73CFF14
:102DD000FB79284A32F81330FB6001237B61022320
:102DE000BB61BB79002B0CD100233B61FB79224AEC
:102DF00052F8233007F10C021146184606F0EEF99E
:102E000033E01E4B3B61FB791B4A52F8233007F13C
:102E10000C021146184606F0E1F9FB79DB00184A6E
:102E20009818FB79174A52F82330194605F09DFF90
:102E3000FB79DB00124A9818FB79134A52F82330C9
:102E40001A46002105F078FFFB79104AD056FB792D
:102E50000F4A52F823300022194605F01EFBFB7979
:102E60000A4AD356184605F032FB0023184620378D
:102E7000BD4680BDEC1B02082C0000200000211084
:102E80008C1D0020F81B020838000020F41B0208EB
:102E90004400002080B483B000AF0346FB7100BF44
:102EA0000C37BD4680BC704780B500AF0020FFF7EF
:102EB000F1FF00BF80BD80B500AF0120FFF7EAFF42
:102EC00000BF80BD80B500AF0220FFF7E3FF00BF69
:102ED00080BD80B485B000AF78604FF0B0439A6C8D
:102EE0004FF0B0417B6813438B644FF0B0439A6C52
:102EF0007B681340FB60FB6800BF1437BD4680BC95
:102F0000704780B500AF0420FFF7E3FF0120FFF713
:102F1000E0FF002202210F2005F0BFFA0F2005F08C
:102F2000D6FA00BF80BD000080B400AF064B1B691D
:102F300003F40023B3F5002F01D1012300E00023A7
:102F40001846BD4680BC70470040005890B587B019
:102F500000AFF860C7E900230123FB750DE000BF57
:102F6000FFF7E2FF0346002BFAD1D7E90023F96807
:102F7000012005F00DFF0346FB75FB68D3E9003423
:102F8000D7E90012A24208BF9942E8D1FB7D002B8D
:102F900007D0FB7D022B01D1012303E04FF0FF336B
:102FA00000E0002318461C37BD4690BD80B58AB0AE
:102FB00000AFF8600B467A607B810223BB61FB683F
:102FC000FB617B893B627B68002B08D007F118030B
:102FD000184606F077F8034687F827300AE007F12D
:102FE000140207F118031146184606F013F80346B9
:102FF00087F8273097F82730002B08D097F827302C
:10300000022B01D1012303E04FF0FF3300E0002346
:1030100018462837BD4680BD80B485B000AF7860C3
:103020004FF0B0439A6D4FF0B0417B6813438B650E
:103030004FF0B0439A6D7B681340FB60FB6800BFA4
:103040001437BD4680BC704780B483B000AF786051
:103050004FF0B0439A6D7B68DB434FF0B0411340B3
:103060008B6500BF0C37BD4680BC704780B500AF94
:10307000124B134A1A60114B00225A600F4B002268
:103080009A600E4B4FF6FF725A610C4B00221A6287
:103090000A4B00225A62094B00229A62074B002217
:1030A000DA62064B00221A63044806F07BFB0346F3
:1030B000002B01D000F00EF900BF80BDA41D002040
:1030C000007C004080B590B000AF786007F1080345
:1030D0003822002118461DF04CFA7B681B68114A03
:1030E00093421BD14FF40073BB604FF00C13BB62D3
:1030F00007F10803184608F0BDFA0346002B01D07B
:1031000000F0E8F84FF00040FFF786FF00220021B2
:10311000272005F0C2F9272005F0D9F900BF403774
:10312000BD4680BD007C004080B582B000AF7860B5
:103130007B681B68064A934206D14FF00040FFF7B8
:1031400083FF272005F0D1F900BF0837BD4680BDB9
:10315000007C004080B400AFBFF34F8F054BDB68AD
:1031600003F4E0620349044B1343CB60BFF34F8F7A
:1031700000BFFDE700ED00E00400FA0580B483B075
:1031800000AF78604FF0B043D3F8903023F01802CE
:103190004FF0B0417B681343C1F8903000BF0C374B
:1031A000BD4680BC7047000080B500AF04F076F8E3
:1031B00000F01AF80B4B1B68012B02D101F0ECF95F
:1031C00001E001F045FC01210020FFF7DDFD054B8A
:1031D0001B68012B02D101F0E7F9F8E701F040FC90
:1031E000F5E700BF0080002080B59AB000AF07F17E
:1031F00020034822002118461DF0BBF93B1D002288
:103200001A605A609A60DA601A615A619A61002005
:10321000FFF7B4FF1E4B1B6823F4C0631C4A43F442
:10322000007313601A4B1B6803F4C0633B603B6878
:1032300024233B628123FB6201233B6400237B64E4
:10324000B023BB640023FB6407F12003184607F09A
:103250008FFA0346002B01D000F03CF84F237B602F
:103260000023BB600023FB6000233B6100237B61E4
:103270000023FB613B1D0221184607F013FE0346A5
:10328000002B01D000F026F800BF6837BD4680BD96
:103290000004005880B582B000AF0346FB80FB8875
:1032A000012B02D0022B0DD00DE0094B1B68012B26
:1032B00003D1074B00221A6002E0054B01221A607D
:1032C000FFF748FF00BF00BF0837BD4680BD00BF05
:1032D0000080002080B400AFFEE780B483B000AF70
:1032E00078604FF0B0439A6B4FF0B0417B68134366
:1032F0008B6300BF0C37BD4680BC704780B483B081
:1033000000AF78604FF0B0439A6B7B68DB434FF0BF
:10331000B04113408B6300BF0C37BD4680BC704783
:1033200080B483B000AF7860064BD3F880200549A5
:103330007B681343C1F8803000BF0C37BD4680BCAA
:10334000704700BF0008005880B500AF4FF0004044
:10335000FFF7C3FF4FF00040FFF7D0FFFFF786FEF7
:103360004FF00050FFF7DCFF00BF80BD80B58EB08E
:1033700000AF0F4806F0D2FA0346002B01D0FFF74A
:10338000A9FF4FF400733B604FF440233B623B4680
:10339000184608F06FF94FF00040FFF79EFF4FF01E
:1033A0000040FFF7ABFF00BF3837BD4680BD00BF10
:1033B000A41D002080B400AF4FF0B043D3F890308C
:1033C0004FF0B04243F40043C2F8903000BFBD4616
:1033D00080BC704780B485B000AF78604FF0B043D8
:1033E0009A6D4FF0B0417B6813438B654FF0B0434B
:1033F0009A6D7B681340FB60FB6800BF1437BD46C5
:1034000080BC704780B58CB000AF3B1D2C220021E2
:1034100018461DF0AEF8224B224A1A60204B1F229C
:103420009A601F4B00221A611D4B00225A611C4BEF
:1034300000229A611A4B4FF08042DA61184B002249
:103440001A62174B4FF480725A62154808F02CFA32
:103450000346002B01D0FFF73DFF114808F006FDA1
:103460000346002B01D0FFF735FF00233B6200230A
:10347000BB600023BB614FF00053FB614FF48073CE
:10348000FB623B1D01221946054808F087FA0346F6
:10349000002B01D0FFF71EFF00BF3037BD4680BDB7
:1034A000E01D00200028004080B590B000AF78609B
:1034B00007F108033822002118461DF05AF87B68EE
:1034C0001B68164A934225D14FF48033BB604FF4FA
:1034D0008073FB6307F10803184608F0CBF8034636
:1034E000002B01D0FFF7F6FEFFF764FF4FF480607A
:1034F000FFF770FF00220021022004F0CEFF02201F
:1035000004F0E5FF002200212A2004F0C6FF2A2053
:1035100004F0DDFF00BF4037BD4680BD00280040FD
:1035200080B400AF034B0122C3F8882000BFBD4622
:1035300080BC70470004005880B400AF00BFBD4697
:1035400080BC704780B400AF00BFBD4680BC7047F0
:1035500080B500AF03F0D4FEFFF7E2FF012006F0D4
:10356000F7FD00BF80BD80B500AF03F0D7FE00F0CF
:10357000CDFF00BF80BD80B500AF03F0C1FE0121CB
:10358000002006F061FD00BF80BD80B500AF03F0F4
:10359000C5FE00BF80BD80B400AF00BFBD4680BC8B
:1035A000704780B400AF00BFBD4680BC704780B498
:1035B00000AFFEE780B400AFFEE780B400AFFEE7E7
:1035C00080B400AFFEE780B400AF00BFBD4680BC52
:1035D000704780B400AF00BFBD4680BC704780B468
:1035E00000AF00BFBD4680BC704780B500AF03F0A0
:1035F00075FE00BF80BD000080B500AF024808F036
:1036000071FC00BF80BD00BFE01D002080B500AF91
:10361000012006F03DF800BF80BD80B500AF02205C
:1036200006F036F800BF80BD80B500AF024805F057
:10363000E5F900BF80BD00BF241E002080B500AFAB
:10364000024809F069FA00BF80BD00BF841E002057
:1036500080B500AF024806F081FA00BF80BD00BF10
:10366000A41D002080B500AF024808F0EBFA00BFAF
:1036700080BD00BFE01D002080B500AF024808F00B
:1036800099FF00BF80BD00BF181E002080B485B028
:1036900000AF78604FF0B0435A6E4FF0B0417B6896
:1036A00013434B664FF0B0435A6E7B681340FB6088
:1036B000FB6800BF1437BD4680BC704780B500AFC3
:1036C000064B08221A60054808F0F8FC0346002B58
:1036D00001D0FFF7FFFD00BF80BD00BF181E002016
:1036E00080B582B000AF78600120FFF7CFFF0022E5
:1036F0000021322004F0D1FE322004F0E8FE00BFA9
:103700000837BD4680BD80B483B000AF78604FF00D
:10371000B0439B6823F400424FF0B0417B681343F1
:103720008B6000BF0C37BD4680BC704780B485B04D
:1037300000AF78604FF0B043DA6C4FF0B0417B6877
:103740001343CB644FF0B043DA6C7B681340FB60EB
:10375000FB6800BF1437BD4680BC704780B483B09F
:1037600000AF78604FF0B043DA6C7B68DB434FF01A
:10377000B0411340CB6400BF0C37BD4680BC7047DE
:1037800080B400AF024B1B681846BD4680BC704732
:103790008075FF1F80B400AF034B1B68DBB2184677
:1037A000BD4680BC704700BF8475FF1F80B400AF6A
:1037B000034B1B681B0A1846BD4680BC704700BF00
:1037C0008475FF1F80B500AF0020FFF79CFF1CF041
:1037D0009BF900F02FF900F0E9F91BF049FB0E48C6
:1037E0001BF0E4FB0D4B4FF400421A6103F0B6F8F6
:1037F00002201BF0E9FBFFF725F900F065FA1BF04A
:10380000BBFD012101201BF0F5FD012101201BF072
:10381000C3FD00BF80BD00BFF5390008004000585F
:1038200080B500AF1BF014FE00BF80BD80B584B032
:1038300002AF0023FB71FFF78DF90346BB80BB8805
:1038400040F6B832934202D9FE23FB7114E0BB88E4
:10385000B3F5E16F02D20023FB710DE0BB88A3F545
:10386000E1631A461346DB019B1A5B001A46094BBB
:10387000A3FB0223DB09FB71FB790093064B0122BA
:10388000002102201BF010FBFB7918460837BD46CB
:1038900080BD00BFB5814E1B140F020880B582B0F9
:1038A00000AF0023FB80FFF7DBF80346002B00DAB4
:1038B000FF331B121BB2FB80FB8818460837BD463E
:1038C00080BD90B587B000AF786000237B61FFF7C3
:1038D00057FF78617B69B3F1FF3F38D103F02CFDCE
:1038E000044603F03DFD034623443B6103F02EFDF7
:1038F000F8603B691A0E7B680733D2B21A703B69D5
:103900001A0C7B680633D2B21A703B691A0A7B68BC
:103910000533D2B21A707B6804333A69D2B21A7096
:10392000FB681A0E7B680333D2B21A70FB681A0C5C
:103930007B680233D2B21A70FB681A0A7B680133C3
:10394000D2B21A70FB68DAB27B681A7031E07B6819
:1039500007337A69D2B21A707B691A0A7B68063318
:10396000D2B21A707B691A0C7B680533D2B21A7016
:103970007B691A0E7B680433D2B21A70FFF70AFF14
:1039800078617B6803337A69D2B21A70FFF70EFF51
:1039900078617B6802337A69D2B21A707B691A0A3D
:1039A0007B680133D2B21A707B691B0CDAB27B6878
:1039B0001A7000BF1C37BD4690BD90B583B000AFF4
:1039C00000237B60FFF7DCFE78607B68B3F1FF3F8C
:1039D0000BD103F0B1FC044603F0B8FC03465C4095
:1039E00003F0BEFC034663407B607B6818460C37DF
:1039F000BD4690BD80B586B002AF7860396007F1F2
:103A0000080318461CF028F8BB68B7F90C20009290
:103A1000074A1021786800F069F87868FEF7F2F933
:103A200003469AB23B681A8000BF1037BD4680BD7E
:103A3000200F020880B586B000AF3B1D00221A603F
:103A40005A609A60DA601A610120FFF76FFE022067
:103A5000FFF76CFE0420FFF769FE8020FFF766FE8B
:103A60000323BB600023FB6049F6FF737B603B1DB3
:103A700019464FF0904005F0B1FB4FF6FF737B60A5
:103A80003B1D19460E4805F0A9FB3B1D19460D4884
:103A900005F0A4FB3B1D19460B4805F09FFB0120D8
:103AA000FFF75CFE0220FFF759FE0420FFF756FEE9
:103AB0008020FFF753FE00BF1837BD4680BD00BF12
:103AC0000004004800080048001C004880B500AF12
:103AD000012102201BF060FC00BF80BD80B500AF5B
:103AE000002102201BF058FC00BF80BD0CB480B543
:103AF00084B000AF7860396007F11C03FB6039685F
:103B0000FB68BA6978681CF0A1FB00BF1037BD469E
:103B1000BDE8804002B0704780B483B000AF7860E9
:103B2000002318460C37BD4680BC704780B500AFF7
:103B300000F0BAF90346184680BD80B582B000AFE8
:103B400078607B68184600F01AFA00BF0837BD4657
:103B500080BD80B485B000AF78604FF0B043DA6CC0
:103B60004FF0B0417B681343CB644FF0B043DA6C45
:103B70007B681340FB60FB6800BF1437BD4680BC08
:103B80007047000080B483B000AF7860064BD3F874
:103B9000902005497B681343C1F8903000BF0C3773
:103BA000BD4680BC704700BF0008005880B586B095
:103BB00000AF3B1D00221A605A609A60DA601A61F9
:103BC0000220FFF7C6FF0220FFF7C3FF0220FFF726
:103BD000C0FF0220FFF7BDFF0123BB600123FB6094
:103BE00003233B614FF480537B603B1D19463548EE
:103BF00005F0F4FA4FF400537B603B1D1946314841
:103C000005F0ECFA4FF480437B603B1D19462D48CC
:103C100005F0E4FA4FF480637B603B1D19462948A8
:103C200005F0DCFA00224FF48051264805F000FD33
:103C300000224FF40051234805F0FAFC00224FF413
:103C40008041204805F0F4FC00224FF480611D48BB
:103C500005F0EEFC0223BB600023FB60F0237B60D9
:103C60000D237B610120FFF774FF3B1D19464FF0C8
:103C7000904005F0B3FA0223BB600023FB604FF4D1
:103C800080537B6006237B610120FFF762FF3B1DB1
:103C900019464FF0904005F0A1FA4FF080424FF0E6
:103CA0008071002007F040FA4FF48040FFF76AFF70
:103CB00003F060FB03F064FB03F068FB00BF183700
:103CC000BD4680BD0004004880B400AF00BFBD46C3
:103CD00080BC704780B586B000AF7860144A154B41
:103CE000D31A7B617B693B61134B1B68002B02D1AC
:103CF000114B124A1A60104B1A687B6813443A69D8
:103D00009A4207D21CF000FC02460C2313604FF0CD
:103D1000FF3309E0084B1B68FB60074B1A687B68A0
:103D20001344054A1360FB6818461837BD4680BD2A
:103D3000008000200010000060060020C81F002046
:103D400080B483B000AF78607B689B6818460C37FE
:103D5000BD4680BC7047000080B582B000AF002334
:103D6000FB71144B1B7883F00103DBB2002B1BD0DB
:103D7000114B4FF0FF321A63FFF744FB00F056F887
:103D80004FF480710C4807F007FF0B4B4FF0FF32E8
:103D90001A63094808F038F8002000F0A3F900F091
:103DA0005FF8044B01221A70FB7918460837BD46AC
:103DB00080BD00BF64060020E01D002080B58EB0ED
:103DC00000AF7860002387F8373007F108032C2212
:103DD000002118461CF0CDFB00F028F8114B1B68A1
:103DE0007A6813447B6000237B627B68DB43FB6063
:103DF0000023FB614FF000533B624FF480733B6341
:103E000007F1080301221946074807F0C7FD0346DA
:103E1000002B01D0FFF75EFA97F837301846383795
:103E2000BD4680BD68060020E01D002080B582B040
:103E300000AF0023FB71084B0122DA654FF480715B
:103E4000064807F0A9FE054B4FF0FF321A63FB79D5
:103E500018460837BD4680BD00280040E01D002000
:103E600080B500AF00F05EF90246034B1A60024BCA
:103E70001B68184680BD00BF6806002080B400AFF4
:103E8000024B1B681846BD4680BC70476806002080
:103E900080B500AF00F046F90246024B1B68D31A0A
:103EA000184680BD6806002080B500AF054B1B7822
:103EB000002B03D000F036F9034600E0002318463B
:103EC00080BD00BF6406002080B400AF0323184605
:103ED000BD4680BC7047F0B583B000AF78607B68AA
:103EE0004FF000049E0D9D024FF47A724FF00003D4
:103EF00028463146FEF788FB03460C4618460C3729
:103F0000BD46F0BDF0B482B000AF78607B681D465E
:103F10004FF000062B4634464FF000014FF00002F0
:103F2000620142EAD36259010B4614465B1B64EB03
:103F300006044FF000014FF00002A20042EA937223
:103F400099000B4614465B1944EB06044FF0000140
:103F50004FF00002E20042EA5372D9000B461446C9
:103F6000194622464FF000034FF000048B0A43EA43
:103F70008253940A18460837BD46F0BC704780B596
:103F800084B000AF78607868FFF7A5FFF86000F0B4
:103F9000C9F8B86000E000BF00F0C4F80246BB6892
:103FA000D31AFA689A42F6D800BF1037BD4680BDD2
:103FB00080B582B000AF78601BF0F2FE00BF08371A
:103FC000BD4680BD80B584B000AF786000F09AF83F
:103FD000F860FB680133184600F084F800BF103722
:103FE000BD4680BD2DE9904888B000AF786000F0F4
:103FF00099F8F86100F086F8B861BB6919464FF08E
:1040000000024FF0000B4FF0000C8C464FF0000BFD
:10401000FA6911464FF000021BEB01034CEB02045E
:10402000C7E90434D7E904124FF000034FF000044D
:104030008B0A43EA8253940AFB603B699B464FF02C
:10404000000C40F2FF314FF000020BEA01030CEAD2
:104050000204C7E904343B691846FFF753FF0346DF
:104060009AB27B681A80FB6818462037BD46BDE8C7
:104070009088000080B582B000AF78607A68002137
:10408000034807F053FF00BF0837BD4680BD00BF9F
:10409000E01D002080B582B000AF78607A68012111
:1040A000034807F043FF00BF0837BD4680BD00BF8F
:1040B000E01D002080B500AF0021034807F04EFF4F
:1040C0000346184680BD00BFE01D002080B500AF4C
:1040D0000121034807F042FF0346184680BD00BF98
:1040E000E01D002080B582B000AF78607A680221C0
:1040F000034807F01BFF00BF0837BD4680BD00BF67
:10410000E01D002080B582B000AF0221044807F016
:1041100025FF78607B6818460837BD4680BD00BF24
:10412000E01D002080B500AF0348FFF709FE0346FD
:10413000DB43184680BD00BF0028004080B485B036
:1041400000AF78604FF0B043DA6C4FF0B0417B685D
:104150001343CB644FF0B043DA6C7B681340FB60D1
:10416000FB6800BF1437BD4680BC704780B485B083
:1041700000AF78604FF0B0439A6D4FF0B0417B686C
:1041800013438B654FF0B0439A6D7B681340FB601F
:10419000FB6800BF1437BD4680BC704780B483B055
:1041A00000AF78604FF0B0439A6D7B68DB434FF00F
:1041B000B04113408B6500BF0C37BD4680BC7047D3
:1041C00080B500AF224B234A1A60214B4FF4E132F5
:1041D0005A601F4B00229A601D4B0022DA601C4B74
:1041E00000221A611A4B0C225A61194B00229A6163
:1041F000174B0022DA61164B00221A62144B002280
:104200005A62134B00229A62114808F086FB03465B
:10421000002B01D0FFF75EF800210D4809F0ECFFFC
:104220000346002B01D0FFF755F8002108480AF09B
:1042300021F80346002B01D0FFF74CF8044809F0A1
:10424000A0FF0346002B01D0FFF744F800BF80BD5C
:10425000841E00200044004080B596B000AF786016
:1042600007F1440300221A605A609A60DA601A610A
:1042700007F10C033822002118461CF07AF97B68FC
:104280001B68334A93425FD10223FB60314B7B6151
:1042900007F10C03184607F0EDF90346002B01D097
:1042A000FFF718F84FF40030FFF760FF0120FFF729
:1042B00045FF0C237B640223BB640023FB640323C0
:1042C0003B6507237B6507F1440319464FF0904097
:1042D00004F084FF204B214A1A601F4B14225A60BD
:1042E0001D4B10229A601C4B0022DA601A4B802270
:1042F0001A61194B00225A61174B00229A61164B22
:104300000022DA61144B00221A62134804F0FCF810
:104310000346002B01D0FEF7DDFF10210E4804F00C
:1043200033FC0346002B01D0FEF7D4FF7B680A4A1A
:104330009A67094A7B68936200220221252004F0D3
:10434000ACF8252004F0C3F800BF5837BD4680BD47
:104350000044004004000C00241E002058000240CD
:1043600080B582B000AF78607B681B680B4A9342CF
:1043700010D14FF40030FFF711FF0C214FF09040A7
:1043800005F08AF87B689B6F184604F065F92520D4
:1043900004F0ABF800BF0837BD4680BD00440040C4
:1043A00080B483B000AF78604FF0B0439A6B4FF0A9
:1043B000B0417B6813438B6300BF0C37BD4680BCA4
:1043C000704780B483B000AF78604FF0B0439A6B11
:1043D0007B68DB434FF0B04113408B6300BF0C3769
:1043E000BD4680BC7047000080B483B000AF7860E9
:1043F000064BD3F8802005497B681343C1F8803011
:1044000000BF0C37BD4680BC704700BF0008005895
:1044100080B582B000AF7860074A7B681360FEF712
:1044200070FDFFF7CDFE4FF00060FFF7DDFF0023CA
:1044300018460837BD4680BD6C06002080B500AF29
:104440004FF40030FFF7ACFF4FF40030FFF7B9FF37
:104450000448FFF785FF0F2004F047F800231846B3
:1044600080BD00BF841E002080B582B000AF7860A0
:104470000B467B807B881A467968044808F0CCFAA2
:10448000002318460837BD4680BD00BF841E0020AB
:1044900080B584B000AF7860194A7B6813604FF430
:1044A0000013BB6007F1080393E80600154809F004
:1044B000ECFD00BF134B1B68DB6903F48033B3F5DD
:1044C000803FF7D000BF0F4B1B68DB6903F480030C
:1044D000B3F5800FF7D10B4B1B689A68094B1B682B
:1044E00042F480029A60074809F02AFE0122064938
:1044F000044808F062FA002318461037BD4680BD14
:1045000070060020841E0020141F002080B500AF1C
:10451000084808F002FA0346002B01D0FEF7DAFE45
:10452000054803F0F1FF0346002B01D0FEF7D2FE51
:1045300000BF80BD841E0020241E002080B582B0F4
:1045400000AF7860034B1B680020984700BF083716
:10455000BD4680BD6C06002080B582B000AF78609B
:104560000B4B1B68002B0AD07B68D3F88C30002BD8
:1045700005D1074B1B6800220121064898470122FC
:104580000449786808F019FA00BF0837BD4680BDB5
:1045900070060020141F002080B500AFFFF712F94D
:1045A00000F00AF800BF80BD80B500AF4FF0FF30CB
:1045B0001AF0BAFF00BF80BD80B584B004AF0220FE
:1045C000FEF75AFB0120FEF757FB0020FEF754FBD5
:1045D0000023029300230193012300933F4B002209
:1045E000002102201AF060FC0123029302230193B0
:1045F000022300933A4B0022002102201AF054FCBF
:10460000012302930623019300230093354B0022DC
:10461000002102201AF048FC00230093324B0022B4
:104620004FF0FF3131481BF07FFA00230093304BED
:1046300000224FF0FF312F481BF076FA0023009341
:104640002D4B01224FF0FF312C481BF06DFA4FF437
:10465000FA7126481BF07AFB4FF4FA7125481BF0DB
:1046600075FB4FF4FA7125481BF070FB244A0021BA
:1046700001201BF039F8234A002102201BF034F8F6
:1046800000F0AAF920480BF009FB20480BF04CFB86
:104690001A481BF07FFA1E4B0022002100201AF05E
:1046A00003FC0346002BF6D11A4B1B7818460BF07F
:1046B00081FC00230093184B00224FF0FF31174874
:1046C0001BF032FA43F6982114481BF03FFB1348C5
:1046D0001BF060FA00BFBD4680BD00BF2C0F020872
:1046E0004C0F02086C0F02084948000880070020A0
:1046F0005F4800089807002075480008B0070020B0
:104700000DFF0008AD4700085C0000207400002089
:104710008C0F020858000020254800086807002078
:1047200080B582B000AF786039600220FEF7DEFA13
:1047300019481BF02FFA7B681B78022B00D026E06B
:104740007B685B681B78452B12D0492B02D0442B29
:1047500007D014E0114B0122002101201AF0A4FB24
:1047600014E00F4B0122002101201AF09DFB0DE007
:104770000C4B0122002101201AF096FB06E00A4BA7
:104780000122002101201AF08FFB00BF00BF00BFF3
:104790000837BD4680BD00BF98070020AC0F020857
:1047A000D00F0208F40F02081C10020880B584B074
:1047B00002AF0023FB8000233B60FEF751F9034664
:1047C0001B12FB80134B02221A70124B5868B7F968
:1047D0000630114AF2211BF0D5FE0346DAB20D4B2A
:1047E0005A703A46002300210A480BF05DFC3B68F2
:1047F000002B0BD03B68094AA2FB03239B090093C3
:10480000074B0122002101201AF04EFB00BF0837A0
:10481000BD4680BD5000002050100208D34D6210EC
:104820005410020880B582B000AF786000210220E9
:104830001AF07AFF03481BF0ADF900BF0837BD46F8
:1048400080BD00BF6807002080B582B000AF7860EF
:104850000120FEF765FA00BF0837BD4680BD80B570
:1048600082B000AF78600220FEF75AFA00BF083726
:10487000BD4680BD80B582B000AF78600020FEF7F5
:1048800069FA00BF0837BD4680BD000080B586B01C
:1048900004AF78607B68002B44D07B681B78002BCA
:1048A00040D00120FEF722FA20481BF073F9204B7C
:1048B0000022002102201AF0F7FA7B689B687A68D0
:1048C000127B11467A6892F9042010467A6892F9B0
:1048D00014200392029001910093164B00220021B4
:1048E00003201AF0E1FA144B0022002103201AF0F1
:1048F000DBFA7B689B78012B0ED17B68DB78002B81
:1049000001D00E4B00E00E4B00930E4B0022002115
:1049100003201AF0C9FA05E00B4B00220021032006
:104920001AF0C2FA00BF0837BD4680BD80070020DC
:10493000681002089C100208D0100208E01002085B
:10494000E4100208EC1002080011020880B582B0E1
:1049500000AF78607B68002B28D07B6893F901302A
:10496000002B1DD113481BF081F90020FEF7D8F968
:10497000114B0022002102201AF096FA7B689B78E6
:10498000012B06D10D4B0022002102201AF08CFAD7
:104990000CE00B4B0022002102201AF085FA05E002
:1049A000084B0022002102201AF07EFA00BF0837CF
:1049B000BD4680BDB0070020101102082811020872
:1049C000481102086811020880B500AF00210120DB
:1049D0001AF0AAFE00BF80BD80B500AF154B0022C3
:1049E0001A60144B00225A60124B00229A60114B3D
:1049F0000022DA600F4B5B6843F020030D4A5360DE
:104A00000C4B5B6843F480730A4A5360094B5B6844
:104A1000002B06D1084B0022002100201AF044FA96
:104A2000FEE7044B0022DA60024B03221A6000BF4B
:104A300080BD00BFC80700208411020880B400AF09
:104A4000024B1846BD4680BC704700BFC807002017
:104A500080B500AFFEF7B6FE01F0D6FB00BF80BD0B
:104A600080B500AF4FF0FF301AF05EFD00BF80BD93
:104A700080B584B000AF786039600122396815488C
:104A800000F0DAF87B68002B1BD0124B1B799BB22D
:104A90005B007B810F4B1B6803F17843DB0A79894C
:104AA00000221846FEF782FA0346002B01D00323AA
:104AB0000CE002220021074800F03BFBF860FB6895
:104AC00004E0044800F0D3F8F860FB68184610379B
:104AD000BD4680BD181F002080B586B000AFF860CD
:104AE0000B467A607B81074B7B617B695B797989B7
:104AF0007A68786900F0AEFA034618461837BD4662
:104B000080BD00BF181F002080B586B000AFF860E0
:104B10000B467A607B812C4B7B617B69DB88194675
:104B20007B691B791A4613469B019B1A9B0099428D
:104B300007D27B897A681946786900F0F9F903464B
:104B40003EE07B695A797B691B799A4202D27B6984
:104B50001B7900E000233B613969786900F00CFBA8
:104B60000346002B01D005232AE001223969786928
:104B700000F0DFFA0346002B01D0042320E03B695C
:104B8000DAB27B695A717B690022DA807B69202264
:104B90001A817B897A681946786900F0C9F9034659
:104BA000002B01D004230BE07B893A691946786910
:104BB00000F037F90346002B01D0042300E0022364
:104BC00018461837BD4680BD181F002080B584B038
:104BD00000AF78603960174BFB60FB685A79FB685F
:104BE0001B799A4202D2FB681B7900E00023BB606C
:104BF000B968F86800F0C0FA0346042B01D0052319
:104C000013E0FB681B6803F17843DA0ABB68D0182D
:104C1000FB681B799BB23A681946FEF7C7F9034651
:104C2000002B01D0032300E0002318461037BD46B7
:104C300080BD00BF181F002080B485B000AFF860B1
:104C4000B9601346FB71FB68BA681A60FB68FA79B1
:104C50001A71FB6800225A71FB680022DA80FB6837
:104C600020221A8100BF1437BD4680BC704790B522
:104C700089B000AF78600123BB61C9E00023FB610C
:104C8000BCE0F969786800F077FA0246BB699342A4
:104C900040F0B080FB69002B05D07B681B791A4679
:104CA000FB69934209D1FB6901331946786800F02A
:104CB00063FA0346002B1BD09DE0FB69013B1946BC
:104CC000786800F059FAF860FA68BB699A4203D034
:104CD000FB68032B0CD08EE0FB69013B03221946D5
:104CE000786800F026FA0346002B01D0042394E0F4
:104CF000FB69DAB27B685A717B681A68FB69DB0270
:104D0000134420337B6100233B611AE07B69D3E9C4
:104D10000034B4F1FF3F08BFB3F1FF3F15D07B680B
:104D2000DB8801339AB27B68DA807B681B890833A1
:104D30009AB27B681A817B6908337B613B690133D6
:104D40003B613B69FB2BE1D90AE000BF08E07B68CF
:104D5000DB88FC339AB27B68DA80FB69013BFB613C
:104D6000FB69002B05D07B681B791A46FB699342CF
:104D7000EDD1BB69012B0AD1FA694FF40041786883
:104D800000F04FF80346002B01D0042345E07B6878
:104D90005A797B681B799A4202D27B681B7900E0C2
:104DA0000023BB60BB68FB611AE0F969786800F01A
:104DB000E3F90346002B10D07B681B6803F17843AE
:104DC000DA0AFB691344002201211846FEF7EEF8C7
:104DD0000346002B01D003231FE0FB690133FB6175
:104DE0007B681B791A46BB681344FA699A42DCD384
:104DF000002312E000BFFB690133FB617B681B7974
:104E00005B00FA699A42FFF43CAFBB690133BB61B6
:104E1000BB69022B7FF632AF052318462437BD4607
:104E200090BD80B588B000AFF8600B467A607B819A
:104E3000FB681B791A467B68934204D2FB681B7996
:104E40005B00013B02E0FB681B79013BBB617B8996
:104E5000B3F5004F23D0BB697B607968F86800F038
:104E60008BF978617B69022B02D07B69032B09D116
:104E700004227968F86800F05CF90346002B01D041
:104E8000042350E07B68002B09D0FB681B791A468D
:104E90007B68934203D07B68013B7B60DDE70023A6
:104EA000FB612DE07B89FA699A4226D07B89B3F5B4
:104EB000004F0BD1FB6999B2FB685B7907F11002D7
:104EC000F86800F0C7F80346002B16D0FB6999B2CA
:104ED00007F11002BB69F86800F0BCF80346002B2C
:104EE0000BD1FB699BB23A691946F86800F020F8CB
:104EF0000346002B01D0042315E0FB690133FB615D
:104F0000FB681B791A4613469B019B1A9B001A46A5
:104F1000FB699342C6D3FB685B7902221946F868A5
:104F200000F007F9034618462037BD4680BD000053
:104F30002DE9904888B000AFF8600B467A607B811D
:104F4000FB681B89B3F5006F26D3FB685B797B6137
:104F50007B695C1C7969F86800F00EF903461A4613
:104F60002146F86800F0E5F80346002B01D0042341
:104F700069E003227969F86800F0DBF80346002B4A
:104F800001D004235FE07B69DBB20133DAB2FB6856
:104F90005A71FB6820221A817B89B3F5004F06D134
:104FA0004FF000034FF00004C7E906342AE07B68A5
:104FB00019464FF000024FF0000B4FF0000C8C46EA
:104FC0004FF0000B7A891104214A0A4042F0004256
:104FD00011464FF000024BEA01034CEA0204C7E914
:104FE0000634D7E9060100F0F0F803461FFA83FB08
:104FF0004FF0000CD7E906124BEA01034CEA020419
:10500000C7E90634FB681A68FB685B79DB02134466
:10501000FA68128913443B61D7E906233869FDF722
:1050200095FF0346002B01D004230CE0FB681B898D
:1050300008339AB2FB681A81FB68DB8801339AB2A5
:10504000FB68DA80002318462037BD46BDE890880B
:105050000000FF3F2DE9904888B000AFF8607A600B
:105060003B600B467B81FB681A683B68DB0213449C
:10507000BB614FF4FF63FB6144E0BA69FB69134411
:10508000D3E90034C7E90434D7E90434B4F1FF3F6D
:1050900008BFB3F1FF3F32D0D7E9043423432ED009
:1050A000D7E904124FF000034FF000040B0C43EA61
:1050B0000243140C43F6FF714FF0000201EA030BA8
:1050C00002EA040C7B894FF00004A44508BF9B450D
:1050D00015D1D7E9040100F078F803461A463B8A57
:1050E0009A420CD1D7E904124FF000034FF00004AC
:1050F000130000241A467B681A60002314E0FB6941
:10510000083BFB61FB691F2BB7D83B68002B05D020
:10511000FB681B791A463B68934201D1012303E0E7
:105120003B68013B3B609EE718462037BD46BDE823
:10513000908880B586B000AFF860B9607A60FB688F
:105140001A68BB6819027B680B4403F10053013BEA
:10515000DB0013447B614FF0AA324FF0AA33786929
:10516000FDF7F4FE0346002B01D0042300E00023EA
:1051700018461837BD4680BD90B484B000AF786043
:1051800039607B681A683B68DB0213442033BB60DC
:105190000423FB600EE0BB68083BBB60BB68D3E93F
:1051A0000034B4F1FF3F08BFB3F1FF3F06D1FB6805
:1051B000013BFB60FB68002BEDD100E000BFFB680A
:1051C00018461037BD4690BC704790B484B000AF0D
:1051D000C7E900010023FB600023BB60D7E9001290
:1051E0004FF000034FF000040B0C43EA0243140C91
:1051F000C7E90034BB681A0A3B685340DBB2FB6066
:10520000FB681B09FA685340FB60BB681A02FB6825
:105210001B035A40FB685B015340FA685340BB6074
:10522000D7E900124FF000034FF000040B0A43EAE5
:105230000263140AC7E90034BB681A0A3B6853408A
:10524000DBB2FB60FB681B09FA685340FB60BB687C
:105250001A02FB681B035A40FB685B015340FA6863
:105260005340BB60D7E900124FF000034FF0000439
:105270000B0A43EA0263140AC7E90034BB681A0A3E
:105280003B685340DBB2FB60FB681B09FA68534084
:10529000FB60BB681A02FB681B035A40FB685B019A
:1052A0005340FA685340BB60D7E900124FF0000347
:1052B0004FF000040B0A43EA0263140AC7E9003402
:1052C000BB681A0A3B685340DBB2FB60FB681B09F2
:1052D000FA685340FB60BB681A02FB681B035A4024
:1052E000FB685B015340FA685340BB60D7E900128A
:1052F0004FF000034FF000040B0A43EA0263140A64
:10530000C7E90034BB681A0A3B685340DBB2FB6054
:10531000FB681B09FA685340FB60BB681A02FB6814
:105320001B035A40FB685B015340FA685340BB6063
:10533000D7E900124FF000034FF000040B0A43EAD4
:105340000263140AC7E90034BB681A0A3B68534079
:10535000DBB2FB60FB681B09FA685340FB60BB686B
:105360001A02FB681B035A40FB685B015340FA6852
:105370005340BB60BB689BB218461037BD4690BC1B
:105380007047000080B485B000AF03463960FB80F1
:105390000023FB81FB88C82B03D83B68054A1A60B1
:1053A00001E01123FB81FB89DBB218461437BD46AF
:1053B00080BC7047E007002080B483B000AF786005
:1053C000002318460C37BD4680BC704780B588B0B6
:1053D00002AFF860B9607A600023FB75FDF7BAFB95
:1053E00003461A46FB681A80BB6800221A80FDF744
:1053F00037FB03461A4613469B0013445B001B12FF
:105400001AB27B681A807B68B3F9003000930A4BAC
:1054100001220021022019F047FDFB681B88009340
:10542000064B00220021022019F03EFDFB7D1846AC
:105430001837BD4680BD00BFD4110208E011020834
:1054400080B584B000AF0346FB710023FB8101F0FF
:10545000BFFB03467B73FB79032B45D801A252F8AF
:1054600023F000BF75540008B1540008D55400085B
:10547000DF5400087B7B022B05D07B7B032B02D003
:105480007B7B052B03D1282000F06CF90FE07B7BA0
:10549000012B02D07B7B042B04D14FF4F17000F080
:1054A00061F904E04FF4C37000F05CF91FE01EE006
:1054B0007B7B022B05D07B7B032B02D07B7B052BD8
:1054C00003D1282000F04EF911E04FF45C7000F099
:1054D00049F90CE040F2366000F044F907E04FF47F
:1054E000F57000F03FF902E01423FB8100BFFB8957
:1054F000DBB218461037BD4680BD00BF80B582B014
:1055000000AF78600421786801F0E2FC0346012BCB
:1055100001D0162300E0002318460837BD4680BDA1
:1055200080B582B000AF78600421786801F020FD7A
:105530000346012B01D0172300E00023184608374B
:10554000BD4680BD80B584B002AF0346FB80FB88BA
:1055500000930F4B01220021022019F0A5FC00232B
:1055600000930C4B00224FF0FF310B481AF0DCFA8D
:1055700009481AF07BFBFB88194607481AF0E6FB3E
:1055800005481AF007FB002318460837BD4680BDC2
:10559000F011020841690008D808002080B586B0E3
:1055A00002AF78607B684FF47A7202FB03F3FB6012
:1055B0007B6800930E4B01220021022019F074FC3D
:1055C000002300930B4B00224FF0FF310A481AF0E2
:1055D000ABFA09481AF04AFBF96807481AF0B6FB1B
:1055E00005481AF0D7FA002318461037BD4680BD8B
:1055F00010120208F5570008C008002080B500AF5F
:10560000054B01220021022019F04EFC03481AF03C
:105610002DFB0023184680BD30120208C008002070
:1056200080B500AF054B01220021022019F03CFC9F
:1056300003481AF01BFB0023184680BD40120208E5
:10564000D808002080B500AF054B012200210220C0
:1056500019F02AFC01201AF0CBF80023184680BD6F
:105660005012020880B586B004AF03460A46FB71AB
:105670001346BB802B4B1B6801332A4A1360FB790E
:10568000012B27D10120FDF731FB3220FEF755FA1F
:105690000120FDF745FB244B1B680133224A1360B0
:1056A000B7F904301F4A12681E4908681E49096884
:1056B000411A642000FB01F01A49096890FBF1F1DE
:1056C000029101920093194B01220021032019F04D
:1056D000EBFB21E00220FDF709FB3220FEF72DFA5B
:1056E0000220FDF71DFBB7F904300E4A12680D4980
:1056F00008680D490968411A642000FB01F0094956
:10570000096890FBF1F1029101920093084B01228C
:105710000021032019F0C8FB002318460837BD46B6
:1057200080BD00BFD8070020DC07002064120208FB
:105730009812020880B483B000AF786039607B684B
:10574000074A1A603B68002B01D11E2303E03B6827
:105750000D221A70002318460C37BD4680BC7047D6
:105760007C00002080B584B002AF78607B68009335
:10577000164B01220021022019F096FB7B68052BB5
:1057800016D900230093124B00224FF0FF3111482D
:105790001AF0CAF90F481AF069FA79680D481AF038
:1057A000D5FA0C481AF0F6F904201AF021F802E0B4
:1057B0007868FEF7C2F9084B01220021022019F097
:1057C00073FB00BF0837BD4680BD00BFCC12020886
:1057D000DD570008A8080020DC12020880B582B05E
:1057E00000AF7860042019F0C9FF00BF0837BD463C
:1057F00080BD000080B582B000AF7860012019F054
:10580000BDFF054B01220021022019F04DFB00BF16
:105810000837BD4680BD00BFE812020880B483B0DF
:1058200000AF786039607B683A689A6100BF0C37D6
:10583000BD4680BC704780B483B000AF78603960EB
:105840007B683A689A6200BF0C37BD4680BC7047DF
:1058500080B582B000AF7860104A7B681360FDF7B6
:1058600073FD0F4B01220021022019F01DFB0D4B8F
:105870009B6C40F69B00984703461A460A4B1A70E9
:10588000084B5B6C002140F69B00984701210820E3
:1058900019F082FD00BF0837BD4680BD0C0900200D
:1058A00000130208BC240208F008002080B500AFF5
:1058B00000F0D8F8FDF75AFD0021082019F06CFD22
:1058C000074B5B6C074A1278114640F69B009847DD
:1058D000054B01220021022019F0E6FA00BF80BD2D
:1058E000BC240208F00800200C13020880B500AFA9
:1058F000054B00221A70054B5B6E00209847024B47
:1059000001221A7000BF80BD89000020BC2402085B
:1059100080B400AF00BFBD4680BC704780B582B088
:1059200000AF7860064B00221A70064BDB6878687F
:105930009847034B01221A7000BF0837BD4680BD4F
:1059400089000020BC24020880B500AF00F07AF87E
:1059500000BF80BD80B500AF00F084F800BF80BDFF
:1059600080B588B004AFF860B9607A603B60FB68CE
:10597000002B12D10220FDF7B9F93B6802937B6836
:105980000193BB680093104B01220021032019F002
:105990008BFA0220FDF7C4F911E00220FDF7A6F909
:1059A0003B6802937B680193BB680093074B01221D
:1059B0000021032019F078FA0220FDF7B1F900BFA9
:1059C0001037BD4680BD00BF1813020848130208F7
:1059D00080B584B002AF786039607B6800930E4B6D
:1059E00001220021032019F05FFA002300933B6895
:1059F00000224FF0FF3109481AF096F807481AF0D4
:105A000035F9796805481AF0A1F904481AF0C2F886
:105A100000BF0837BD4680BD78130208F408002097
:105A200080B500AF05481AF021F9054B012200218D
:105A3000032019F039FA00BF80BD00BFF408002030
:105A40009413020880B500AF00220121044803F03E
:105A50008DFF0346002B01D0FDF73CFC00BF80BD4D
:105A6000A41D002080B500AF044804F01DF80346D3
:105A7000002B01D0FDF72EFC00BF80BDA41D00202F
:105A800080B584B000AF78604FF67E73FB814FF431
:105A900080510E48FFF7C2FE0D4B1B78012B0BD136
:105AA0000C4B1B6C002098470346FB810A4B1B687C
:105AB000B7F90E20104698474FF480510348FFF77E
:105AC000BAFE00BF1037BD4680BD00BF00040048CD
:105AD00089000020BC2402080C09002090B58DB07C
